{
  "contractName": "AsianSoloBet",
  "abi": [
    {
      "constant": false,
      "inputs": [
        {
          "name": "newJuice",
          "type": "uint256"
        }
      ],
      "name": "updateJuice",
      "outputs": [
        {
          "name": "",
          "type": "bool"
        }
      ],
      "payable": false,
      "stateMutability": "nonpayable",
      "type": "function"
    },
    {
      "constant": true,
      "inputs": [],
      "name": "countPlayers",
      "outputs": [
        {
          "name": "",
          "type": "uint256"
        }
      ],
      "payable": false,
      "stateMutability": "view",
      "type": "function"
    },
    {
      "constant": false,
      "inputs": [
        {
          "name": "_feeOwner",
          "type": "address"
        }
      ],
      "name": "changeFeeOwner",
      "outputs": [
        {
          "name": "",
          "type": "bool"
        }
      ],
      "payable": false,
      "stateMutability": "nonpayable",
      "type": "function"
    },
    {
      "constant": true,
      "inputs": [],
      "name": "owner",
      "outputs": [
        {
          "name": "",
          "type": "address"
        }
      ],
      "payable": false,
      "stateMutability": "view",
      "type": "function"
    },
    {
      "constant": true,
      "inputs": [],
      "name": "feeOwner",
      "outputs": [
        {
          "name": "",
          "type": "address"
        }
      ],
      "payable": false,
      "stateMutability": "view",
      "type": "function"
    },
    {
      "constant": true,
      "inputs": [
        {
          "name": "player",
          "type": "address"
        }
      ],
      "name": "getPlayerBalance",
      "outputs": [
        {
          "name": "",
          "type": "uint256"
        }
      ],
      "payable": false,
      "stateMutability": "view",
      "type": "function"
    },
    {
      "constant": false,
      "inputs": [],
      "name": "withDrawFee",
      "outputs": [],
      "payable": false,
      "stateMutability": "nonpayable",
      "type": "function"
    },
    {
      "constant": false,
      "inputs": [
        {
          "name": "newOwner",
          "type": "address"
        }
      ],
      "name": "transferOwnership",
      "outputs": [],
      "payable": false,
      "stateMutability": "nonpayable",
      "type": "function"
    },
    {
      "inputs": [],
      "payable": false,
      "stateMutability": "nonpayable",
      "type": "constructor"
    },
    {
      "anonymous": false,
      "inputs": [
        {
          "indexed": false,
          "name": "sender",
          "type": "address"
        },
        {
          "indexed": false,
          "name": "amount",
          "type": "uint256"
        }
      ],
      "name": "LogSelfDestruct",
      "type": "event"
    },
    {
      "anonymous": false,
      "inputs": [
        {
          "indexed": false,
          "name": "bMaker",
          "type": "address"
        },
        {
          "indexed": false,
          "name": "punter",
          "type": "address"
        },
        {
          "indexed": false,
          "name": "matchId",
          "type": "bytes32"
        },
        {
          "indexed": false,
          "name": "betingId",
          "type": "uint256"
        }
      ],
      "name": "LogDeal",
      "type": "event"
    },
    {
      "anonymous": false,
      "inputs": [
        {
          "indexed": true,
          "name": "previousOwner",
          "type": "address"
        },
        {
          "indexed": true,
          "name": "newOwner",
          "type": "address"
        }
      ],
      "name": "OwnershipTransferred",
      "type": "event"
    },
    {
      "constant": true,
      "inputs": [
        {
          "name": "bettingOwner",
          "type": "address"
        }
      ],
      "name": "getBettingMatchesByAddress",
      "outputs": [
        {
          "name": "",
          "type": "bytes32[]"
        },
        {
          "name": "",
          "type": "uint256[]"
        },
        {
          "name": "",
          "type": "int256[]"
        },
        {
          "name": "",
          "type": "uint256[]"
        },
        {
          "name": "",
          "type": "bool[]"
        },
        {
          "name": "",
          "type": "uint256[]"
        }
      ],
      "payable": false,
      "stateMutability": "view",
      "type": "function"
    },
    {
      "constant": true,
      "inputs": [
        {
          "name": "matchId",
          "type": "bytes32"
        }
      ],
      "name": "totalBets",
      "outputs": [
        {
          "name": "",
          "type": "uint256"
        }
      ],
      "payable": false,
      "stateMutability": "view",
      "type": "function"
    },
    {
      "constant": true,
      "inputs": [
        {
          "name": "matchId",
          "type": "bytes32"
        }
      ],
      "name": "findMatch",
      "outputs": [
        {
          "name": "homeTeam",
          "type": "string"
        },
        {
          "name": "awayTeam",
          "type": "string"
        },
        {
          "name": "homeScore",
          "type": "uint256"
        },
        {
          "name": "awayScore",
          "type": "uint256"
        },
        {
          "name": "time",
          "type": "uint256"
        },
        {
          "name": "status",
          "type": "uint8"
        },
        {
          "name": "isApproved",
          "type": "bool"
        }
      ],
      "payable": false,
      "stateMutability": "view",
      "type": "function"
    },
    {
      "constant": false,
      "inputs": [
        {
          "name": "matchId",
          "type": "bytes32"
        },
        {
          "name": "homeScore",
          "type": "uint256"
        },
        {
          "name": "awayScore",
          "type": "uint256"
        }
      ],
      "name": "updateScore",
      "outputs": [
        {
          "name": "",
          "type": "bool"
        }
      ],
      "payable": false,
      "stateMutability": "nonpayable",
      "type": "function"
    },
    {
      "constant": false,
      "inputs": [
        {
          "name": "matchId",
          "type": "bytes32"
        }
      ],
      "name": "approveScore",
      "outputs": [
        {
          "name": "",
          "type": "bool"
        }
      ],
      "payable": false,
      "stateMutability": "nonpayable",
      "type": "function"
    },
    {
      "constant": false,
      "inputs": [
        {
          "name": "matchId",
          "type": "bytes32"
        }
      ],
      "name": "claimStake",
      "outputs": [
        {
          "name": "",
          "type": "bool"
        }
      ],
      "payable": false,
      "stateMutability": "nonpayable",
      "type": "function"
    },
    {
      "constant": false,
      "inputs": [
        {
          "name": "matchId",
          "type": "bytes32"
        },
        {
          "name": "bettingId",
          "type": "uint256"
        }
      ],
      "name": "cancelOffer",
      "outputs": [
        {
          "name": "",
          "type": "bool"
        }
      ],
      "payable": false,
      "stateMutability": "nonpayable",
      "type": "function"
    },
    {
      "constant": true,
      "inputs": [],
      "name": "getBettingMatchIds",
      "outputs": [
        {
          "name": "",
          "type": "bytes32[]"
        }
      ],
      "payable": false,
      "stateMutability": "view",
      "type": "function"
    },
    {
      "constant": true,
      "inputs": [],
      "name": "getTotalBettingMatches",
      "outputs": [
        {
          "name": "",
          "type": "uint256"
        }
      ],
      "payable": false,
      "stateMutability": "view",
      "type": "function"
    },
    {
      "constant": false,
      "inputs": [
        {
          "name": "matchId",
          "type": "bytes32"
        },
        {
          "name": "homeTeam",
          "type": "string"
        },
        {
          "name": "awayTeam",
          "type": "string"
        },
        {
          "name": "selectedTeam",
          "type": "uint256"
        },
        {
          "name": "time",
          "type": "uint256"
        },
        {
          "name": "odds",
          "type": "int256"
        }
      ],
      "name": "offerNewMatch",
      "outputs": [
        {
          "name": "",
          "type": "bool"
        }
      ],
      "payable": true,
      "stateMutability": "payable",
      "type": "function"
    },
    {
      "constant": false,
      "inputs": [
        {
          "name": "matchId",
          "type": "bytes32"
        },
        {
          "name": "bettingId",
          "type": "uint256"
        }
      ],
      "name": "deal",
      "outputs": [
        {
          "name": "",
          "type": "bool"
        }
      ],
      "payable": true,
      "stateMutability": "payable",
      "type": "function"
    },
    {
      "constant": true,
      "inputs": [
        {
          "name": "matchId",
          "type": "bytes32"
        },
        {
          "name": "bettingId",
          "type": "uint256"
        }
      ],
      "name": "getBettingInfo",
      "outputs": [
        {
          "name": "bMaker",
          "type": "address"
        },
        {
          "name": "punter",
          "type": "address"
        },
        {
          "name": "selectedTeam",
          "type": "uint8"
        },
        {
          "name": "odds",
          "type": "int256"
        },
        {
          "name": "amount",
          "type": "uint256"
        },
        {
          "name": "status",
          "type": "uint8"
        }
      ],
      "payable": false,
      "stateMutability": "view",
      "type": "function"
    },
    {
      "constant": false,
      "inputs": [],
      "name": "destroyContract",
      "outputs": [],
      "payable": false,
      "stateMutability": "nonpayable",
      "type": "function"
    }
  ],
  "bytecode": "0x6080604052600560085534801561001557600080fd5b50336000806101000a81548173ffffffffffffffffffffffffffffffffffffffff021916908373ffffffffffffffffffffffffffffffffffffffff16021790555033600260006101000a81548173ffffffffffffffffffffffffffffffffffffffff021916908373ffffffffffffffffffffffffffffffffffffffff1602179055506147f7806100a66000396000f30060806040526004361061011d576000357c0100000000000000000000000000000000000000000000000000000000900463ffffffff16806301cd6b9c146101225780630662ce0114610200578063092a5cce1461034b5780633c9b03f3146103625780634007c5ad146103bf57806341deb678146104085780634ae87b6f146106085780634bec8b391461064d578063616f886314610678578063679153cd146106cb5780637bbe09f5146107115780637df79e8c1461075a57806384465fa5146107855780638da5cb5b146107e0578063b9818be114610837578063bd282d4a1461088e578063d3d79caf146108d3578063e2734c931461093f578063eea5bf4b14610996578063f2fde38b146109ad578063f3864de1146109f0575b600080fd5b34801561012e57600080fd5b5061015b600480360381019080803560001916906020019092919080359060200190929190505050610ad6565b604051808773ffffffffffffffffffffffffffffffffffffffff1673ffffffffffffffffffffffffffffffffffffffff1681526020018673ffffffffffffffffffffffffffffffffffffffff1673ffffffffffffffffffffffffffffffffffffffff1681526020018560ff1660ff1681526020018481526020018381526020018260048111156101e757fe5b60ff168152602001965050505050505060405180910390f35b34801561020c57600080fd5b5061022f6004803603810190808035600019169060200190929190505050610c6a565b60405180806020018060200188815260200187815260200186815260200185600481111561025957fe5b60ff1681526020018415151515815260200183810383528a818151815260200191508051906020019080838360005b838110156102a3578082015181840152602081019050610288565b50505050905090810190601f1680156102d05780820380516001836020036101000a031916815260200191505b50838103825289818151815260200191508051906020019080838360005b838110156103095780820151818401526020810190506102ee565b50505050905090810190601f1680156103365780820380516001836020036101000a031916815260200191505b50995050505050505050505060405180910390f35b34801561035757600080fd5b50610360610f1d565b005b34801561036e57600080fd5b506103a5600480360381019080803560001916906020019092919080359060200190929190803590602001909291905050506111f0565b604051808215151515815260200191505060405180910390f35b3480156103cb57600080fd5b506103ee60048036038101908080356000191690602001909291905050506112d7565b604051808215151515815260200191505060405180910390f35b34801561041457600080fd5b50610449600480360381019080803573ffffffffffffffffffffffffffffffffffffffff1690602001909291905050506119db565b6040518080602001806020018060200180602001806020018060200187810387528d818151815260200191508051906020019060200280838360005b838110156104a0578082015181840152602081019050610485565b5050505090500187810386528c818151815260200191508051906020019060200280838360005b838110156104e25780820151818401526020810190506104c7565b5050505090500187810385528b818151815260200191508051906020019060200280838360005b83811015610524578082015181840152602081019050610509565b5050505090500187810384528a818151815260200191508051906020019060200280838360005b8381101561056657808201518184015260208101905061054b565b50505050905001878103835289818151815260200191508051906020019060200280838360005b838110156105a857808201518184015260208101905061058d565b50505050905001878103825288818151815260200191508051906020019060200280838360005b838110156105ea5780820151818401526020810190506105cf565b505050509050019c5050505050505050505050505060405180910390f35b34801561061457600080fd5b50610633600480360381019080803590602001909291905050506120c9565b604051808215151515815260200191505060405180910390f35b34801561065957600080fd5b50610662612142565b6040518082815260200191505060405180910390f35b34801561068457600080fd5b506106b160048036038101908080356000191690602001909291908035906020019092919050505061214f565b604051808215151515815260200191505060405180910390f35b6106f760048036038101908080356000191690602001909291908035906020019092919050505061236f565b604051808215151515815260200191505060405180910390f35b34801561071d57600080fd5b506107406004803603810190808035600019169060200190929190505050612790565b604051808215151515815260200191505060405180910390f35b34801561076657600080fd5b5061076f613037565b6040518082815260200191505060405180910390f35b34801561079157600080fd5b506107c6600480360381019080803573ffffffffffffffffffffffffffffffffffffffff169060200190929190505050613044565b604051808215151515815260200191505060405180910390f35b3480156107ec57600080fd5b506107f56130e7565b604051808273ffffffffffffffffffffffffffffffffffffffff1673ffffffffffffffffffffffffffffffffffffffff16815260200191505060405180910390f35b34801561084357600080fd5b5061084c61310c565b604051808273ffffffffffffffffffffffffffffffffffffffff1673ffffffffffffffffffffffffffffffffffffffff16815260200191505060405180910390f35b34801561089a57600080fd5b506108bd6004803603810190808035600019169060200190929190505050613132565b6040518082815260200191505060405180910390f35b3480156108df57600080fd5b506108e861315a565b6040518080602001828103825283818151815260200191508051906020019060200280838360005b8381101561092b578082015181840152602081019050610910565b505050509050019250505060405180910390f35b34801561094b57600080fd5b50610980600480360381019080803573ffffffffffffffffffffffffffffffffffffffff1690602001909291905050506131b6565b6040518082815260200191505060405180910390f35b3480156109a257600080fd5b506109ab6131ff565b005b3480156109b957600080fd5b506109ee600480360381019080803573ffffffffffffffffffffffffffffffffffffffff169060200190929190505050613325565b005b610abc6004803603810190808035600019169060200190929190803590602001908201803590602001908080601f0160208091040260200160405190810160405280939291908181526020018383808284378201915050505050509192919290803590602001908201803590602001908080601f016020809104026020016040519081016040528093929190818152602001838380828437820191505050505050919291929080359060200190929190803590602001909291908035906020019092919050505061347a565b604051808215151515815260200191505060405180910390f35b600080600080600080610ae76144d5565b600460008a6000191660001916815260200190815260200160002088815481101515610b0f57fe5b906000526020600020906005020160c060405190810160405290816000820160009054906101000a900473ffffffffffffffffffffffffffffffffffffffff1673ffffffffffffffffffffffffffffffffffffffff1673ffffffffffffffffffffffffffffffffffffffff1681526020016001820160009054906101000a900473ffffffffffffffffffffffffffffffffffffffff1673ffffffffffffffffffffffffffffffffffffffff1673ffffffffffffffffffffffffffffffffffffffff1681526020016001820160149054906101000a900460ff1660ff1660ff16815260200160028201548152602001600382015481526020016004820160009054906101000a900460ff166004811115610c2457fe5b6004811115610c2f57fe5b815250509050806000015196508060200151955080606001519350806080015192508060a00151915080604001519450509295509295509295565b6060806000806000806000610c7d614546565b600360008a6000191660001916815260200190815260200160002061012060405190810160405290816000820154600019166000191681526020016001820160009054906101000a900460ff1660ff1660ff1681526020016001820160019054906101000a900460ff1660ff1660ff1681526020016001820160029054906101000a900463ffffffff1663ffffffff1663ffffffff1681526020016001820160069054906101000a900465ffffffffffff1665ffffffffffff1665ffffffffffff16815260200160018201600c9054906101000a900460ff166004811115610d6157fe5b6004811115610d6c57fe5b815260200160018201600d9054906101000a900460ff16151515158152602001600282018054600181600116156101000203166002900480601f016020809104026020016040519081016040528092919081815260200182805460018160011615610100020316600290048015610e245780601f10610df957610100808354040283529160200191610e24565b820191906000526020600020905b815481529060010190602001808311610e0757829003601f168201915b50505050508152602001600382018054600181600116156101000203166002900480601f016020809104026020016040519081016040528092919081815260200182805460018160011615610100020316600290048015610ec65780601f10610e9b57610100808354040283529160200191610ec6565b820191906000526020600020905b815481529060010190602001808311610ea957829003601f168201915b50505050508152505090508060e0015197508061010001519650806020015160ff169550806040015160ff1694508060a001519250806080015165ffffffffffff1693508060c00151915050919395979092949650565b60008060009054906101000a900473ffffffffffffffffffffffffffffffffffffffff1673ffffffffffffffffffffffffffffffffffffffff163373ffffffffffffffffffffffffffffffffffffffff16141515610f7a57600080fd5b600090505b60068054905081101561111357600060056000600684815481101515610fa157fe5b9060005260206000200160009054906101000a900473ffffffffffffffffffffffffffffffffffffffff1673ffffffffffffffffffffffffffffffffffffffff1673ffffffffffffffffffffffffffffffffffffffff1681526020019081526020016000205411156111065760068181548110151561101c57fe5b9060005260206000200160009054906101000a900473ffffffffffffffffffffffffffffffffffffffff1673ffffffffffffffffffffffffffffffffffffffff166108fc6005600060068581548110151561107357fe5b9060005260206000200160009054906101000a900473ffffffffffffffffffffffffffffffffffffffff1673ffffffffffffffffffffffffffffffffffffffff1673ffffffffffffffffffffffffffffffffffffffff168152602001908152602001600020549081150290604051600060405180830381858888f19350505050158015611104573d6000803e3d6000fd5b505b8080600101915050610f7f565b7f215be423a2afeeee1f3f4d3cc730708809a96e17103a81f16896c0722bd206356000809054906101000a900473ffffffffffffffffffffffffffffffffffffffff163073ffffffffffffffffffffffffffffffffffffffff1631604051808373ffffffffffffffffffffffffffffffffffffffff1673ffffffffffffffffffffffffffffffffffffffff1681526020018281526020019250505060405180910390a16000809054906101000a900473ffffffffffffffffffffffffffffffffffffffff1673ffffffffffffffffffffffffffffffffffffffff16ff5b6000806000809054906101000a900473ffffffffffffffffffffffffffffffffffffffff1673ffffffffffffffffffffffffffffffffffffffff163373ffffffffffffffffffffffffffffffffffffffff1614151561124e57600080fd5b6003600086600019166000191681526020019081526020016000209050838160010160006101000a81548160ff021916908360ff160217905550828160010160016101000a81548160ff021916908360ff160217905550600481600101600c6101000a81548160ff021916908360048111156112c657fe5b021790555060019150509392505050565b60006112e1614546565b600080600060036000876000191660001916815260200190815260200160002061012060405190810160405290816000820154600019166000191681526020016001820160009054906101000a900460ff1660ff1660ff1681526020016001820160019054906101000a900460ff1660ff1660ff1681526020016001820160029054906101000a900463ffffffff1663ffffffff1663ffffffff1681526020016001820160069054906101000a900465ffffffffffff1665ffffffffffff1665ffffffffffff16815260200160018201600c9054906101000a900460ff1660048111156113ca57fe5b60048111156113d557fe5b815260200160018201600d9054906101000a900460ff16151515158152602001600282018054600181600116156101000203166002900480601f01602080910402602001604051908101604052809291908181526020018280546001816001161561010002031660029004801561148d5780601f106114625761010080835404028352916020019161148d565b820191906000526020600020905b81548152906001019060200180831161147057829003601f168201915b50505050508152602001600382018054600181600116156101000203166002900480601f01602080910402602001604051908101604052809291908181526020018280546001816001161561010002031660029004801561152f5780601f106115045761010080835404028352916020019161152f565b820191906000526020600020905b81548152906001019060200180831161151257829003601f168201915b505050505081525050935060048081111561154657fe5b8460a00151600481111561155657fe5b14151561156257600080fd5b600760003373ffffffffffffffffffffffffffffffffffffffff1673ffffffffffffffffffffffffffffffffffffffff168152602001908152602001600020805490509250600091505b828210156119ce578560001916600760003373ffffffffffffffffffffffffffffffffffffffff1673ffffffffffffffffffffffffffffffffffffffff1681526020019081526020016000208381548110151561160557fe5b9060005260206000209060030201600101546000191614156119c157600460008760001916600019168152602001908152602001600020600760003373ffffffffffffffffffffffffffffffffffffffff1673ffffffffffffffffffffffffffffffffffffffff1681526020019081526020016000208381548110151561168857fe5b906000526020600020906003020160000160009054906101000a900463ffffffff1663ffffffff168154811015156116bc57fe5b90600052602060002090600502019050600160048111156116d957fe5b8160040160009054906101000a900460ff1660048111156116f657fe5b14156118485761181c848260c060405190810160405290816000820160009054906101000a900473ffffffffffffffffffffffffffffffffffffffff1673ffffffffffffffffffffffffffffffffffffffff1673ffffffffffffffffffffffffffffffffffffffff1681526020016001820160009054906101000a900473ffffffffffffffffffffffffffffffffffffffff1673ffffffffffffffffffffffffffffffffffffffff1673ffffffffffffffffffffffffffffffffffffffff1681526020016001820160149054906101000a900460ff1660ff1660ff16815260200160028201548152602001600382015481526020016004820160009054906101000a900460ff16600481111561180857fe5b600481111561181357fe5b81525050613ced565b5060048160040160006101000a81548160ff0219169083600481111561183e57fe5b02179055506119c0565b6000600481111561185557fe5b8160040160009054906101000a900460ff16600481111561187257fe5b14156119bf576119978160c060405190810160405290816000820160009054906101000a900473ffffffffffffffffffffffffffffffffffffffff1673ffffffffffffffffffffffffffffffffffffffff1673ffffffffffffffffffffffffffffffffffffffff1681526020016001820160009054906101000a900473ffffffffffffffffffffffffffffffffffffffff1673ffffffffffffffffffffffffffffffffffffffff1673ffffffffffffffffffffffffffffffffffffffff1681526020016001820160149054906101000a900460ff1660ff1660ff16815260200160028201548152602001600382015481526020016004820160009054906101000a900460ff16600481111561198357fe5b600481111561198e57fe5b81525050613fb9565b5060038160040160006101000a81548160ff021916908360048111156119b957fe5b02179055505b5b5b81806001019250506115ac565b6001945050505050919050565b6060806060806060806060806060806060806000600760008f73ffffffffffffffffffffffffffffffffffffffff1673ffffffffffffffffffffffffffffffffffffffff16815260200190815260200160002080549050604051908082528060200260200182016040528015611a605781602001602082028038833980820191505090505b5096508651604051908082528060200260200182016040528015611a935781602001602082028038833980820191505090505b5095508651604051908082528060200260200182016040528015611ac65781602001602082028038833980820191505090505b5094508651604051908082528060200260200182016040528015611af95781602001602082028038833980820191505090505b5093508651604051908082528060200260200182016040528015611b2c5781602001602082028038833980820191505090505b5092508651604051908082528060200260200182016040528015611b5f5781602001602082028038833980820191505090505b509150600090505b86518163ffffffff1610156120a757600760008f73ffffffffffffffffffffffffffffffffffffffff1673ffffffffffffffffffffffffffffffffffffffff1681526020019081526020016000208163ffffffff16815481101515611bc857fe5b906000526020600020906003020160010154878263ffffffff16815181101515611bee57fe5b906020019060200201906000191690816000191681525050600760008f73ffffffffffffffffffffffffffffffffffffffff1673ffffffffffffffffffffffffffffffffffffffff1681526020019081526020016000208163ffffffff16815481101515611c5857fe5b906000526020600020906003020160000160009054906101000a900463ffffffff1663ffffffff16868263ffffffff16815181101515611c9457fe5b906020019060200201818152505060046000888363ffffffff16815181101515611cba57fe5b9060200190602002015160001916600019168152602001908152602001600020868263ffffffff16815181101515611cee57fe5b90602001906020020151815481101515611d0457fe5b906000526020600020906005020160000160009054906101000a900473ffffffffffffffffffffffffffffffffffffffff1673ffffffffffffffffffffffffffffffffffffffff168e73ffffffffffffffffffffffffffffffffffffffff161415611e045760046000888363ffffffff16815181101515611d8157fe5b9060200190602002015160001916600019168152602001908152602001600020868263ffffffff16815181101515611db557fe5b90602001906020020151815481101515611dcb57fe5b906000526020600020906005020160020154828263ffffffff16815181101515611df157fe5b9060200190602002018181525050611ebd565b7fffffffffffffffffffffffffffffffffffffffffffffffffffffffffffffffff60046000898463ffffffff16815181101515611e3d57fe5b9060200190602002015160001916600019168152602001908152602001600020878363ffffffff16815181101515611e7157fe5b90602001906020020151815481101515611e8757fe5b90600052602060002090600502016002015402828263ffffffff16815181101515611eae57fe5b90602001906020020181815250505b600760008f73ffffffffffffffffffffffffffffffffffffffff1673ffffffffffffffffffffffffffffffffffffffff1681526020019081526020016000208163ffffffff16815481101515611f0f57fe5b906000526020600020906003020160020160009054906101000a900460ff16848263ffffffff16815181101515611f4257fe5b906020019060200201901515908115158152505060046000888363ffffffff16815181101515611f6e57fe5b9060200190602002015160001916600019168152602001908152602001600020868263ffffffff16815181101515611fa257fe5b90602001906020020151815481101515611fb857fe5b906000526020600020906005020160030154858263ffffffff16815181101515611fde57fe5b906020019060200201818152505060046000888363ffffffff1681518110151561200457fe5b9060200190602002015160001916600019168152602001908152602001600020868263ffffffff1681518110151561203857fe5b9060200190602002015181548110151561204e57fe5b906000526020600020906005020160040160009054906101000a900460ff16600481111561207857fe5b838263ffffffff1681518110151561208c57fe5b90602001906020020181815250508080600101915050611b67565b8686838787879c509c509c509c509c509c505050505050505091939550919395565b60008060009054906101000a900473ffffffffffffffffffffffffffffffffffffffff1673ffffffffffffffffffffffffffffffffffffffff163373ffffffffffffffffffffffffffffffffffffffff1614151561212657600080fd5b600a821115151561213657600080fd5b81600881905550919050565b6000600680549050905090565b6000806004600085600019166000191681526020019081526020016000208381548110151561217a57fe5b906000526020600020906005020190503373ffffffffffffffffffffffffffffffffffffffff168160000160009054906101000a900473ffffffffffffffffffffffffffffffffffffffff1673ffffffffffffffffffffffffffffffffffffffff161415156121e857600080fd5b600060048111156121f557fe5b8160040160009054906101000a900460ff16600481111561221257fe5b14151561221e57600080fd5b61233d8160c060405190810160405290816000820160009054906101000a900473ffffffffffffffffffffffffffffffffffffffff1673ffffffffffffffffffffffffffffffffffffffff1673ffffffffffffffffffffffffffffffffffffffff1681526020016001820160009054906101000a900473ffffffffffffffffffffffffffffffffffffffff1673ffffffffffffffffffffffffffffffffffffffff1673ffffffffffffffffffffffffffffffffffffffff1681526020016001820160149054906101000a900460ff1660ff1660ff16815260200160028201548152602001600382015481526020016004820160009054906101000a900460ff16600481111561232957fe5b600481111561233457fe5b81525050613fb9565b5060028160040160006101000a81548160ff0219169083600481111561235f57fe5b0217905550600191505092915050565b6000806004600085600019166000191681526020019081526020016000208381548110151561239a57fe5b906000526020600020906005020190503481600301541415156123bc57600080fd5b3373ffffffffffffffffffffffffffffffffffffffff168160000160009054906101000a900473ffffffffffffffffffffffffffffffffffffffff1673ffffffffffffffffffffffffffffffffffffffff161415151561241b57600080fd5b6000600481111561242857fe5b8160040160009054906101000a900460ff16600481111561244557fe5b14151561245157600080fd5b338160010160006101000a81548173ffffffffffffffffffffffffffffffffffffffff021916908373ffffffffffffffffffffffffffffffffffffffff16021790555060018160040160006101000a81548160ff021916908360048111156124b557fe5b02179055506124c33361408b565b1561252f5760063390806001815401808255809150509060018203906000526020600020016000909192909190916101000a81548173ffffffffffffffffffffffffffffffffffffffff021916908373ffffffffffffffffffffffffffffffffffffffff160217905550505b600760003373ffffffffffffffffffffffffffffffffffffffff1673ffffffffffffffffffffffffffffffffffffffff1681526020019081526020016000206060604051908101604052808563ffffffff168152602001866000191681526020016000600181111561259d57fe5b60ff168460010160149054906101000a900460ff1660ff16141515158152509080600181540180825580915050906001820390600052602060002090600302016000909192909190915060008201518160000160006101000a81548163ffffffff021916908363ffffffff1602179055506020820151816001019060001916905560408201518160020160006101000a81548160ff02191690831515021790555050505034600560003373ffffffffffffffffffffffffffffffffffffffff1673ffffffffffffffffffffffffffffffffffffffff168152602001908152602001600020600082825401925050819055507f488b2f9051d0b8ee33cbf7b1879374803cd93255e85ce22ba2368a92c38c96cf8160000160009054906101000a900473ffffffffffffffffffffffffffffffffffffffff168260010160009054906101000a900473ffffffffffffffffffffffffffffffffffffffff168686604051808573ffffffffffffffffffffffffffffffffffffffff1673ffffffffffffffffffffffffffffffffffffffff1681526020018473ffffffffffffffffffffffffffffffffffffffff1673ffffffffffffffffffffffffffffffffffffffff168152602001836000191660001916815260200182815260200194505050505060405180910390a1600191505092915050565b60008060008060008060009054906101000a900473ffffffffffffffffffffffffffffffffffffffff1673ffffffffffffffffffffffffffffffffffffffff163373ffffffffffffffffffffffffffffffffffffffff161415156127f357600080fd5b600360008760001916600019168152602001908152602001600020600101600d9054906101000a900460ff1615151561282b57600080fd5b6003600087600019166000191681526020019081526020016000209350600184600101600d6101000a81548160ff0219169083151502179055506004600087600019166000191681526020019081526020016000209250600091505b8280549050821015612de95782828154811015156128a157fe5b90600052602060002090600502019050600160048111156128be57fe5b8160040160009054906101000a900460ff1660048111156128db57fe5b1415612c6457612c388461012060405190810160405290816000820154600019166000191681526020016001820160009054906101000a900460ff1660ff1660ff1681526020016001820160019054906101000a900460ff1660ff1660ff1681526020016001820160029054906101000a900463ffffffff1663ffffffff1663ffffffff1681526020016001820160069054906101000a900465ffffffffffff1665ffffffffffff1665ffffffffffff16815260200160018201600c9054906101000a900460ff1660048111156129ae57fe5b60048111156129b957fe5b815260200160018201600d9054906101000a900460ff16151515158152602001600282018054600181600116156101000203166002900480601f016020809104026020016040519081016040528092919081815260200182805460018160011615610100020316600290048015612a715780601f10612a4657610100808354040283529160200191612a71565b820191906000526020600020905b815481529060010190602001808311612a5457829003601f168201915b50505050508152602001600382018054600181600116156101000203166002900480601f016020809104026020016040519081016040528092919081815260200182805460018160011615610100020316600290048015612b135780601f10612ae857610100808354040283529160200191612b13565b820191906000526020600020905b815481529060010190602001808311612af657829003601f168201915b5050505050815250508260c060405190810160405290816000820160009054906101000a900473ffffffffffffffffffffffffffffffffffffffff1673ffffffffffffffffffffffffffffffffffffffff1673ffffffffffffffffffffffffffffffffffffffff1681526020016001820160009054906101000a900473ffffffffffffffffffffffffffffffffffffffff1673ffffffffffffffffffffffffffffffffffffffff1673ffffffffffffffffffffffffffffffffffffffff1681526020016001820160149054906101000a900460ff1660ff1660ff16815260200160028201548152602001600382015481526020016004820160009054906101000a900460ff166004811115612c2457fe5b6004811115612c2f57fe5b81525050613ced565b5060048160040160006101000a81548160ff02191690836004811115612c5a57fe5b0217905550612ddc565b60006004811115612c7157fe5b8160040160009054906101000a900460ff166004811115612c8e57fe5b1415612ddb57612db38160c060405190810160405290816000820160009054906101000a900473ffffffffffffffffffffffffffffffffffffffff1673ffffffffffffffffffffffffffffffffffffffff1673ffffffffffffffffffffffffffffffffffffffff1681526020016001820160009054906101000a900473ffffffffffffffffffffffffffffffffffffffff1673ffffffffffffffffffffffffffffffffffffffff1673ffffffffffffffffffffffffffffffffffffffff1681526020016001820160149054906101000a900460ff1660ff1660ff16815260200160028201548152602001600382015481526020016004820160009054906101000a900460ff166004811115612d9f57fe5b6004811115612daa57fe5b81525050613fb9565b5060038160040160006101000a81548160ff02191690836004811115612dd557fe5b02179055505b5b8180600101925050612887565b6130298461012060405190810160405290816000820154600019166000191681526020016001820160009054906101000a900460ff1660ff1660ff1681526020016001820160019054906101000a900460ff1660ff1660ff1681526020016001820160029054906101000a900463ffffffff1663ffffffff1663ffffffff1681526020016001820160069054906101000a900465ffffffffffff1665ffffffffffff1665ffffffffffff16815260200160018201600c9054906101000a900460ff166004811115612eb657fe5b6004811115612ec157fe5b815260200160018201600d9054906101000a900460ff16151515158152602001600282018054600181600116156101000203166002900480601f016020809104026020016040519081016040528092919081815260200182805460018160011615610100020316600290048015612f795780601f10612f4e57610100808354040283529160200191612f79565b820191906000526020600020905b815481529060010190602001808311612f5c57829003601f168201915b50505050508152602001600382018054600181600116156101000203166002900480601f01602080910402602001604051908101604052809291908181526020018280546001816001161561010002031660029004801561301b5780601f10612ff05761010080835404028352916020019161301b565b820191906000526020600020905b815481529060010190602001808311612ffe57829003601f168201915b5050505050815250506140da565b506001945050505050919050565b6000600180549050905090565b60008060009054906101000a900473ffffffffffffffffffffffffffffffffffffffff1673ffffffffffffffffffffffffffffffffffffffff163373ffffffffffffffffffffffffffffffffffffffff161415156130a157600080fd5b81600260006101000a81548173ffffffffffffffffffffffffffffffffffffffff021916908373ffffffffffffffffffffffffffffffffffffffff160217905550919050565b6000809054906101000a900473ffffffffffffffffffffffffffffffffffffffff1681565b600260009054906101000a900473ffffffffffffffffffffffffffffffffffffffff1681565b6000600460008360001916600019168152602001908152602001600020805490509050919050565b606060018054806020026020016040519081016040528092919081815260200182805480156131ac57602002820191906000526020600020905b81546000191681526020019060010190808311613194575b5050505050905090565b6000600560008373ffffffffffffffffffffffffffffffffffffffff1673ffffffffffffffffffffffffffffffffffffffff168152602001908152602001600020549050919050565b6000809054906101000a900473ffffffffffffffffffffffffffffffffffffffff1673ffffffffffffffffffffffffffffffffffffffff163373ffffffffffffffffffffffffffffffffffffffff1614151561325a57600080fd5b6000809054906101000a900473ffffffffffffffffffffffffffffffffffffffff1673ffffffffffffffffffffffffffffffffffffffff166108fc60056000600260009054906101000a900473ffffffffffffffffffffffffffffffffffffffff1673ffffffffffffffffffffffffffffffffffffffff1673ffffffffffffffffffffffffffffffffffffffff168152602001908152602001600020549081150290604051600060405180830381858888f19350505050158015613322573d6000803e3d6000fd5b50565b6000809054906101000a900473ffffffffffffffffffffffffffffffffffffffff1673ffffffffffffffffffffffffffffffffffffffff163373ffffffffffffffffffffffffffffffffffffffff1614151561338057600080fd5b600073ffffffffffffffffffffffffffffffffffffffff168173ffffffffffffffffffffffffffffffffffffffff16141515156133bc57600080fd5b8073ffffffffffffffffffffffffffffffffffffffff166000809054906101000a900473ffffffffffffffffffffffffffffffffffffffff1673ffffffffffffffffffffffffffffffffffffffff167f8be0079c531659141344cd1fd0a4f28419497f9722a3daafe3b4186f6b6457e060405160405180910390a3806000806101000a81548173ffffffffffffffffffffffffffffffffffffffff021916908373ffffffffffffffffffffffffffffffffffffffff16021790555050565b6000613484614546565b61348c6144d5565b6000428611151561349c57600080fd5b60006019868115156134aa57fe5b071480156134c5575060086019868115156134c157fe5b0513155b80156134fd57507ffffffffffffffffffffffffffffffffffffffffffffffffffffffffffffffff86019868115156134f957fe5b0512155b151561350857600080fd5b600360008b6000191660001916815260200190815260200160002061012060405190810160405290816000820154600019166000191681526020016001820160009054906101000a900460ff1660ff1660ff1681526020016001820160019054906101000a900460ff1660ff1660ff1681526020016001820160029054906101000a900463ffffffff1663ffffffff1663ffffffff1681526020016001820160069054906101000a900465ffffffffffff1665ffffffffffff1665ffffffffffff16815260200160018201600c9054906101000a900460ff1660048111156135ec57fe5b60048111156135f757fe5b815260200160018201600d9054906101000a900460ff16151515158152602001600282018054600181600116156101000203166002900480601f0160208091040260200160405190810160405280929190818152602001828054600181600116156101000203166002900480156136af5780601f10613684576101008083540402835291602001916136af565b820191906000526020600020905b81548152906001019060200180831161369257829003601f168201915b50505050508152602001600382018054600181600116156101000203166002900480601f0160208091040260200160405190810160405280929190818152602001828054600181600116156101000203166002900480156137515780601f1061372657610100808354040283529160200191613751565b820191906000526020600020905b81548152906001019060200180831161373457829003601f168201915b50505050508152505092506000600481111561376957fe5b8360a00151600481111561377957fe5b1415613977578983600001906000191690816000191681525050888360e001819052508783610100018190525085836080019065ffffffffffff16908165ffffffffffff168152505060018360a0019060048111156137d457fe5b908160048111156137e157fe5b815250506001808b9080600181540180825580915050906001820390600052602060002001600090919290919091509060001916905503836060019063ffffffff16908163ffffffff168152505082600360008c600019166000191681526020019081526020016000206000820151816000019060001916905560208201518160010160006101000a81548160ff021916908360ff16021790555060408201518160010160016101000a81548160ff021916908360ff16021790555060608201518160010160026101000a81548163ffffffff021916908363ffffffff16021790555060808201518160010160066101000a81548165ffffffffffff021916908365ffffffffffff16021790555060a082015181600101600c6101000a81548160ff0219169083600481111561391357fe5b021790555060c082015181600101600d6101000a81548160ff02191690831515021790555060e08201518160020190805190602001906139549291906145b7565b506101008201518160030190805190602001906139729291906145b7565b509050505b60c0604051908101604052803373ffffffffffffffffffffffffffffffffffffffff168152602001600073ffffffffffffffffffffffffffffffffffffffff1681526020018860ff168152602001868152602001348152602001600060048111156139de57fe5b81525091506001600460008c60001916600019168152602001908152602001600020839080600181540180825580915050906001820390600052602060002090600502016000909192909190915060008201518160000160006101000a81548173ffffffffffffffffffffffffffffffffffffffff021916908373ffffffffffffffffffffffffffffffffffffffff16021790555060208201518160010160006101000a81548173ffffffffffffffffffffffffffffffffffffffff021916908373ffffffffffffffffffffffffffffffffffffffff16021790555060408201518160010160146101000a81548160ff021916908360ff160217905550606082015181600201556080820151816003015560a08201518160040160006101000a81548160ff02191690836004811115613b1357fe5b02179055505050039050613b263361408b565b15613b925760063390806001815401808255809150509060018203906000526020600020016000909192909190916101000a81548173ffffffffffffffffffffffffffffffffffffffff021916908373ffffffffffffffffffffffffffffffffffffffff160217905550505b600760003373ffffffffffffffffffffffffffffffffffffffff1673ffffffffffffffffffffffffffffffffffffffff1681526020019081526020016000206060604051908101604052808363ffffffff1681526020018c60001916815260200160006001811115613c0057fe5b60ff168a1415158152509080600181540180825580915050906001820390600052602060002090600302016000909192909190915060008201518160000160006101000a81548163ffffffff021916908363ffffffff1602179055506020820151816001019060001916905560408201518160020160006101000a81548160ff02191690831515021790555050505034600560003373ffffffffffffffffffffffffffffffffffffffff1673ffffffffffffffffffffffffffffffffffffffff16815260200190815260200160002060008282540192505081905550600193505050509695505050505050565b6000613cf7614637565b6000613d01614666565b613d0b86866140ef565b9250600091505b6002821015613d85578282600281101515613d2957fe5b6020020151905060008160200151118015613d5f57506000816000015173ffffffffffffffffffffffffffffffffffffffff1614155b15613d7857613d7681600001518260200151614294565b505b8180600101925050613d12565b846080015160056000876000015173ffffffffffffffffffffffffffffffffffffffff1673ffffffffffffffffffffffffffffffffffffffff168152602001908152602001600020540360056000876000015173ffffffffffffffffffffffffffffffffffffffff1673ffffffffffffffffffffffffffffffffffffffff16815260200190815260200160002081905550846080015160056000876020015173ffffffffffffffffffffffffffffffffffffffff1673ffffffffffffffffffffffffffffffffffffffff168152602001908152602001600020540360056000876020015173ffffffffffffffffffffffffffffffffffffffff1673ffffffffffffffffffffffffffffffffffffffff168152602001908152602001600020819055506064600854606403866080015102811515613ebe57fe5b04856080015160056000600260009054906101000a900473ffffffffffffffffffffffffffffffffffffffff1673ffffffffffffffffffffffffffffffffffffffff1673ffffffffffffffffffffffffffffffffffffffff16815260200190815260200160002054010360056000600260009054906101000a900473ffffffffffffffffffffffffffffffffffffffff1673ffffffffffffffffffffffffffffffffffffffff1673ffffffffffffffffffffffffffffffffffffffff1681526020019081526020016000208190555060048560a001906004811115613f9f57fe5b90816004811115613fac57fe5b8152505050505092915050565b6000613fcd82600001518360800151614294565b5060038260a001906004811115613fe057fe5b90816004811115613fed57fe5b81525050816080015160056000846000015173ffffffffffffffffffffffffffffffffffffffff1673ffffffffffffffffffffffffffffffffffffffff168152602001908152602001600020540360056000846000015173ffffffffffffffffffffffffffffffffffffffff1673ffffffffffffffffffffffffffffffffffffffff1681526020019081526020016000208190555060019050919050565b600080600760008473ffffffffffffffffffffffffffffffffffffffff1673ffffffffffffffffffffffffffffffffffffffff1681526020019081526020016000208054905011159050919050565b60006140e582614303565b5060019050919050565b6140f7614637565b600080600181111561410557fe5b60ff16836040015160ff16141561418a57606060405190810160405280846000015173ffffffffffffffffffffffffffffffffffffffff168152602001614165866040015160ff16876020015160ff1603866060015187608001516143dd565b81526020018481525082600060028110151561417d57fe5b60200201819052506141fa565b606060405190810160405280846000015173ffffffffffffffffffffffffffffffffffffffff1681526020016141d9866020015160ff16876040015160ff1603866060015187608001516143dd565b8152602001848152508260006002811015156141f157fe5b60200201819052505b81600060028110151561420957fe5b602002015160200151606460085460640385608001510281151561422957fe5b04846080015101039050600081111561428a57606060405190810160405280846020015173ffffffffffffffffffffffffffffffffffffffff1681526020018281526020018481525082600160028110151561428157fe5b60200201819052505b8191505092915050565b6000808373ffffffffffffffffffffffffffffffffffffffff161415156142fd578273ffffffffffffffffffffffffffffffffffffffff166108fc839081150290604051600060405180830381858888f193505050501580156142fb573d6000803e3d6000fd5b505b92915050565b6000806000836060015191506001808054905003905060018163ffffffff1681548110151561432e57fe5b906000526020600020015460018363ffffffff1681548110151561434e57fe5b906000526020600020018160001916905550816003600060018563ffffffff1681548110151561437a57fe5b90600052602060002001546000191660001916815260200190815260200160002060010160026101000a81548163ffffffff021916908363ffffffff16021790555060018054809190600190036143d191906146a5565b50600192505050919050565b6000601960648502840114156144165760026064600854606403840281151561440257fe5b0481151561440c57fe5b04820190506144ce565b7fffffffffffffffffffffffffffffffffffffffffffffffffffffffffffffffe7606485028401141561446a5760026064600854606403840281151561445857fe5b0481151561446257fe5b0490506144ce565b6000606485028401141561449e5760026064600854840281151561448a57fe5b0481151561449457fe5b04820390506144ce565b601960648502840113156144c957606460085460640383028115156144bf57fe5b04820190506144ce565b600090505b9392505050565b60c060405190810160405280600073ffffffffffffffffffffffffffffffffffffffff168152602001600073ffffffffffffffffffffffffffffffffffffffff168152602001600060ff16815260200160008152602001600081526020016000600481111561454057fe5b81525090565b6101206040519081016040528060008019168152602001600060ff168152602001600060ff168152602001600063ffffffff168152602001600065ffffffffffff1681526020016000600481111561459a57fe5b815260200160001515815260200160608152602001606081525090565b828054600181600116156101000203166002900490600052602060002090601f016020900481019282601f106145f857805160ff1916838001178555614626565b82800160010185558215614626579182015b8281111561462557825182559160200191906001019061460a565b5b50905061463391906146d1565b5090565b610200604051908101604052806002905b6146506146f6565b8152602001906001900390816146485790505090565b61010060405190810160405280600073ffffffffffffffffffffffffffffffffffffffff1681526020016000815260200161469f614735565b81525090565b8154818355818111156146cc578183600052602060002091820191016146cb91906147a6565b5b505050565b6146f391905b808211156146ef5760008160009055506001016146d7565b5090565b90565b61010060405190810160405280600073ffffffffffffffffffffffffffffffffffffffff1681526020016000815260200161472f614735565b81525090565b60c060405190810160405280600073ffffffffffffffffffffffffffffffffffffffff168152602001600073ffffffffffffffffffffffffffffffffffffffff168152602001600060ff1681526020016000815260200160008152602001600060048111156147a057fe5b81525090565b6147c891905b808211156147c45760008160009055506001016147ac565b5090565b905600a165627a7a72305820ed29ec5c3b05f80998d4a4846906fc319b0dab510344c7d43e33326d55d27e2e0029",
  "source": "pragma solidity ^0.4.21;\n\nimport \"./Ownable.sol\";\nimport \"./SoloBet.sol\";\n\ncontract AsianSoloBet is Ownable, SoloBet {\n\n  function AsianSoloBet() public {\n    feeOwner = msg.sender;\n  }\n\n\n  function getBettingMatchesByAddress(address bettingOwner) public view returns (bytes32[], uint256[], int[], uint256[], bool[], uint[]) {\n    bytes32[] memory matchIds = new bytes32[](myBets[bettingOwner].length);\n    uint256[] memory betIdxes = new uint256[](matchIds.length);\n    uint256[] memory amounts = new uint256[](matchIds.length);\n    bool[]memory slHTeam = new bool[](matchIds.length);\n    uint256[] memory status = new uint256[](matchIds.length);\n    int[] memory odds = new int[](matchIds.length);\n    for (uint32 i = 0; i < matchIds.length; i++) {\n\n      matchIds[i] = myBets[bettingOwner][i].matchId;\n      betIdxes[i] = uint256(myBets[bettingOwner][i].betIdx);\n      if (bettingOwner == bets[matchIds[i]][betIdxes[i]].bMaker) {\n        odds[i] = bets[matchIds[i]][betIdxes[i]].odds;\n      } else {\n        odds[i] = bets[matchIds[i]][betIdxes[i]].odds * - 1;\n      }\n      slHTeam[i] = myBets[bettingOwner][i].bet4HTeam;\n      amounts[i] = bets[matchIds[i]][betIdxes[i]].amount;\n      status[i] = uint256(bets[matchIds[i]][betIdxes[i]].status);\n    }\n\n    return (matchIds, betIdxes, odds, amounts, slHTeam, status);\n  }\n\n\n  function totalBets(bytes32 matchId) public view returns (uint256) {\n    return bets[matchId].length;\n  }\n\n\n  function findMatch(bytes32 matchId) public view returns (\n    string homeTeam,\n    string awayTeam,\n    uint homeScore,\n    uint awayScore,\n    uint time,\n    MatchStatus status,\n    bool isApproved) {\n\n    Match memory _match = matches[matchId];\n\n    homeTeam = _match.hT;\n    awayTeam = _match.aT;\n    homeScore = _match.hSc;\n    awayScore = _match.aSc;\n    status = _match.status;\n    time = _match.time;\n    isApproved = _match.isApproved;\n  }\n\n\n  function updateScore(bytes32 matchId, uint homeScore, uint awayScore) public onlyOwner returns (bool) {\n    Match storage _match = matches[matchId];\n    _match.hSc = uint8(homeScore);\n    _match.aSc = uint8(awayScore);\n    _match.status = MatchStatus.Finished;\n    return true;\n  }\n\n  function approveScore(bytes32 matchId) public onlyOwner returns (bool) {\n    require(!matches[matchId].isApproved);\n    Match storage _match = matches[matchId];\n    _match.isApproved = true;\n\n    Betting[] storage _bettings = bets[matchId];\n    for (uint256 i = 0; i < _bettings.length; i++) {\n\n      Betting storage _betting = _bettings[i];\n      if (_betting.status == BetStatus.Deal) {\n        doTransfer(_match, _betting);\n        _betting.status = BetStatus.Done;\n      } else if (_betting.status == BetStatus.Open) {\n        refund(_betting);\n        _betting.status = BetStatus.Refunded;\n      }\n\n    }\n\n    rmBet(_match);\n    return true;\n  }\n\n  function claimStake(bytes32 matchId) public returns (bool) {\n    Match memory _match = matches[matchId];\n    require(_match.status == MatchStatus.Finished);\n    uint betCount = myBets[msg.sender].length;\n    for (uint i = 0; i < betCount; i++) {\n\n      if (myBets[msg.sender][i].matchId == matchId) {\n        Betting storage _betting = bets[matchId][myBets[msg.sender][i].betIdx];\n        if (_betting.status == BetStatus.Deal) {\n          doTransfer(_match, _betting);\n          _betting.status = BetStatus.Done;\n        } else if (_betting.status == BetStatus.Open) {\n          refund(_betting);\n          _betting.status = BetStatus.Refunded;\n        }\n      }\n    }\n    return true;\n\n  }\n\n\n  function cancelOffer(bytes32 matchId, uint256 bettingId) external returns (bool){\n    Betting storage _betting = bets[matchId][bettingId];\n    require(_betting.bMaker == msg.sender);\n    require(_betting.status == BetStatus.Open);\n    refund(_betting);\n    _betting.status = BetStatus.Canceled;\n    return true;\n  }\n\n  function rmBet(Match _match) private returns (bool){\n    //delete bets[_match.id];\n    rmBetIdx(_match);\n    return true;\n  }\n\n  function rmBetIdx(Match _match) private returns (bool) {\n\n    uint32 toDelete = _match.idx;\n    uint32 lastIdx = uint32(betIndexes.length - 1);\n    betIndexes[toDelete] = betIndexes[lastIdx];\n    matches[betIndexes[toDelete]].idx = toDelete;\n    betIndexes.length--;\n    return true;\n  }\n\n  function transferFund(address receiver, uint256 amount) private returns (bool) {\n    if (receiver != 0x0) {\n      receiver.transfer(amount);\n    }\n  }\n\n  function refund(Betting _betting) internal returns (bool) {\n    transferFund(_betting.bMaker, _betting.amount);\n    _betting.status = BetStatus.Refunded;\n    balances[_betting.bMaker] = balances[_betting.bMaker] - _betting.amount;\n    return true;\n  }\n\n  function doTransfer(Match _match, Betting _betting) internal returns (bool) {\n\n    Funding[2] memory fundings = getFunding(_match, _betting);\n    for (uint i = 0; i < fundings.length; i++) {\n      Funding memory funding = fundings[i];\n      if (funding.amount > 0 && funding.receiver != 0x0) {\n        transferFund(funding.receiver, funding.amount);\n      }\n    }\n\n    balances[_betting.bMaker] = balances[_betting.bMaker] - _betting.amount;\n    balances[_betting.punter] = balances[_betting.punter] - _betting.amount;\n    balances[feeOwner] = balances[feeOwner] + _betting.amount - _betting.amount * (100-juice) / 100;\n    _betting.status = BetStatus.Done;\n  }\n\n\n  function getFunding(Match _match, Betting _betting) internal returns (Funding[2] fundings) {\n\n    if (_betting.bmTeam == uint8(Team.Home)) {\n      fundings[0] = Funding(_betting.bMaker, calculateAmount(int(_match.hSc) - int(_match.aSc), _betting.odds, _betting.amount), _betting);\n    } else {\n      fundings[0] = Funding(_betting.bMaker, calculateAmount(int(_match.aSc) - int(_match.hSc), _betting.odds, _betting.amount), _betting);\n    }\n\n    uint punterAmount = _betting.amount + _betting.amount * (100-juice) / 100 - fundings[0].amount;\n    if (punterAmount > 0) {\n      fundings[1] = Funding(_betting.punter, punterAmount, _betting);\n    }\n    return fundings;\n  }\n\n  function calculateAmount(int goaldifference, int odds, uint amount) private returns (uint256) {\n    if ((odds + goaldifference * 100) == 25) return amount + amount * (100-juice) / 100 / 2;\n    if ((odds + goaldifference * 100) == - 25) return amount * (100-juice) / 100 / 2;\n    if ((odds + goaldifference * 100) == 0) return amount - amount * juice / 100 / 2;\n    if ((odds + goaldifference * 100) > 25) return amount + amount * (100-juice) / 100;\n\n    return 0;\n\n  }\n\n  function getBettingMatchIds() public view returns (bytes32[]) {\n    return betIndexes;\n  }\n\n  function getTotalBettingMatches() public view returns (uint256) {\n    return betIndexes.length;\n  }\n\n  function offerNewMatch(bytes32 matchId, string homeTeam, string awayTeam, uint selectedTeam, uint time, int odds) public payable returns (bool) {\n\n    require(time > now);\n    require((odds % 25 == 0) && (odds / 25 <= 8) && (odds / 25 >= - 8));\n\n    Match memory _match = matches[matchId];\n\n    if (_match.status == MatchStatus.NotAvailable) {\n      _match.id = matchId;\n      _match.hT = homeTeam;\n      _match.aT = awayTeam;\n      _match.time = uint48(time);\n      _match.status = MatchStatus.Waiting;\n      _match.idx = uint32(betIndexes.push(matchId) - 1);\n      matches[matchId] = _match;\n    }\n\n    Betting memory _betting = Betting(msg.sender, 0x0, uint8(selectedTeam), odds, msg.value, BetStatus.Open);\n    uint32 betIdx = uint32(bets[matchId].push(_betting) - 1);\n    if (isPlayerNotExist(msg.sender)) {\n      players.push(msg.sender);\n    }\n    myBets[msg.sender].push(MyBet(betIdx, matchId, selectedTeam == uint8(Team.Home)));\n    balances[msg.sender] += msg.value;\n    return true;\n\n  }\n\n  function deal(bytes32 matchId, uint256 bettingId) public payable returns (bool) {\n    Betting storage _betting = bets[matchId][bettingId];\n    require(_betting.amount == msg.value);\n    require(_betting.bMaker != msg.sender);\n    require(_betting.status == BetStatus.Open);\n    _betting.punter = msg.sender;\n    _betting.status = BetStatus.Deal;\n\n    if (isPlayerNotExist(msg.sender)) {\n      players.push(msg.sender);\n    }\n\n    myBets[msg.sender].push(MyBet(uint32(bettingId), matchId, _betting.bmTeam != uint8(Team.Home)));\n\n    balances[msg.sender] += msg.value;\n\n    emit LogDeal(_betting.bMaker, _betting.punter, matchId, bettingId);\n\n    return true;\n  }\n\n  function getBettingInfo(bytes32 matchId, uint256 bettingId) public view returns (address bMaker, address punter, uint8 selectedTeam, int odds, uint256 amount, BetStatus status) {\n    Betting memory _betting = bets[matchId][bettingId];\n    bMaker = _betting.bMaker;\n    punter = _betting.punter;\n    odds = _betting.odds;\n    amount = _betting.amount;\n    status = _betting.status;\n    selectedTeam = _betting.bmTeam;\n  }\n\n  event LogSelfDestruct(address sender, uint amount);\n\n  function destroyContract() public onlyOwner {\n    for (uint i = 0; i < players.length; i++) {\n      if (balances[players[i]] > 0) {\n        players[i].transfer(balances[players[i]]);\n      }\n    }\n\n    emit LogSelfDestruct(owner, this.balance);\n    selfdestruct(owner);\n  }\n}\n",
  "sourcePath": "/Users/kenshin/Desktop/web/football-bet/backend/contracts/AsianSoloBet.sol",
  "compiler": {
    "name": "solc",
    "version": "0.4.24+commit.e67f0147.Emscripten.clang"
  },
  "schemaVersion": "2.0.0",
  "updatedAt": "2018-08-18T15:09:52.016Z"
}