{
  "contractName": "BetherContract",
  "abi": [
    {
      "constant": true,
      "inputs": [],
      "name": "owner",
      "outputs": [
        {
          "name": "",
          "type": "address"
        }
      ],
      "payable": false,
      "stateMutability": "view",
      "type": "function"
    },
    {
      "constant": true,
      "inputs": [],
      "name": "feeOwner",
      "outputs": [
        {
          "name": "",
          "type": "address"
        }
      ],
      "payable": false,
      "stateMutability": "view",
      "type": "function"
    },
    {
      "constant": false,
      "inputs": [
        {
          "name": "newOwner",
          "type": "address"
        }
      ],
      "name": "transferOwnership",
      "outputs": [],
      "payable": false,
      "stateMutability": "nonpayable",
      "type": "function"
    },
    {
      "inputs": [],
      "payable": false,
      "stateMutability": "nonpayable",
      "type": "constructor"
    },
    {
      "anonymous": false,
      "inputs": [
        {
          "indexed": false,
          "name": "bettingIdx",
          "type": "uint32"
        }
      ],
      "name": "LogNewBet",
      "type": "event"
    },
    {
      "anonymous": false,
      "inputs": [
        {
          "indexed": false,
          "name": "bettingIdx",
          "type": "uint32"
        },
        {
          "indexed": false,
          "name": "settledIdx",
          "type": "uint32"
        }
      ],
      "name": "LogAcceptBet",
      "type": "event"
    },
    {
      "anonymous": false,
      "inputs": [
        {
          "indexed": true,
          "name": "previousOwner",
          "type": "address"
        },
        {
          "indexed": true,
          "name": "newOwner",
          "type": "address"
        }
      ],
      "name": "OwnershipTransferred",
      "type": "event"
    },
    {
      "constant": false,
      "inputs": [
        {
          "name": "id",
          "type": "uint8"
        },
        {
          "name": "ipfsHash",
          "type": "string"
        }
      ],
      "name": "updateLeague",
      "outputs": [
        {
          "name": "",
          "type": "bool"
        }
      ],
      "payable": false,
      "stateMutability": "nonpayable",
      "type": "function"
    },
    {
      "constant": true,
      "inputs": [
        {
          "name": "id",
          "type": "uint8"
        }
      ],
      "name": "getLeague",
      "outputs": [
        {
          "name": "league",
          "type": "string"
        }
      ],
      "payable": false,
      "stateMutability": "view",
      "type": "function"
    },
    {
      "constant": false,
      "inputs": [
        {
          "name": "matchId",
          "type": "bytes32"
        },
        {
          "name": "homeTeam",
          "type": "string"
        },
        {
          "name": "awayTeam",
          "type": "string"
        },
        {
          "name": "selectedTeam",
          "type": "uint256"
        },
        {
          "name": "time",
          "type": "uint256"
        },
        {
          "name": "odds",
          "type": "int8"
        }
      ],
      "name": "offerNewMatch",
      "outputs": [
        {
          "name": "",
          "type": "bool"
        }
      ],
      "payable": true,
      "stateMutability": "payable",
      "type": "function"
    },
    {
      "constant": false,
      "inputs": [
        {
          "name": "bettingIdx",
          "type": "uint32"
        }
      ],
      "name": "deal",
      "outputs": [
        {
          "name": "",
          "type": "bool"
        }
      ],
      "payable": true,
      "stateMutability": "payable",
      "type": "function"
    },
    {
      "constant": true,
      "inputs": [
        {
          "name": "bettingIdx",
          "type": "uint32"
        }
      ],
      "name": "getBettingInfo",
      "outputs": [
        {
          "name": "",
          "type": "address"
        },
        {
          "name": "",
          "type": "uint8"
        },
        {
          "name": "",
          "type": "int256"
        },
        {
          "name": "",
          "type": "uint256"
        },
        {
          "name": "",
          "type": "uint256"
        },
        {
          "name": "",
          "type": "uint8"
        },
        {
          "name": "",
          "type": "address[]"
        },
        {
          "name": "",
          "type": "uint256[]"
        }
      ],
      "payable": false,
      "stateMutability": "view",
      "type": "function"
    },
    {
      "constant": true,
      "inputs": [
        {
          "name": "bettingIdx",
          "type": "uint32"
        }
      ],
      "name": "getMatchId",
      "outputs": [
        {
          "name": "",
          "type": "bytes32"
        }
      ],
      "payable": false,
      "stateMutability": "view",
      "type": "function"
    },
    {
      "constant": true,
      "inputs": [
        {
          "name": "matchIds",
          "type": "bytes32[]"
        }
      ],
      "name": "countBetStatus",
      "outputs": [
        {
          "name": "",
          "type": "uint256[]"
        },
        {
          "name": "",
          "type": "uint256[]"
        },
        {
          "name": "",
          "type": "uint256[]"
        },
        {
          "name": "",
          "type": "uint256[]"
        },
        {
          "name": "",
          "type": "uint256[]"
        }
      ],
      "payable": false,
      "stateMutability": "view",
      "type": "function"
    },
    {
      "constant": true,
      "inputs": [
        {
          "name": "matchId",
          "type": "bytes32"
        }
      ],
      "name": "getBettings",
      "outputs": [
        {
          "name": "",
          "type": "uint32[]"
        }
      ],
      "payable": false,
      "stateMutability": "view",
      "type": "function"
    },
    {
      "constant": true,
      "inputs": [
        {
          "name": "user",
          "type": "address"
        }
      ],
      "name": "getUserBets",
      "outputs": [
        {
          "name": "",
          "type": "uint32[]"
        }
      ],
      "payable": false,
      "stateMutability": "view",
      "type": "function"
    },
    {
      "constant": true,
      "inputs": [
        {
          "name": "user",
          "type": "address"
        }
      ],
      "name": "getUserSettles",
      "outputs": [
        {
          "name": "",
          "type": "uint32[]"
        },
        {
          "name": "",
          "type": "uint32[]"
        }
      ],
      "payable": false,
      "stateMutability": "view",
      "type": "function"
    },
    {
      "constant": true,
      "inputs": [
        {
          "name": "bettingIdx",
          "type": "uint32"
        },
        {
          "name": "settleIdx",
          "type": "uint32"
        }
      ],
      "name": "getSettleInfo",
      "outputs": [
        {
          "name": "",
          "type": "bytes32"
        },
        {
          "name": "",
          "type": "uint32"
        },
        {
          "name": "",
          "type": "address"
        },
        {
          "name": "",
          "type": "uint8"
        },
        {
          "name": "",
          "type": "int256"
        },
        {
          "name": "",
          "type": "uint256"
        },
        {
          "name": "",
          "type": "uint256"
        },
        {
          "name": "",
          "type": "uint8"
        },
        {
          "name": "",
          "type": "address"
        },
        {
          "name": "",
          "type": "uint256"
        }
      ],
      "payable": false,
      "stateMutability": "view",
      "type": "function"
    },
    {
      "constant": true,
      "inputs": [],
      "name": "countPlayers",
      "outputs": [
        {
          "name": "",
          "type": "uint256"
        }
      ],
      "payable": false,
      "stateMutability": "view",
      "type": "function"
    },
    {
      "constant": true,
      "inputs": [
        {
          "name": "player",
          "type": "address"
        }
      ],
      "name": "getPlayerBalance",
      "outputs": [
        {
          "name": "",
          "type": "uint256"
        }
      ],
      "payable": false,
      "stateMutability": "view",
      "type": "function"
    },
    {
      "constant": false,
      "inputs": [
        {
          "name": "matchId",
          "type": "bytes32"
        },
        {
          "name": "homeScore",
          "type": "uint256"
        },
        {
          "name": "awayScore",
          "type": "uint256"
        }
      ],
      "name": "updateScore",
      "outputs": [
        {
          "name": "",
          "type": "bool"
        }
      ],
      "payable": false,
      "stateMutability": "nonpayable",
      "type": "function"
    },
    {
      "constant": false,
      "inputs": [
        {
          "name": "matchId",
          "type": "bytes32"
        }
      ],
      "name": "approveScore",
      "outputs": [
        {
          "name": "",
          "type": "bool"
        }
      ],
      "payable": false,
      "stateMutability": "nonpayable",
      "type": "function"
    },
    {
      "constant": false,
      "inputs": [
        {
          "name": "bettingId",
          "type": "uint256"
        }
      ],
      "name": "cancelOffer",
      "outputs": [
        {
          "name": "",
          "type": "bool"
        }
      ],
      "payable": false,
      "stateMutability": "nonpayable",
      "type": "function"
    },
    {
      "constant": false,
      "inputs": [
        {
          "name": "matchId",
          "type": "bytes32"
        },
        {
          "name": "bettingIdxes",
          "type": "uint32[]"
        }
      ],
      "name": "claimStake",
      "outputs": [
        {
          "name": "",
          "type": "bool"
        }
      ],
      "payable": false,
      "stateMutability": "nonpayable",
      "type": "function"
    },
    {
      "constant": true,
      "inputs": [
        {
          "name": "time",
          "type": "uint48"
        }
      ],
      "name": "getVolume",
      "outputs": [
        {
          "name": "",
          "type": "uint256"
        }
      ],
      "payable": false,
      "stateMutability": "view",
      "type": "function"
    }
  ],
  "bytecode": "0x6060604052341561000f57600080fd5b336000806101000a81548173ffffffffffffffffffffffffffffffffffffffff021916908373ffffffffffffffffffffffffffffffffffffffff160217905550615ba2806200005f6000396000f30060606040526004361061011d576000357c0100000000000000000000000000000000000000000000000000000000900463ffffffff1680631485cb681461012257806317fb0698146101675780632177e843146102065780632d56657d146102855780633c9b03f3146103135780634bec8b391461036457806375089a2e1461038d5780637bbe09f51461040e5780638363883d1461044d5780638da5cb5b146104c9578063aa31ffc31461051e578063ae8b85e914610554578063b9818be114610723578063cc0364e714610778578063cf52e075146107b7578063e2734c931461088f578063ee433caf146108dc578063ef706adf14610a0c578063f2fde38b14610a47578063f78ae6bc14610a80578063ff3bfa0c14610b56575b600080fd5b341561012d57600080fd5b610149600480803563ffffffff16906020019091905050610c61565b60405180826000191660001916815260200191505060405180910390f35b341561017257600080fd5b61018b600480803560ff16906020019091905050610c91565b6040518080602001828103825283818151815260200191508051906020019080838360005b838110156101cb5780820151818401526020810190506101b0565b50505050905090810190601f1680156101f85780820380516001836020036101000a031916815260200191505b509250505060405180910390f35b341561021157600080fd5b61026b60048080356000191690602001909190803590602001908201803590602001908080602002602001604051908101604052809392919081815260200183836020028082843782019150505050505091905050610d52565b604051808215151515815260200191505060405180910390f35b341561029057600080fd5b6102bc600480803573ffffffffffffffffffffffffffffffffffffffff16906020019091905050611193565b6040518080602001828103825283818151815260200191508051906020019060200280838360005b838110156102ff5780820151818401526020810190506102e4565b505050509050019250505060405180910390f35b341561031e57600080fd5b61034a60048080356000191690602001909190803590602001909190803590602001909190505061125c565b604051808215151515815260200191505060405180910390f35b341561036f57600080fd5b610377611397565b6040518082815260200191505060405180910390f35b341561039857600080fd5b6103f4600480803560ff1690602001909190803590602001908201803590602001908080601f016020809104026020016040519081016040528093929190818152602001838380828437820191505050505050919050506113a4565b604051808215151515815260200191505060405180910390f35b341561041957600080fd5b610433600480803560001916906020019091905050611489565b604051808215151515815260200191505060405180910390f35b341561045857600080fd5b610472600480803560001916906020019091905050611e60565b6040518080602001828103825283818151815260200191508051906020019060200280838360005b838110156104b557808201518184015260208101905061049a565b505050509050019250505060405180910390f35b34156104d457600080fd5b6104dc611f05565b604051808273ffffffffffffffffffffffffffffffffffffffff1673ffffffffffffffffffffffffffffffffffffffff16815260200191505060405180910390f35b61053a600480803563ffffffff16906020019091905050611f2a565b604051808215151515815260200191505060405180910390f35b341561055f57600080fd5b6105ac60048080359060200190820180359060200190808060200260200160405190810160405280939291908181526020018383602002808284378201915050505050509190505061236c565b60405180806020018060200180602001806020018060200186810386528b818151815260200191508051906020019060200280838360005b838110156105ff5780820151818401526020810190506105e4565b5050505090500186810385528a818151815260200191508051906020019060200280838360005b83811015610641578082015181840152602081019050610626565b50505050905001868103845289818151815260200191508051906020019060200280838360005b83811015610683578082015181840152602081019050610668565b50505050905001868103835288818151815260200191508051906020019060200280838360005b838110156106c55780820151818401526020810190506106aa565b50505050905001868103825287818151815260200191508051906020019060200280838360005b838110156107075780820151818401526020810190506106ec565b505050509050019a505050505050505050505060405180910390f35b341561072e57600080fd5b6107366127e5565b604051808273ffffffffffffffffffffffffffffffffffffffff1673ffffffffffffffffffffffffffffffffffffffff16815260200191505060405180910390f35b341561078357600080fd5b6107a1600480803565ffffffffffff1690602001909190505061280b565b6040518082815260200191505060405180910390f35b61087560048080356000191690602001909190803590602001908201803590602001908080601f0160208091040260200160405190810160405280939291908181526020018383808284378201915050505050509190803590602001908201803590602001908080601f0160208091040260200160405190810160405280939291908181526020018383808284378201915050505050509190803590602001909190803590602001909190803560000b9060200190919050506128cb565b604051808215151515815260200191505060405180910390f35b341561089a57600080fd5b6108c6600480803573ffffffffffffffffffffffffffffffffffffffff1690602001909190505061316e565b6040518082815260200191505060405180910390f35b34156108e757600080fd5b610903600480803563ffffffff169060200190919050506131b7565b604051808973ffffffffffffffffffffffffffffffffffffffff1673ffffffffffffffffffffffffffffffffffffffff1681526020018860ff1660ff16815260200187815260200186815260200185815260200184600581111561096357fe5b60ff1681526020018060200180602001838103835285818151815260200191508051906020019060200280838360005b838110156109ae578082015181840152602081019050610993565b50505050905001838103825284818151815260200191508051906020019060200280838360005b838110156109f05780820151818401526020810190506109d5565b505050509050019a505050505050505050505060405180910390f35b3415610a1757600080fd5b610a2d6004808035906020019091905050613584565b604051808215151515815260200191505060405180910390f35b3415610a5257600080fd5b610a7e600480803573ffffffffffffffffffffffffffffffffffffffff16906020019091905050613790565b005b3415610a8b57600080fd5b610ab7600480803573ffffffffffffffffffffffffffffffffffffffff169060200190919050506138e5565b604051808060200180602001838103835285818151815260200191508051906020019060200280838360005b83811015610afe578082015181840152602081019050610ae3565b50505050905001838103825284818151815260200191508051906020019060200280838360005b83811015610b40578082015181840152602081019050610b25565b5050505090500194505050505060405180910390f35b3415610b6157600080fd5b610b8c600480803563ffffffff1690602001909190803563ffffffff16906020019091905050613b59565b604051808b600019166000191681526020018a63ffffffff1663ffffffff1681526020018973ffffffffffffffffffffffffffffffffffffffff1673ffffffffffffffffffffffffffffffffffffffff1681526020018860ff1660ff168152602001878152602001868152602001858152602001846005811115610c0c57fe5b60ff1681526020018373ffffffffffffffffffffffffffffffffffffffff1673ffffffffffffffffffffffffffffffffffffffff1681526020018281526020019a505050505050505050505060405180910390f35b6000600c8263ffffffff16815481101515610c7857fe5b9060005260206000209060050201600101549050919050565b610c99615626565b600360008360ff1660ff1681526020019081526020016000208054600181600116156101000203166002900480601f016020809104026020016040519081016040528092919081815260200182805460018160011615610100020316600290048015610d465780601f10610d1b57610100808354040283529160200191610d46565b820191906000526020600020905b815481529060010190602001808311610d2957829003601f168201915b50505050509050919050565b6000610d5c61563a565b60008060076000876000191660001916815260200190815260200160002061012060405190810160405290816000820160009054906101000a900460ff1660ff1660ff1681526020016000820160019054906101000a900460ff1660ff1660ff1681526020016000820160029054906101000a900463ffffffff1663ffffffff1663ffffffff1681526020016000820160069054906101000a900465ffffffffffff1665ffffffffffff1665ffffffffffff16815260200160008201600c9054906101000a900460ff166004811115610e3157fe5b6004811115610e3c57fe5b815260200160008201600d9054906101000a900460ff16151515158152602001600182015460001916600019168152602001600282018054600181600116156101000203166002900480601f016020809104026020016040519081016040528092919081815260200182805460018160011615610100020316600290048015610f065780601f10610edb57610100808354040283529160200191610f06565b820191906000526020600020905b815481529060010190602001808311610ee957829003601f168201915b50505050508152602001600382018054600181600116156101000203166002900480601f016020809104026020016040519081016040528092919081815260200182805460018160011615610100020316600290048015610fa85780601f10610f7d57610100808354040283529160200191610fa8565b820191906000526020600020905b815481529060010190602001808311610f8b57829003601f168201915b5050505050815250509250600480811115610fbf57fe5b83608001516004811115610fcf57fe5b141515610fdb57600080fd5b600091505b845182101561118657600c8583815181101515610ff957fe5b9060200190602002015163ffffffff1681548110151561101557fe5b906000526020600020906005020190508560001916816001015460001916141561117957611177838261010060405190810160405290816000820160009054906101000a900460ff1660ff1660ff1681526020016000820160019054906101000a900460000b60000b60000b81526020016000820160029054906101000a900460ff1660058111156110a357fe5b60058111156110ae57fe5b81526020016001820154600019166000191681526020016002820160009054906101000a900465ffffffffffff1665ffffffffffff1665ffffffffffff1681526020016002820160069054906101000a900473ffffffffffffffffffffffffffffffffffffffff1673ffffffffffffffffffffffffffffffffffffffff1673ffffffffffffffffffffffffffffffffffffffff16815260200160038201548152602001600482015481525050878581518110151561116857fe5b90602001906020020151613d78565b505b8180600101925050610fe0565b6001935050505092915050565b61119b6156b7565b600560008373ffffffffffffffffffffffffffffffffffffffff1673ffffffffffffffffffffffffffffffffffffffff16815260200190815260200160002080548060200260200160405190810160405280929190818152602001828054801561125057602002820191906000526020600020906000905b82829054906101000a900463ffffffff1663ffffffff16815260200190600401906020826003010492830192600103820291508084116112135790505b50505050509050919050565b6000806000809054906101000a900473ffffffffffffffffffffffffffffffffffffffff1673ffffffffffffffffffffffffffffffffffffffff163373ffffffffffffffffffffffffffffffffffffffff1614806113035750600a60003373ffffffffffffffffffffffffffffffffffffffff1673ffffffffffffffffffffffffffffffffffffffff16815260200190815260200160002060009054906101000a900460ff165b151561130e57600080fd5b6007600086600019166000191681526020019081526020016000209050838160000160006101000a81548160ff021916908360ff160217905550828160000160016101000a81548160ff021916908360ff160217905550600481600001600c6101000a81548160ff0219169083600481111561138657fe5b021790555060019150509392505050565b6000600b80549050905090565b60008060009054906101000a900473ffffffffffffffffffffffffffffffffffffffff1673ffffffffffffffffffffffffffffffffffffffff163373ffffffffffffffffffffffffffffffffffffffff16148061144a5750600a60003373ffffffffffffffffffffffffffffffffffffffff1673ffffffffffffffffffffffffffffffffffffffff16815260200190815260200160002060009054906101000a900460ff165b151561145557600080fd5b81600360008560ff1660ff16815260200190815260200160002090805190602001906114829291906156cb565b5092915050565b6000806114946156b7565b6000806000809054906101000a900473ffffffffffffffffffffffffffffffffffffffff1673ffffffffffffffffffffffffffffffffffffffff163373ffffffffffffffffffffffffffffffffffffffff16148061153b5750600a60003373ffffffffffffffffffffffffffffffffffffffff1673ffffffffffffffffffffffffffffffffffffffff16815260200190815260200160002060009054906101000a900460ff165b151561154657600080fd5b600760008760001916600019168152602001908152602001600020600001600d9054906101000a900460ff1615151561157e57600080fd5b6007600087600019166000191681526020019081526020016000209350600184600001600d6101000a81548160ff02191690831515021790555060086000876000191660001916815260200190815260200160002080548060200260200160405190810160405280929190818152602001828054801561164957602002820191906000526020600020906000905b82829054906101000a900463ffffffff1663ffffffff168152602001906004019060208260030104928301926001038202915080841161160c5790505b50505050509250600091505b8251821015611c1257600c838381518110151561166e57fe5b9060200190602002015163ffffffff1681548110151561168a57fe5b90600052602060002090600502019050600160058111156116a757fe5b8160000160029054906101000a900460ff1660058111156116c457fe5b14806116f75750600260058111156116d857fe5b8160000160029054906101000a900460ff1660058111156116f557fe5b145b15611a8757611a5b8461012060405190810160405290816000820160009054906101000a900460ff1660ff1660ff1681526020016000820160019054906101000a900460ff1660ff1660ff1681526020016000820160029054906101000a900463ffffffff1663ffffffff1663ffffffff1681526020016000820160069054906101000a900465ffffffffffff1665ffffffffffff1665ffffffffffff16815260200160008201600c9054906101000a900460ff1660048111156117b757fe5b60048111156117c257fe5b815260200160008201600d9054906101000a900460ff16151515158152602001600182015460001916600019168152602001600282018054600181600116156101000203166002900480601f01602080910402602001604051908101604052809291908181526020018280546001816001161561010002031660029004801561188c5780601f106118615761010080835404028352916020019161188c565b820191906000526020600020905b81548152906001019060200180831161186f57829003601f168201915b50505050508152602001600382018054600181600116156101000203166002900480601f01602080910402602001604051908101604052809291908181526020018280546001816001161561010002031660029004801561192e5780601f106119035761010080835404028352916020019161192e565b820191906000526020600020905b81548152906001019060200180831161191157829003601f168201915b5050505050815250508261010060405190810160405290816000820160009054906101000a900460ff1660ff1660ff1681526020016000820160019054906101000a900460000b60000b60000b81526020016000820160029054906101000a900460ff16600581111561199d57fe5b60058111156119a857fe5b81526020016001820154600019166000191681526020016002820160009054906101000a900465ffffffffffff1665ffffffffffff1665ffffffffffff1681526020016002820160069054906101000a900473ffffffffffffffffffffffffffffffffffffffff1673ffffffffffffffffffffffffffffffffffffffff1673ffffffffffffffffffffffffffffffffffffffff168152602001600382015481526020016004820154815250506000613d78565b5060058160000160026101000a81548160ff02191690836005811115611a7d57fe5b0217905550611c05565b60006005811115611a9457fe5b8160000160029054906101000a900460ff166005811115611ab157fe5b1415611c0457611bdc8161010060405190810160405290816000820160009054906101000a900460ff1660ff1660ff1681526020016000820160019054906101000a900460000b60000b60000b81526020016000820160029054906101000a900460ff166005811115611b2057fe5b6005811115611b2b57fe5b81526020016001820154600019166000191681526020016002820160009054906101000a900465ffffffffffff1665ffffffffffff1665ffffffffffff1681526020016002820160069054906101000a900473ffffffffffffffffffffffffffffffffffffffff1673ffffffffffffffffffffffffffffffffffffffff1673ffffffffffffffffffffffffffffffffffffffff16815260200160038201548152602001600482015481525050613fb6565b5060048160000160026101000a81548160ff02191690836005811115611bfe57fe5b02179055505b5b8180600101925050611655565b611e528461012060405190810160405290816000820160009054906101000a900460ff1660ff1660ff1681526020016000820160019054906101000a900460ff1660ff1660ff1681526020016000820160029054906101000a900463ffffffff1663ffffffff1663ffffffff1681526020016000820160069054906101000a900465ffffffffffff1665ffffffffffff1665ffffffffffff16815260200160008201600c9054906101000a900460ff166004811115611ccd57fe5b6004811115611cd857fe5b815260200160008201600d9054906101000a900460ff16151515158152602001600182015460001916600019168152602001600282018054600181600116156101000203166002900480601f016020809104026020016040519081016040528092919081815260200182805460018160011615610100020316600290048015611da25780601f10611d7757610100808354040283529160200191611da2565b820191906000526020600020905b815481529060010190602001808311611d8557829003601f168201915b50505050508152602001600382018054600181600116156101000203166002900480601f016020809104026020016040519081016040528092919081815260200182805460018160011615610100020316600290048015611e445780601f10611e1957610100808354040283529160200191611e44565b820191906000526020600020905b815481529060010190602001808311611e2757829003601f168201915b505050505081525050614088565b506001945050505050919050565b611e686156b7565b600860008360001916600019168152602001908152602001600020805480602002602001604051908101604052809291908181526020018280548015611ef957602002820191906000526020600020906000905b82829054906101000a900463ffffffff1663ffffffff1681526020019060040190602082600301049283019260010382029150808411611ebc5790505b50505050509050919050565b6000809054906101000a900473ffffffffffffffffffffffffffffffffffffffff1681565b6000806000600c8463ffffffff16815481101515611f4457fe5b906000526020600020906005020191503373ffffffffffffffffffffffffffffffffffffffff168260020160069054906101000a900473ffffffffffffffffffffffffffffffffffffffff1673ffffffffffffffffffffffffffffffffffffffff1614151515611fb357600080fd5b60026005811115611fc057fe5b8260000160029054906101000a900460ff166005811115611fdd57fe5b14151515611fea57600080fd5b3482600401548360030154031015151561200357600080fd5b61200c33614166565b1561207557600b8054806001018281612025919061574b565b9160005260206000209001600033909190916101000a81548173ffffffffffffffffffffffffffffffffffffffff021916908373ffffffffffffffffffffffffffffffffffffffff160217905550505b3482600401600082825401925050819055508160030154826004015414156120c25760028260000160026101000a81548160ff021916908360058111156120b857fe5b02179055506120e9565b60018260000160026101000a81548160ff021916908360058111156120e357fe5b02179055505b6001600d80548060010182816120ff9190615777565b916000526020600020906002020160006060604051908101604052808963ffffffff1681526020013373ffffffffffffffffffffffffffffffffffffffff16815260200134815250909190915060008201518160000160006101000a81548163ffffffff021916908363ffffffff16021790555060208201518160000160046101000a81548173ffffffffffffffffffffffffffffffffffffffff021916908373ffffffffffffffffffffffffffffffffffffffff160217905550604082015181600101555050039050600660003373ffffffffffffffffffffffffffffffffffffffff1673ffffffffffffffffffffffffffffffffffffffff168152602001908152602001600020805480600101828161221a91906157a9565b916000526020600020906008918282040191900660040283909190916101000a81548163ffffffff021916908363ffffffff16021790555050600960008563ffffffff1663ffffffff168152602001908152602001600020805480600101828161228491906157a9565b916000526020600020906008918282040191900660040283909190916101000a81548163ffffffff021916908363ffffffff1602179055505034600260003373ffffffffffffffffffffffffffffffffffffffff1673ffffffffffffffffffffffffffffffffffffffff168152602001908152602001600020600082825401925050819055507f0d9674fa982bae8ca4f9a4229301e25a51cae1be90db5c8610e056559c9aa7da8482604051808363ffffffff1663ffffffff1681526020018263ffffffff1663ffffffff1681526020019250505060405180910390a1600192505050919050565b6123746157e3565b61237c6157e3565b6123846157e3565b61238c6157e3565b6123946157e3565b61239c6156b7565b6123a46157e3565b6123ac6157e3565b6123b46157e3565b6123bc6157e3565b6123c46157e3565b6000806123cf6157f7565b8e516040518059106123de5750595b908082528060200260200182016040525097508e516040518059106124005750595b908082528060200260200182016040525096508e516040518059106124225750595b908082528060200260200182016040525095508e516040518059106124445750595b908082528060200260200182016040525094508e516040518059106124665750595b90808252806020026020018201604052509350600092505b8e518310156127c4576124a78f8481518110151561249857fe5b90602001906020020151611e60565b9850600091505b88518210156127b757600c89838151811015156124c757fe5b9060200190602002015163ffffffff168154811015156124e357fe5b906000526020600020906005020161010060405190810160405290816000820160009054906101000a900460ff1660ff1660ff1681526020016000820160019054906101000a900460000b60000b60000b81526020016000820160029054906101000a900460ff16600581111561255657fe5b600581111561256157fe5b81526020016001820154600019166000191681526020016002820160009054906101000a900465ffffffffffff1665ffffffffffff1665ffffffffffff1681526020016002820160069054906101000a900473ffffffffffffffffffffffffffffffffffffffff1673ffffffffffffffffffffffffffffffffffffffff1673ffffffffffffffffffffffffffffffffffffffff1681526020016003820154815260200160048201548152505090506000600581111561261c57fe5b8160400151600581111561262c57fe5b141561265a57878381518110151561264057fe5b9060200190602002018051809190600101815250506127aa565b6003600581111561266757fe5b8160400151600581111561267757fe5b14156126a557858381518110151561268b57fe5b9060200190602002018051809190600101815250506127a9565b600260058111156126b257fe5b816040015160058111156126c257fe5b14806126e757506005808111156126d557fe5b816040015160058111156126e557fe5b145b156127145786838151811015156126fa57fe5b9060200190602002018051809190600101815250506127a8565b6001600581111561272157fe5b8160400151600581111561273157fe5b141561275f57848381518110151561274557fe5b9060200190602002018051809190600101815250506127a7565b6004600581111561276c57fe5b8160400151600581111561277c57fe5b14156127a657838381518110151561279057fe5b9060200190602002018051809190600101815250505b5b5b5b5b81806001019250506124ae565b828060010193505061247e565b87858888879d509d509d509d509d5050505050505050505091939590929450565b600160009054906101000a900473ffffffffffffffffffffffffffffffffffffffff1681565b60008060008090505b600c805490508110156128c1578365ffffffffffff16600c8281548110151561283957fe5b906000526020600020906005020160020160009054906101000a900465ffffffffffff1665ffffffffffff161015156128b457600c8181548110151561287b57fe5b906000526020600020906005020160040154600c8281548110151561289c57fe5b90600052602060002090600502016003015401820191505b8080600101915050612814565b8192505050919050565b60006128d561563a565b6128dd6157f7565b600042861115156128ed57600080fd5b600060198660000b8115156128fe57fe5b0760000b1480156129225750600860198660000b81151561291b57fe5b0560000b13155b801561296057507ffffffffffffffffffffffffffffffffffffffffffffffffffffffffffffffff860198660000b81151561295957fe5b0560000b12155b151561296b57600080fd5b600760008b6000191660001916815260200190815260200160002061012060405190810160405290816000820160009054906101000a900460ff1660ff1660ff1681526020016000820160019054906101000a900460ff1660ff1660ff1681526020016000820160029054906101000a900463ffffffff1663ffffffff1663ffffffff1681526020016000820160069054906101000a900465ffffffffffff1665ffffffffffff1665ffffffffffff16815260200160008201600c9054906101000a900460ff166004811115612a3d57fe5b6004811115612a4857fe5b815260200160008201600d9054906101000a900460ff16151515158152602001600182015460001916600019168152602001600282018054600181600116156101000203166002900480601f016020809104026020016040519081016040528092919081815260200182805460018160011615610100020316600290048015612b125780601f10612ae757610100808354040283529160200191612b12565b820191906000526020600020905b815481529060010190602001808311612af557829003601f168201915b50505050508152602001600382018054600181600116156101000203166002900480601f016020809104026020016040519081016040528092919081815260200182805460018160011615610100020316600290048015612bb45780601f10612b8957610100808354040283529160200191612bb4565b820191906000526020600020905b815481529060010190602001808311612b9757829003601f168201915b505050505081525050925060006004811115612bcc57fe5b83608001516004811115612bdc57fe5b1415612dc457888360e001819052508783610100018190525085836060019065ffffffffffff16908165ffffffffffff1681525050600183608001906004811115612c2357fe5b90816004811115612c3057fe5b815250506001600f8054806001018281612c4a919061586e565b916000526020600020900160008d90919091509060001916905503836040019063ffffffff16908163ffffffff168152505082600760008c6000191660001916815260200190815260200160002060008201518160000160006101000a81548160ff021916908360ff16021790555060208201518160000160016101000a81548160ff021916908360ff16021790555060408201518160000160026101000a81548163ffffffff021916908363ffffffff16021790555060608201518160000160066101000a81548165ffffffffffff021916908365ffffffffffff160217905550608082015181600001600c6101000a81548160ff02191690836004811115612d5057fe5b021790555060a082015181600001600d6101000a81548160ff02191690831515021790555060c0820151816001019060001916905560e0820151816002019080519060200190612da192919061589a565b50610100820151816003019080519060200190612dbf92919061589a565b509050505b610100604051908101604052808860ff1681526020018660000b815260200160006005811115612df057fe5b81526020018b6000191681526020014265ffffffffffff1681526020013373ffffffffffffffffffffffffffffffffffffffff168152602001348152602001600081525091506001600c8054806001018281612e4c919061591a565b9160005260206000209060050201600085909190915060008201518160000160006101000a81548160ff021916908360ff16021790555060208201518160000160016101000a81548160ff021916908360000b60ff16021790555060408201518160000160026101000a81548160ff02191690836005811115612ecb57fe5b02179055506060820151816001019060001916905560808201518160020160006101000a81548165ffffffffffff021916908365ffffffffffff16021790555060a08201518160020160066101000a81548173ffffffffffffffffffffffffffffffffffffffff021916908373ffffffffffffffffffffffffffffffffffffffff16021790555060c0820151816003015560e082015181600401555050039050600560003373ffffffffffffffffffffffffffffffffffffffff1673ffffffffffffffffffffffffffffffffffffffff1681526020019081526020016000208054806001018281612fbc91906157a9565b916000526020600020906008918282040191900660040283909190916101000a81548163ffffffff021916908363ffffffff16021790555050600860008b60001916600019168152602001908152602001600020805480600101828161302291906157a9565b916000526020600020906008918282040191900660040283909190916101000a81548163ffffffff021916908363ffffffff1602179055505061306433614166565b156130cd57600b805480600101828161307d919061574b565b9160005260206000209001600033909190916101000a81548173ffffffffffffffffffffffffffffffffffffffff021916908373ffffffffffffffffffffffffffffffffffffffff160217905550505b7ff5e85066887ee107b094efa56b5fc726af1a0836f342d569a8c92ccabce73ce381604051808263ffffffff1663ffffffff16815260200191505060405180910390a134600260003373ffffffffffffffffffffffffffffffffffffffff1673ffffffffffffffffffffffffffffffffffffffff16815260200190815260200160002060008282540192505081905550600193505050509695505050505050565b6000600260008373ffffffffffffffffffffffffffffffffffffffff1673ffffffffffffffffffffffffffffffffffffffff168152602001908152602001600020549050919050565b6000806000806000806131c861594c565b6131d06157e3565b6131d86157f7565b6131e061594c565b6131e86157e3565b6000600c8d63ffffffff168154811015156131ff57fe5b906000526020600020906005020161010060405190810160405290816000820160009054906101000a900460ff1660ff1660ff1681526020016000820160019054906101000a900460000b60000b60000b81526020016000820160029054906101000a900460ff16600581111561327257fe5b600581111561327d57fe5b81526020016001820154600019166000191681526020016002820160009054906101000a900465ffffffffffff1665ffffffffffff1665ffffffffffff1681526020016002820160069054906101000a900473ffffffffffffffffffffffffffffffffffffffff1673ffffffffffffffffffffffffffffffffffffffff1673ffffffffffffffffffffffffffffffffffffffff168152602001600382015481526020016004820154815250509350600960008e63ffffffff1663ffffffff1681526020019081526020016000208054905060405180591061335b5750595b90808252806020026020018201604052509250825160405180591061337d5750595b90808252806020026020018201604052509150600090505b82518163ffffffff16101561353f57600d600960008f63ffffffff1663ffffffff1681526020019081526020016000208263ffffffff168154811015156133d857fe5b90600052602060002090600891828204019190066004029054906101000a900463ffffffff1663ffffffff1681548110151561341057fe5b906000526020600020906002020160000160049054906101000a900473ffffffffffffffffffffffffffffffffffffffff16838263ffffffff1681518110151561345657fe5b9060200190602002019073ffffffffffffffffffffffffffffffffffffffff16908173ffffffffffffffffffffffffffffffffffffffff1681525050600d600960008f63ffffffff1663ffffffff1681526020019081526020016000208263ffffffff168154811015156134c657fe5b90600052602060002090600891828204019190066004029054906101000a900463ffffffff1663ffffffff168154811015156134fe57fe5b906000526020600020906002020160010154828263ffffffff1681518110151561352457fe5b90602001906020020181815250508080600101915050613395565b8360a00151846000015185602001518660c001518760e00151886040015188888560000b95509b509b509b509b509b509b509b509b5050505050919395975091939597565b600080600c8381548110151561359657fe5b906000526020600020906005020190503373ffffffffffffffffffffffffffffffffffffffff168160020160069054906101000a900473ffffffffffffffffffffffffffffffffffffffff1673ffffffffffffffffffffffffffffffffffffffff1614151561360457600080fd5b6000600581111561361157fe5b8160000160029054906101000a900460ff16600581111561362e57fe5b14151561363a57600080fd5b61375f8161010060405190810160405290816000820160009054906101000a900460ff1660ff1660ff1681526020016000820160019054906101000a900460000b60000b60000b81526020016000820160029054906101000a900460ff1660058111156136a357fe5b60058111156136ae57fe5b81526020016001820154600019166000191681526020016002820160009054906101000a900465ffffffffffff1665ffffffffffff1665ffffffffffff1681526020016002820160069054906101000a900473ffffffffffffffffffffffffffffffffffffffff1673ffffffffffffffffffffffffffffffffffffffff1673ffffffffffffffffffffffffffffffffffffffff16815260200160038201548152602001600482015481525050613fb6565b5060038160000160026101000a81548160ff0219169083600581111561378157fe5b02179055506001915050919050565b6000809054906101000a900473ffffffffffffffffffffffffffffffffffffffff1673ffffffffffffffffffffffffffffffffffffffff163373ffffffffffffffffffffffffffffffffffffffff161415156137eb57600080fd5b600073ffffffffffffffffffffffffffffffffffffffff168173ffffffffffffffffffffffffffffffffffffffff161415151561382757600080fd5b8073ffffffffffffffffffffffffffffffffffffffff166000809054906101000a900473ffffffffffffffffffffffffffffffffffffffff1673ffffffffffffffffffffffffffffffffffffffff167f8be0079c531659141344cd1fd0a4f28419497f9722a3daafe3b4186f6b6457e060405160405180910390a3806000806101000a81548173ffffffffffffffffffffffffffffffffffffffff021916908373ffffffffffffffffffffffffffffffffffffffff16021790555050565b6138ed6156b7565b6138f56156b7565b6138fd6156b7565b6000600660008673ffffffffffffffffffffffffffffffffffffffff1673ffffffffffffffffffffffffffffffffffffffff1681526020019081526020016000208054905060405180591061394f5750595b90808252806020026020018201604052509150600090505b600660008673ffffffffffffffffffffffffffffffffffffffff1673ffffffffffffffffffffffffffffffffffffffff16815260200190815260200160002080549050811015613a9057600d600660008773ffffffffffffffffffffffffffffffffffffffff1673ffffffffffffffffffffffffffffffffffffffff168152602001908152602001600020828154811015156139ff57fe5b90600052602060002090600891828204019190066004029054906101000a900463ffffffff1663ffffffff16815481101515613a3757fe5b906000526020600020906002020160000160009054906101000a900463ffffffff168282815181101515613a6757fe5b9060200190602002019063ffffffff16908163ffffffff16815250508080600101915050613967565b81600660008773ffffffffffffffffffffffffffffffffffffffff1673ffffffffffffffffffffffffffffffffffffffff16815260200190815260200160002080805480602002602001604051908101604052809291908181526020018280548015613b4757602002820191906000526020600020906000905b82829054906101000a900463ffffffff1663ffffffff1681526020019060040190602082600301049283019260010382029150808411613b0a5790505b50505050509050935093505050915091565b600080600080600080600080600080613b706157f7565b600080600c8f63ffffffff16815481101515613b8857fe5b906000526020600020906005020161010060405190810160405290816000820160009054906101000a900460ff1660ff1660ff1681526020016000820160019054906101000a900460000b60000b60000b81526020016000820160029054906101000a900460ff166005811115613bfb57fe5b6005811115613c0657fe5b81526020016001820154600019166000191681526020016002820160009054906101000a900465ffffffffffff1665ffffffffffff1665ffffffffffff1681526020016002820160069054906101000a900473ffffffffffffffffffffffffffffffffffffffff1673ffffffffffffffffffffffffffffffffffffffff1673ffffffffffffffffffffffffffffffffffffffff168152602001600382015481526020016004820154815250509250600d8e63ffffffff16815481101515613cc957fe5b906000526020600020906002020160000160049054906101000a900473ffffffffffffffffffffffffffffffffffffffff169150600d8e63ffffffff16815481101515613d1257fe5b906000526020600020906002020160010154905082606001518f8460a00151856000015186602001518760c001518860e00151896040015189898560000b95509c509c509c509c509c509c509c509c509c509c505050509295989b9194979a5092959850565b6000613d82615960565b6000613d8c615974565b613d97878787614204565b9250600091505b8251821015613e16578282815181101515613db557fe5b90602001906020020151905060008160200151118015613df057506000816000015173ffffffffffffffffffffffffffffffffffffffff1614155b15613e0957613e0781600001518260200151615536565b505b8180600101925050613d9e565b8560c00151600260008860a0015173ffffffffffffffffffffffffffffffffffffffff1673ffffffffffffffffffffffffffffffffffffffff1681526020019081526020016000205403600260008860a0015173ffffffffffffffffffffffffffffffffffffffff1673ffffffffffffffffffffffffffffffffffffffff168152602001908152602001600020819055506064605f8760e0015102811515613eba57fe5b048660e001510360026000600160009054906101000a900473ffffffffffffffffffffffffffffffffffffffff1673ffffffffffffffffffffffffffffffffffffffff1673ffffffffffffffffffffffffffffffffffffffff168152602001908152602001600020540160026000600160009054906101000a900473ffffffffffffffffffffffffffffffffffffffff1673ffffffffffffffffffffffffffffffffffffffff1673ffffffffffffffffffffffffffffffffffffffff16815260200190815260200160002081905550600586604001906005811115613f9b57fe5b90816005811115613fa857fe5b815250505050509392505050565b6000613fca8260a001518360c00151615536565b50600482604001906005811115613fdd57fe5b90816005811115613fea57fe5b815250508160c00151600260008460a0015173ffffffffffffffffffffffffffffffffffffffff1673ffffffffffffffffffffffffffffffffffffffff1681526020019081526020016000205403600260008460a0015173ffffffffffffffffffffffffffffffffffffffff1673ffffffffffffffffffffffffffffffffffffffff1681526020019081526020016000208190555060019050919050565b6000806000836040015191506001600f80549050039050600f8163ffffffff168154811015156140b457fe5b906000526020600020900154600f8363ffffffff168154811015156140d557fe5b906000526020600020900181600019169055508160076000600f8563ffffffff1681548110151561410257fe5b9060005260206000209001546000191660001916815260200190815260200160002060000160026101000a81548163ffffffff021916908363ffffffff160217905550600f80548091906001900361415a91906159a4565b50600192505050919050565b600080600560008473ffffffffffffffffffffffffffffffffffffffff1673ffffffffffffffffffffffffffffffffffffffff16815260200190815260200160002080549050111580156141fd57506000600660008473ffffffffffffffffffffffffffffffffffffffff1673ffffffffffffffffffffffffffffffffffffffff1681526020019081526020016000208054905011155b9050919050565b61420c615960565b6000614216615960565b600080600181111561422457fe5b60ff16866000015160ff16141561425d57614256876020015160ff16886000015160ff1603876020015160000b61559e565b9250614281565b61427e876000015160ff16886020015160ff1603876020015160000b61559e565b92505b6001600960008763ffffffff1663ffffffff16815260200190815260200160002080549050016040518059106142b45750595b9080825280602002602001820160405280156142ea57816020015b6142d76159d0565b8152602001906001900390816142cf5790505b509150600060048111156142fa57fe5b83600481111561430657fe5b141561450c5760408051908101604052808760a0015173ffffffffffffffffffffffffffffffffffffffff1681526020016064605f8960e001510281151561434a57fe5b048860c001510181525082600081518110151561436357fe5b90602001906020020181905250600090505b600960008663ffffffff1663ffffffff1681526020019081526020016000208054905081101561450757600d600960008763ffffffff1663ffffffff168152602001908152602001600020828154811015156143cd57fe5b90600052602060002090600891828204019190066004029054906101000a900463ffffffff1663ffffffff1681548110151561440557fe5b90600052602060002090600202016001015460026000600d600960008a63ffffffff1663ffffffff1681526020019081526020016000208581548110151561444957fe5b90600052602060002090600891828204019190066004029054906101000a900463ffffffff1663ffffffff1681548110151561448157fe5b906000526020600020906002020160000160049054906101000a900473ffffffffffffffffffffffffffffffffffffffff1673ffffffffffffffffffffffffffffffffffffffff1673ffffffffffffffffffffffffffffffffffffffff168152602001908152602001600020600082825403925050819055508080600101915050614375565b615529565b6001600481111561451957fe5b83600481111561452557fe5b14156149285760408051908101604052808760a0015173ffffffffffffffffffffffffffffffffffffffff1681526020016002606460058a60e001510281151561456b57fe5b0481151561457557fe5b048860e00151038860c001510181525082600081518110151561459457fe5b90602001906020020181905250600090505b600960008663ffffffff1663ffffffff16815260200190815260200160002080549050811015614923576040805190810160405280600d600960008963ffffffff1663ffffffff1681526020019081526020016000208481548110151561460957fe5b90600052602060002090600891828204019190066004029054906101000a900463ffffffff1663ffffffff1681548110151561464157fe5b906000526020600020906002020160000160049054906101000a900473ffffffffffffffffffffffffffffffffffffffff1673ffffffffffffffffffffffffffffffffffffffff168152602001600260646005600d600960008c63ffffffff1663ffffffff168152602001908152602001600020878154811015156146c257fe5b90600052602060002090600891828204019190066004029054906101000a900463ffffffff1663ffffffff168154811015156146fa57fe5b9060005260206000209060020201600101540281151561471657fe5b0481151561472057fe5b04600d600960008a63ffffffff1663ffffffff1681526020019081526020016000208581548110151561474f57fe5b90600052602060002090600891828204019190066004029054906101000a900463ffffffff1663ffffffff1681548110151561478757fe5b9060005260206000209060020201600101540381525082600183018151811015156147ae57fe5b90602001906020020181905250600d600960008763ffffffff1663ffffffff168152602001908152602001600020828154811015156147e957fe5b90600052602060002090600891828204019190066004029054906101000a900463ffffffff1663ffffffff1681548110151561482157fe5b90600052602060002090600202016001015460026000600d600960008a63ffffffff1663ffffffff1681526020019081526020016000208581548110151561486557fe5b90600052602060002090600891828204019190066004029054906101000a900463ffffffff1663ffffffff1681548110151561489d57fe5b906000526020600020906002020160000160049054906101000a900473ffffffffffffffffffffffffffffffffffffffff1673ffffffffffffffffffffffffffffffffffffffff1673ffffffffffffffffffffffffffffffffffffffff1681526020019081526020016000206000828254039250508190555080806001019150506145a6565b615528565b6002600481111561493557fe5b83600481111561494157fe5b1415614d445760408051908101604052808760a0015173ffffffffffffffffffffffffffffffffffffffff16815260200160026064605f8a60e001510281151561498757fe5b0481151561499157fe5b048860e00151018860c00151018152508260008151811015156149b057fe5b90602001906020020181905250600090505b600960008663ffffffff1663ffffffff16815260200190815260200160002080549050811015614d3f576040805190810160405280600d600960008963ffffffff1663ffffffff16815260200190815260200160002084815481101515614a2557fe5b90600052602060002090600891828204019190066004029054906101000a900463ffffffff1663ffffffff16815481101515614a5d57fe5b906000526020600020906002020160000160049054906101000a900473ffffffffffffffffffffffffffffffffffffffff1673ffffffffffffffffffffffffffffffffffffffff16815260200160026064605f600d600960008c63ffffffff1663ffffffff16815260200190815260200160002087815481101515614ade57fe5b90600052602060002090600891828204019190066004029054906101000a900463ffffffff1663ffffffff16815481101515614b1657fe5b90600052602060002090600202016001015402811515614b3257fe5b04811515614b3c57fe5b04600d600960008a63ffffffff1663ffffffff16815260200190815260200160002085815481101515614b6b57fe5b90600052602060002090600891828204019190066004029054906101000a900463ffffffff1663ffffffff16815481101515614ba357fe5b906000526020600020906002020160010154038152508260018301815181101515614bca57fe5b90602001906020020181905250600d600960008763ffffffff1663ffffffff16815260200190815260200160002082815481101515614c0557fe5b90600052602060002090600891828204019190066004029054906101000a900463ffffffff1663ffffffff16815481101515614c3d57fe5b90600052602060002090600202016001015460026000600d600960008a63ffffffff1663ffffffff16815260200190815260200160002085815481101515614c8157fe5b90600052602060002090600891828204019190066004029054906101000a900463ffffffff1663ffffffff16815481101515614cb957fe5b906000526020600020906002020160000160049054906101000a900473ffffffffffffffffffffffffffffffffffffffff1673ffffffffffffffffffffffffffffffffffffffff1673ffffffffffffffffffffffffffffffffffffffff1681526020019081526020016000206000828254039250508190555080806001019150506149c2565b615527565b60036004811115614d5157fe5b836004811115614d5d57fe5b141561515a5760408051908101604052808760a0015173ffffffffffffffffffffffffffffffffffffffff16815260200160026064605f8a60e0015102811515614da357fe5b04811515614dad57fe5b048860c0015101815250826000815181101515614dc657fe5b90602001906020020181905250600090505b600960008663ffffffff1663ffffffff16815260200190815260200160002080549050811015615155576040805190810160405280600d600960008963ffffffff1663ffffffff16815260200190815260200160002084815481101515614e3b57fe5b90600052602060002090600891828204019190066004029054906101000a900463ffffffff1663ffffffff16815481101515614e7357fe5b906000526020600020906002020160000160049054906101000a900473ffffffffffffffffffffffffffffffffffffffff1673ffffffffffffffffffffffffffffffffffffffff16815260200160026064605f600d600960008c63ffffffff1663ffffffff16815260200190815260200160002087815481101515614ef457fe5b90600052602060002090600891828204019190066004029054906101000a900463ffffffff1663ffffffff16815481101515614f2c57fe5b90600052602060002090600202016001015402811515614f4857fe5b04811515614f5257fe5b04600d600960008a63ffffffff1663ffffffff16815260200190815260200160002085815481101515614f8157fe5b90600052602060002090600891828204019190066004029054906101000a900463ffffffff1663ffffffff16815481101515614fb957fe5b906000526020600020906002020160010154018152508260018301815181101515614fe057fe5b90602001906020020181905250600d600960008763ffffffff1663ffffffff1681526020019081526020016000208281548110151561501b57fe5b90600052602060002090600891828204019190066004029054906101000a900463ffffffff1663ffffffff1681548110151561505357fe5b90600052602060002090600202016001015460026000600d600960008a63ffffffff1663ffffffff1681526020019081526020016000208581548110151561509757fe5b90600052602060002090600891828204019190066004029054906101000a900463ffffffff1663ffffffff168154811015156150cf57fe5b906000526020600020906002020160000160049054906101000a900473ffffffffffffffffffffffffffffffffffffffff1673ffffffffffffffffffffffffffffffffffffffff1673ffffffffffffffffffffffffffffffffffffffff168152602001908152602001600020600082825403925050819055508080600101915050614dd8565b615526565b60408051908101604052808760a0015173ffffffffffffffffffffffffffffffffffffffff1681526020018760e001518860c00151038152508260008151811015156151a257fe5b90602001906020020181905250600090505b600960008663ffffffff1663ffffffff16815260200190815260200160002080549050811015615525576040805190810160405280600d600960008963ffffffff1663ffffffff1681526020019081526020016000208481548110151561521757fe5b90600052602060002090600891828204019190066004029054906101000a900463ffffffff1663ffffffff1681548110151561524f57fe5b906000526020600020906002020160000160049054906101000a900473ffffffffffffffffffffffffffffffffffffffff1673ffffffffffffffffffffffffffffffffffffffff1681526020016064605f600d600960008b63ffffffff1663ffffffff168152602001908152602001600020868154811015156152ce57fe5b90600052602060002090600891828204019190066004029054906101000a900463ffffffff1663ffffffff1681548110151561530657fe5b9060005260206000209060020201600101540281151561532257fe5b04600d600960008a63ffffffff1663ffffffff1681526020019081526020016000208581548110151561535157fe5b90600052602060002090600891828204019190066004029054906101000a900463ffffffff1663ffffffff1681548110151561538957fe5b9060005260206000209060020201600101540181525082600183018151811015156153b057fe5b90602001906020020181905250600d600960008763ffffffff1663ffffffff168152602001908152602001600020828154811015156153eb57fe5b90600052602060002090600891828204019190066004029054906101000a900463ffffffff1663ffffffff1681548110151561542357fe5b90600052602060002090600202016001015460026000600d600960008a63ffffffff1663ffffffff1681526020019081526020016000208581548110151561546757fe5b90600052602060002090600891828204019190066004029054906101000a900463ffffffff1663ffffffff1681548110151561549f57fe5b906000526020600020906002020160000160049054906101000a900473ffffffffffffffffffffffffffffffffffffffff1673ffffffffffffffffffffffffffffffffffffffff1673ffffffffffffffffffffffffffffffffffffffff1681526020019081526020016000206000828254039250508190555080806001019150506151b4565b5b5b5b5b8193505050509392505050565b6000808373ffffffffffffffffffffffffffffffffffffffff16141515615598578273ffffffffffffffffffffffffffffffffffffffff166108fc839081150290604051600060405180830381858888f19350505050151561559757600080fd5b5b92915050565b6000601960648402830114156155b75760029050615620565b7fffffffffffffffffffffffffffffffffffffffffffffffffffffffffffffffe760648402830114156155ed5760039050615620565b600060648402830114156156045760019050615620565b6019606484028301131561561b5760009050615620565b600490505b92915050565b602060405190810160405280600081525090565b61012060405190810160405280600060ff168152602001600060ff168152602001600063ffffffff168152602001600065ffffffffffff1681526020016000600481111561568457fe5b8152602001600015158152602001600080191681526020016156a4615a00565b81526020016156b1615a00565b81525090565b602060405190810160405280600081525090565b828054600181600116156101000203166002900490600052602060002090601f016020900481019282601f1061570c57805160ff191683800117855561573a565b8280016001018555821561573a579182015b8281111561573957825182559160200191906001019061571e565b5b5090506157479190615a14565b5090565b815481835581811511615772578183600052602060002091820191016157719190615a14565b5b505050565b8154818355818115116157a4576002028160020283600052602060002091820191016157a39190615a39565b5b505050565b8154818355818115116157de5760070160089004816007016008900483600052602060002091820191016157dd9190615a14565b5b505050565b602060405190810160405280600081525090565b61010060405190810160405280600060ff1681526020016000800b81526020016000600581111561582457fe5b815260200160008019168152602001600065ffffffffffff168152602001600073ffffffffffffffffffffffffffffffffffffffff16815260200160008152602001600081525090565b815481835581811511615895578183600052602060002091820191016158949190615a9e565b5b505050565b828054600181600116156101000203166002900490600052602060002090601f016020900481019282601f106158db57805160ff1916838001178555615909565b82800160010185558215615909579182015b828111156159085782518255916020019190600101906158ed565b5b5090506159169190615a14565b5090565b815481835581811511615947576005028160050283600052602060002091820191016159469190615ac3565b5b505050565b602060405190810160405280600081525090565b602060405190810160405280600081525090565b6040805190810160405280600073ffffffffffffffffffffffffffffffffffffffff168152602001600081525090565b8154818355818115116159cb578183600052602060002091820191016159ca9190615a9e565b5b505050565b6040805190810160405280600073ffffffffffffffffffffffffffffffffffffffff168152602001600081525090565b602060405190810160405280600081525090565b615a3691905b80821115615a32576000816000905550600101615a1a565b5090565b90565b615a9b91905b80821115615a9757600080820160006101000a81549063ffffffff02191690556000820160046101000a81549073ffffffffffffffffffffffffffffffffffffffff0219169055600182016000905550600201615a3f565b5090565b90565b615ac091905b80821115615abc576000816000905550600101615aa4565b5090565b90565b615b7391905b80821115615b6f57600080820160006101000a81549060ff02191690556000820160016101000a81549060ff02191690556000820160026101000a81549060ff021916905560018201600090556002820160006101000a81549065ffffffffffff02191690556002820160066101000a81549073ffffffffffffffffffffffffffffffffffffffff02191690556003820160009055600482016000905550600501615ac9565b5090565b905600a165627a7a7230582052ae80863d4feff4c9c34714fb095311dc98d91251b3e40b7f947ba0455af9d30029",
  "source": "pragma solidity ^0.4.21;\n\nimport \"./Ownable.sol\";\ncontract BetherContract is Ownable {\n\n\n  function BetherContract(){\n\n  }\n\n  event LogNewBet(uint32 bettingIdx);\n  event LogAcceptBet(uint32 bettingIdx, uint32 settledIdx);\n  enum Team {Home, Away}\n  enum MatchStatus {NotAvailable, Waiting, Playing, Canceled, Finished}\n  enum BetStatus {Open, Deal, Settled, Canceled, Refunded, Done}\n  enum BookmakerResult {Win, Draw, WinAHalf, LoseAHalf, Lose}\n\n  address public feeOwner;\n  mapping(address => uint256) balances;\n  mapping(uint8 => string) leagues;\n  mapping(bytes32 => address) betContracts;\n  mapping(address => uint32[]) userBets;\n  mapping(address => uint32[]) userSettled;\n  mapping(bytes32 => Match) matches;\n  mapping(bytes32 => uint32[]) matchBets;\n  mapping(uint32 => uint32[]) betSettled;\n  mapping(address => bool) admins;\n\n\n  address[] players;\n  Betting[] bets;\n  Settle[] settles;\n  bytes32[] betIndexes;\n  bytes32[] matchIds;\n\n  struct Betting {\n    uint8 bmTeam; //bMaker team\n    int8 odds;\n    BetStatus status;\n    bytes32 matchId;\n    uint48 time;\n    address bMaker;\n    uint256 bAmount;\n    uint256 settledAmount;\n  }\n\n  struct Settle {\n    uint32 betIndex;\n    address punter;\n    uint256 amount;\n  }\n\n  struct Match {\n\n    uint8 homeScore; // home score\n    uint8 awayScore;  // away score\n    uint32 idx;\n    uint48 time;\n    MatchStatus status;\n    bool isApproved;\n    bytes32 id;\n    string homeTeam; // home Team\n    string awayTeam; // away Team\n  }\n\n\n  struct Funding {\n\n    address receiver;\n    uint256 amount;\n\n  }\n\n\n  modifier canUpdate() {\n    require(msg.sender == owner || admins[msg.sender]);\n    _;\n  }\n\n  function updateLeague(uint8 id, string ipfsHash) canUpdate public returns (bool){\n    leagues[id] = ipfsHash;\n  }\n\n  function getLeague(uint8 id) public view returns (string league) {\n    league = leagues[id];\n  }\n\n\n  function offerNewMatch(bytes32 matchId, string homeTeam, string awayTeam, uint selectedTeam, uint time, int8 odds) public payable returns (bool) {\n\n    require(time > now);\n    require((odds % 25 == 0) && (odds / 25 <= 8) && (odds / 25 >= - 8));\n\n    Match memory _match = matches[matchId];\n\n    if (_match.status == MatchStatus.NotAvailable) {\n      _match.homeTeam = homeTeam;\n      _match.awayTeam = awayTeam;\n      _match.time = uint48(time);\n      _match.status = MatchStatus.Waiting;\n      _match.idx = uint32(matchIds.push(matchId) - 1);\n      matches[matchId] = _match;\n\n    }\n\n    Betting memory _betting = Betting(uint8(selectedTeam), odds, BetStatus.Open, matchId, uint48(now), msg.sender, msg.value, 0);\n\n    uint32 betIdx = uint32(bets.push(_betting) - 1);\n    userBets[msg.sender].push(betIdx);\n    matchBets[matchId].push(betIdx);\n\n    if (isPlayerNotExist(msg.sender)) {\n      players.push(msg.sender);\n    }\n    emit LogNewBet(betIdx);\n    balances[msg.sender] += msg.value;\n    return true;\n  }\n\n  function deal(uint32 bettingIdx) public payable returns (bool) {\n    Betting storage _betting = bets[bettingIdx];\n\n    require(_betting.bMaker != msg.sender);\n    require(_betting.status != BetStatus.Settled);\n    require(_betting.bAmount - _betting.settledAmount >= msg.value);\n\n    if (isPlayerNotExist(msg.sender)) {\n      players.push(msg.sender);\n    }\n\n    _betting.settledAmount += msg.value;\n    if (_betting.settledAmount == _betting.bAmount) {\n      _betting.status = BetStatus.Settled;\n    } else {\n      _betting.status = BetStatus.Deal;\n    }\n\n    uint32 betIdx = uint32(settles.push(Settle(bettingIdx, msg.sender, msg.value)) - 1);\n    userSettled[msg.sender].push(betIdx);\n    betSettled[bettingIdx].push(betIdx);\n    balances[msg.sender] += msg.value;\n    emit LogAcceptBet(bettingIdx, betIdx);\n    return true;\n  }\n\n  function isPlayerNotExist(address player) internal view returns (bool) {\n    return userBets[player].length <= 0 && userSettled[player].length <= 0;\n  }\n\n  function getBettingInfo(uint32 bettingIdx) public view returns (address,\n    uint8, int, uint256, uint256, BetStatus,\n    address[], uint256[]) {\n    Betting memory _betting = bets[bettingIdx];\n\n    address[] memory punters = new address[](betSettled[bettingIdx].length);\n    uint256[] memory punterAmounts = new uint256[](punters.length);\n    for (uint32 i = 0; i < punters.length; i++) {\n      punters[i] = settles[betSettled[bettingIdx][i]].punter;\n      punterAmounts[i] = settles[betSettled[bettingIdx][i]].amount;\n    }\n\n    return (_betting.bMaker, _betting.bmTeam, _betting.odds, _betting.bAmount, _betting.settledAmount, _betting.status, punters, punterAmounts);\n  }\n\n  function getMatchId(uint32 bettingIdx) public view returns(bytes32) {\n    return bets[bettingIdx].matchId;\n  }\n  function countBetStatus(bytes32[] matchIds) public view  returns(uint[], uint[], uint[], uint[], uint[]) {\n    uint32[] memory betIdxes;\n    uint[] memory open = new uint[](matchIds.length);\n    uint[] memory settledOrDone = new uint[](matchIds.length);\n    uint[] memory canceled = new uint[](matchIds.length);\n    uint[] memory deal = new uint[](matchIds.length);\n    uint[] memory refunded = new uint[](matchIds.length);\n\n    for(uint i=0;i< matchIds.length;i++) {\n\n      betIdxes = getBettings(matchIds[i]);\n\n      for(uint j = 0;j<betIdxes.length;j++) {\n        Betting memory _betting = bets[betIdxes[j]];\n        if(_betting.status == BetStatus.Open) {\n          open[i]++;\n        } else if(_betting.status == BetStatus.Canceled) {\n          canceled[i]++;\n        } else if(_betting.status == BetStatus.Settled || _betting.status == BetStatus.Done) {\n          settledOrDone[i]++;\n        }  else if(_betting.status == BetStatus.Deal) {\n          deal[i]++;\n        }\n        else if(_betting.status == BetStatus.Refunded) {\n          refunded[i]++;\n        }\n      }\n    }\n    return (open, deal, settledOrDone, canceled, refunded);\n  }\n\n  function getBettings(bytes32 matchId) public view returns (uint32[]) {\n    return matchBets[matchId];\n  }\n\n\n  function getUserBets(address user) public view returns (uint32[]) {\n    return userBets[user];\n  }\n\n  function getUserSettles(address user) public view returns (uint32[], uint32[]) {\n\n    uint32[] memory betIdex = new  uint32[](userSettled[user].length);\n    for (uint i = 0; i < userSettled[user].length; i++) {\n\n      betIdex[i] = settles[userSettled[user][i]].betIndex;\n    }\n\n    return (betIdex, userSettled[user]);\n  }\n\n  function getSettleInfo(uint32 bettingIdx, uint32 settleIdx) public view returns (bytes32, uint32, address,\n    uint8, int, uint256, uint256, BetStatus,\n    address, uint256) {\n    Betting memory _betting = bets[bettingIdx];\n    address punter = settles[settleIdx].punter;\n    uint256 punterAmount = settles[settleIdx].amount;\n    return (_betting.matchId, bettingIdx,_betting.bMaker, _betting.bmTeam, _betting.odds, _betting.bAmount, _betting.settledAmount, _betting.status, punter, punterAmount);\n  }\n\n  function countPlayers() public view returns (uint) {\n    return players.length;\n  }\n\n  function getPlayerBalance(address player) public view returns (uint256) {\n    return balances[player];\n  }\n\n  function updateScore(bytes32 matchId, uint homeScore, uint awayScore) public canUpdate returns (bool) {\n    Match storage _match = matches[matchId];\n    _match.homeScore = uint8(homeScore);\n    _match.awayScore = uint8(awayScore);\n    _match.status = MatchStatus.Finished;\n    return true;\n  }\n\n\n  function approveScore(bytes32 matchId) public canUpdate returns (bool) {\n\n    require(!matches[matchId].isApproved);\n    Match storage _match = matches[matchId];\n    _match.isApproved = true;\n\n    uint32[] memory betIdxes = matchBets[matchId];\n    for (uint256 i = 0; i < betIdxes.length; i++) {\n\n      Betting storage _betting = bets[betIdxes[i]];\n\n      if (_betting.status == BetStatus.Deal || _betting.status == BetStatus.Settled) {\n        doTransfer(_match, _betting, 0);\n        _betting.status = BetStatus.Done;\n      }\n      else if (_betting.status == BetStatus.Open) {\n\n        refund(_betting);\n        _betting.status = BetStatus.Refunded;\n      }\n\n    }\n\n    rmBetIdx(_match);\n    return true;\n  }\n  function rmBetIdx(Match _match) private returns (bool) {\n\n    uint32 toDelete = _match.idx;\n    uint32 lastIdx = uint32(matchIds.length - 1);\n    matchIds[toDelete] = matchIds[lastIdx];\n    matches[matchIds[toDelete]].idx = toDelete;\n    matchIds.length--;\n    return true;\n  }\n\n  function cancelOffer(uint256 bettingId) external returns (bool){\n    Betting storage _betting = bets[bettingId];\n    require(_betting.bMaker == msg.sender);\n    require(_betting.status == BetStatus.Open);\n    refund(_betting);\n    _betting.status = BetStatus.Canceled;\n    return true;\n  }\n\n  function refund(Betting _betting) internal returns (bool) {\n    transferFund(_betting.bMaker, _betting.bAmount);\n    _betting.status = BetStatus.Refunded;\n    balances[_betting.bMaker] = balances[_betting.bMaker] - _betting.bAmount;\n    return true;\n  }\n\n  function doTransfer(Match _match, Betting _betting, uint32 betIndex) internal returns (bool) {\n\n    Funding[] memory fundings = getFunding(_match, _betting, betIndex);\n    for (uint i = 0; i < fundings.length; i++) {\n      Funding memory funding = fundings[i];\n      if (funding.amount > 0 && funding.receiver != 0x0) {\n        transferFund(funding.receiver, funding.amount);\n      }\n    }\n\n    balances[_betting.bMaker] = balances[_betting.bMaker] - _betting.bAmount;\n    balances[feeOwner] = balances[feeOwner] + (_betting.settledAmount - _betting.settledAmount * 95 / 100);\n    _betting.status = BetStatus.Done;\n  }\n\n  function transferFund(address receiver, uint256 amount) private returns (bool) {\n    if (receiver != 0x0) {\n      receiver.transfer(amount);\n    }\n  }\n\n  function getFunding(Match _match, Betting _betting, uint32 betIdx) internal returns (Funding[]) {\n\n    BookmakerResult bmResult;\n\n    // calculate for bookmaker\n    if (_betting.bmTeam == uint8(Team.Home)) {\n      bmResult = getBookmakerResult(int(_match.homeScore) - int(_match.awayScore), _betting.odds);\n    } else {\n      bmResult = getBookmakerResult(int(_match.awayScore) - int(_match.homeScore), _betting.odds);\n    }\n    Funding[] memory fundings = new Funding[](betSettled[betIdx].length + 1);\n    if (bmResult == BookmakerResult.Win) {\n      fundings[0] = Funding(_betting.bMaker, _betting.bAmount + _betting.settledAmount * 95 / 100);\n      for (uint i = 0; i < betSettled[betIdx].length; i++) {\n        balances[settles[betSettled[betIdx][i]].punter] -= settles[betSettled[betIdx][i]].amount;\n      }\n    } else if (bmResult == BookmakerResult.Draw) {\n      fundings[0] = Funding(_betting.bMaker, _betting.bAmount + (_betting.settledAmount - _betting.settledAmount * 5 / 100 / 2));\n      for (i = 0; i < betSettled[betIdx].length; i++) {\n        fundings[i + 1] = Funding(settles[betSettled[betIdx][i]].punter, settles[betSettled[betIdx][i]].amount - settles[betSettled[betIdx][i]].amount * 5 / 100 / 2);\n        balances[settles[betSettled[betIdx][i]].punter] -= settles[betSettled[betIdx][i]].amount;\n      }\n    } else if (bmResult == BookmakerResult.WinAHalf) {\n      fundings[0] = Funding(_betting.bMaker, _betting.bAmount + (_betting.settledAmount + _betting.settledAmount * 95 / 100 / 2));\n      for (i = 0; i < betSettled[betIdx].length; i++) {\n        fundings[i + 1] = Funding(settles[betSettled[betIdx][i]].punter, settles[betSettled[betIdx][i]].amount - settles[betSettled[betIdx][i]].amount * 95 / 100 / 2);\n        balances[settles[betSettled[betIdx][i]].punter] -= settles[betSettled[betIdx][i]].amount;\n      }\n    } else if (bmResult == BookmakerResult.LoseAHalf) {\n      fundings[0] = Funding(_betting.bMaker, _betting.bAmount + _betting.settledAmount * 95 / 100 / 2);\n      for (i = 0; i < betSettled[betIdx].length; i++) {\n        fundings[i + 1] = Funding(settles[betSettled[betIdx][i]].punter, settles[betSettled[betIdx][i]].amount + settles[betSettled[betIdx][i]].amount * 95 / 100 / 2);\n        balances[settles[betSettled[betIdx][i]].punter] -= settles[betSettled[betIdx][i]].amount;\n      }\n    }\n    else {\n      fundings[0] = Funding(_betting.bMaker, _betting.bAmount - _betting.settledAmount);\n      for (i = 0; i < betSettled[betIdx].length; i++) {\n        fundings[i + 1] = Funding(settles[betSettled[betIdx][i]].punter, settles[betSettled[betIdx][i]].amount + settles[betSettled[betIdx][i]].amount * 95 / 100);\n        balances[settles[betSettled[betIdx][i]].punter] -= settles[betSettled[betIdx][i]].amount;\n      }\n\n    }\n\n    return fundings;\n  }\n\n  function getBookmakerResult(int goaldifference, int odds) private returns (BookmakerResult) {\n    if ((odds + goaldifference * 100) == 25) return BookmakerResult.WinAHalf;\n    if ((odds + goaldifference * 100) == - 25) return BookmakerResult.LoseAHalf;\n    if ((odds + goaldifference * 100) == 0) return BookmakerResult.Draw;\n    if ((odds + goaldifference * 100) > 25) return BookmakerResult.Win;\n    return BookmakerResult.Lose;\n  }\n\n  function claimStake(bytes32 matchId, uint32[] bettingIdxes) public returns (bool) {\n\n    Match memory _match = matches[matchId];\n    require(_match.status == MatchStatus.Finished);\n    for (uint i = 0; i < bettingIdxes.length; i++) {\n      Betting storage _betting = bets[bettingIdxes[i]];\n      if (_betting.matchId == matchId) {\n        doTransfer(_match, _betting, bettingIdxes[i]);\n      }\n\n    }\n    return true;\n\n  }\n\n\n  function getVolume(uint48 time) public  view returns (uint256) {\n\n    uint256 vol;\n    for(uint i =0;i< bets.length;i++) {\n      if(bets[i].time >= time) {\n        vol+= bets[i].bAmount + bets[i].settledAmount;\n      }\n    }\n    return vol;\n  }\n\n}\n",
  "sourcePath": "/home/chuonghd/Project/smartcontract/football-bet/backend/contracts/BetherContract.sol",
  "compiler": {
    "name": "solc",
    "version": "0.4.21+commit.dfe3193c.Emscripten.clang"
  },
  "schemaVersion": "2.0.0",
  "updatedAt": "2018-08-19T14:26:18.240Z"
}