{
  "contractName": "BetherContract",
  "abi": [
    {
      "constant": true,
      "inputs": [],
      "name": "owner",
      "outputs": [
        {
          "name": "",
          "type": "address"
        }
      ],
      "payable": false,
      "stateMutability": "view",
      "type": "function"
    },
    {
      "constant": true,
      "inputs": [],
      "name": "feeOwner",
      "outputs": [
        {
          "name": "",
          "type": "address"
        }
      ],
      "payable": false,
      "stateMutability": "view",
      "type": "function"
    },
    {
      "constant": false,
      "inputs": [
        {
          "name": "newOwner",
          "type": "address"
        }
      ],
      "name": "transferOwnership",
      "outputs": [],
      "payable": false,
      "stateMutability": "nonpayable",
      "type": "function"
    },
    {
      "inputs": [],
      "payable": false,
      "stateMutability": "nonpayable",
      "type": "constructor"
    },
    {
      "anonymous": false,
      "inputs": [
        {
          "indexed": false,
          "name": "bettingIdx",
          "type": "uint32"
        }
      ],
      "name": "LogNewBetting",
      "type": "event"
    },
    {
      "anonymous": false,
      "inputs": [
        {
          "indexed": true,
          "name": "previousOwner",
          "type": "address"
        },
        {
          "indexed": true,
          "name": "newOwner",
          "type": "address"
        }
      ],
      "name": "OwnershipTransferred",
      "type": "event"
    },
    {
      "constant": false,
      "inputs": [
        {
          "name": "id",
          "type": "uint8"
        },
        {
          "name": "ipfsHash",
          "type": "string"
        }
      ],
      "name": "updateLeague",
      "outputs": [
        {
          "name": "",
          "type": "bool"
        }
      ],
      "payable": false,
      "stateMutability": "nonpayable",
      "type": "function"
    },
    {
      "constant": true,
      "inputs": [
        {
          "name": "id",
          "type": "uint8"
        }
      ],
      "name": "getLeague",
      "outputs": [
        {
          "name": "league",
          "type": "string"
        }
      ],
      "payable": false,
      "stateMutability": "view",
      "type": "function"
    },
    {
      "constant": false,
      "inputs": [
        {
          "name": "matchId",
          "type": "bytes32"
        },
        {
          "name": "homeTeam",
          "type": "string"
        },
        {
          "name": "awayTeam",
          "type": "string"
        },
        {
          "name": "selectedTeam",
          "type": "uint256"
        },
        {
          "name": "time",
          "type": "uint256"
        },
        {
          "name": "odds",
          "type": "int8"
        }
      ],
      "name": "offerNewMatch",
      "outputs": [
        {
          "name": "",
          "type": "bool"
        }
      ],
      "payable": true,
      "stateMutability": "payable",
      "type": "function"
    },
    {
      "constant": false,
      "inputs": [
        {
          "name": "bettingIdx",
          "type": "uint32"
        }
      ],
      "name": "deal",
      "outputs": [
        {
          "name": "",
          "type": "bool"
        }
      ],
      "payable": true,
      "stateMutability": "payable",
      "type": "function"
    },
    {
      "constant": true,
      "inputs": [
        {
          "name": "bettingIdx",
          "type": "uint32"
        }
      ],
      "name": "getBettingInfo",
      "outputs": [
        {
          "name": "",
          "type": "address"
        },
        {
          "name": "",
          "type": "uint8"
        },
        {
          "name": "",
          "type": "int256"
        },
        {
          "name": "",
          "type": "uint256"
        },
        {
          "name": "",
          "type": "uint256"
        },
        {
          "name": "",
          "type": "uint8"
        },
        {
          "name": "",
          "type": "address[]"
        },
        {
          "name": "",
          "type": "uint256[]"
        }
      ],
      "payable": false,
      "stateMutability": "view",
      "type": "function"
    },
    {
      "constant": true,
      "inputs": [
        {
          "name": "matchIds",
          "type": "bytes32[]"
        }
      ],
      "name": "countBetStatus",
      "outputs": [
        {
          "name": "",
          "type": "uint256[]"
        },
        {
          "name": "",
          "type": "uint256[]"
        },
        {
          "name": "",
          "type": "uint256[]"
        },
        {
          "name": "",
          "type": "uint256[]"
        },
        {
          "name": "",
          "type": "uint256[]"
        }
      ],
      "payable": false,
      "stateMutability": "view",
      "type": "function"
    },
    {
      "constant": true,
      "inputs": [
        {
          "name": "matchId",
          "type": "bytes32"
        }
      ],
      "name": "getBettings",
      "outputs": [
        {
          "name": "",
          "type": "uint32[]"
        }
      ],
      "payable": false,
      "stateMutability": "view",
      "type": "function"
    },
    {
      "constant": true,
      "inputs": [
        {
          "name": "user",
          "type": "address"
        }
      ],
      "name": "getUserBets",
      "outputs": [
        {
          "name": "",
          "type": "uint32[]"
        }
      ],
      "payable": false,
      "stateMutability": "view",
      "type": "function"
    },
    {
      "constant": true,
      "inputs": [
        {
          "name": "user",
          "type": "address"
        }
      ],
      "name": "getUserSettles",
      "outputs": [
        {
          "name": "",
          "type": "uint32[]"
        },
        {
          "name": "",
          "type": "uint32[]"
        }
      ],
      "payable": false,
      "stateMutability": "view",
      "type": "function"
    },
    {
      "constant": true,
      "inputs": [
        {
          "name": "bettingIdx",
          "type": "uint32"
        },
        {
          "name": "settleIdx",
          "type": "uint32"
        }
      ],
      "name": "getSettleInfo",
      "outputs": [
        {
          "name": "",
          "type": "address"
        },
        {
          "name": "",
          "type": "uint8"
        },
        {
          "name": "",
          "type": "int256"
        },
        {
          "name": "",
          "type": "uint256"
        },
        {
          "name": "",
          "type": "uint256"
        },
        {
          "name": "",
          "type": "uint8"
        },
        {
          "name": "",
          "type": "address"
        },
        {
          "name": "",
          "type": "uint256"
        }
      ],
      "payable": false,
      "stateMutability": "view",
      "type": "function"
    },
    {
      "constant": true,
      "inputs": [],
      "name": "countPlayers",
      "outputs": [
        {
          "name": "",
          "type": "uint256"
        }
      ],
      "payable": false,
      "stateMutability": "view",
      "type": "function"
    },
    {
      "constant": true,
      "inputs": [
        {
          "name": "player",
          "type": "address"
        }
      ],
      "name": "getPlayerBalance",
      "outputs": [
        {
          "name": "",
          "type": "uint256"
        }
      ],
      "payable": false,
      "stateMutability": "view",
      "type": "function"
    },
    {
      "constant": false,
      "inputs": [
        {
          "name": "matchId",
          "type": "bytes32"
        },
        {
          "name": "homeScore",
          "type": "uint256"
        },
        {
          "name": "awayScore",
          "type": "uint256"
        }
      ],
      "name": "updateScore",
      "outputs": [
        {
          "name": "",
          "type": "bool"
        }
      ],
      "payable": false,
      "stateMutability": "nonpayable",
      "type": "function"
    },
    {
      "constant": false,
      "inputs": [
        {
          "name": "matchId",
          "type": "bytes32"
        }
      ],
      "name": "approveScore",
      "outputs": [
        {
          "name": "",
          "type": "bool"
        }
      ],
      "payable": false,
      "stateMutability": "nonpayable",
      "type": "function"
    },
    {
      "constant": false,
      "inputs": [
        {
          "name": "bettingId",
          "type": "uint256"
        }
      ],
      "name": "cancelOffer",
      "outputs": [
        {
          "name": "",
          "type": "bool"
        }
      ],
      "payable": false,
      "stateMutability": "nonpayable",
      "type": "function"
    },
    {
      "constant": false,
      "inputs": [
        {
          "name": "matchId",
          "type": "bytes32"
        },
        {
          "name": "bettingIdxes",
          "type": "uint32[]"
        }
      ],
      "name": "claimStake",
      "outputs": [
        {
          "name": "",
          "type": "bool"
        }
      ],
      "payable": false,
      "stateMutability": "nonpayable",
      "type": "function"
    }
  ],
  "bytecode": "0x608060405234801561001057600080fd5b50336000806101000a81548173ffffffffffffffffffffffffffffffffffffffff021916908373ffffffffffffffffffffffffffffffffffffffff16021790555061563480620000616000396000f300608060405260043610610107576000357c0100000000000000000000000000000000000000000000000000000000900463ffffffff16806317fb06981461010c5780632177e843146101b55780632d56657d146102415780633c9b03f3146102d95780634bec8b391461033657806375089a2e146103615780637bbe09f5146103ef5780638363883d146104385780638da5cb5b146104be578063aa31ffc314610515578063ae8b85e914610553578063b9818be11461072e578063cf52e07514610785578063e2734c931461086e578063ee433caf146108c5578063ef706adf146109ff578063f2fde38b14610a44578063f78ae6bc14610a87578063ff3bfa0c14610b67575b600080fd5b34801561011857600080fd5b5061013a600480360381019080803560ff169060200190929190505050610c5b565b6040518080602001828103825283818151815260200191508051906020019080838360005b8381101561017a57808201518184015260208101905061015f565b50505050905090810190601f1680156101a75780820380516001836020036101000a031916815260200191505b509250505060405180910390f35b3480156101c157600080fd5b50610227600480360381019080803560001916906020019092919080359060200190820180359060200190808060200260200160405190810160405280939291908181526020018383602002808284378201915050505050509192919290505050610d16565b604051808215151515815260200191505060405180910390f35b34801561024d57600080fd5b50610282600480360381019080803573ffffffffffffffffffffffffffffffffffffffff16906020019092919050505061112a565b6040518080602001828103825283818151815260200191508051906020019060200280838360005b838110156102c55780820151818401526020810190506102aa565b505050509050019250505060405180910390f35b3480156102e557600080fd5b5061031c600480360381019080803560001916906020019092919080359060200190929190803590602001909291905050506111ed565b604051808215151515815260200191505060405180910390f35b34801561034257600080fd5b5061034b611328565b6040518082815260200191505060405180910390f35b34801561036d57600080fd5b506103d5600480360381019080803560ff169060200190929190803590602001908201803590602001908080601f0160208091040260200160405190810160405280939291908181526020018383808284378201915050505050509192919290505050611335565b604051808215151515815260200191505060405180910390f35b3480156103fb57600080fd5b5061041e600480360381019080803560001916906020019092919050505061141a565b604051808215151515815260200191505060405180910390f35b34801561044457600080fd5b506104676004803603810190808035600019169060200190929190505050611d91565b6040518080602001828103825283818151815260200191508051906020019060200280838360005b838110156104aa57808201518184015260208101905061048f565b505050509050019250505060405180910390f35b3480156104ca57600080fd5b506104d3611e30565b604051808273ffffffffffffffffffffffffffffffffffffffff1673ffffffffffffffffffffffffffffffffffffffff16815260200191505060405180910390f35b610539600480360381019080803563ffffffff169060200190929190505050611e55565b604051808215151515815260200191505060405180910390f35b34801561055f57600080fd5b506105b76004803603810190808035906020019082018035906020019080806020026020016040519081016040528093929190818152602001838360200280828437820191505050505050919291929050505061224f565b60405180806020018060200180602001806020018060200186810386528b818151815260200191508051906020019060200280838360005b8381101561060a5780820151818401526020810190506105ef565b5050505090500186810385528a818151815260200191508051906020019060200280838360005b8381101561064c578082015181840152602081019050610631565b50505050905001868103845289818151815260200191508051906020019060200280838360005b8381101561068e578082015181840152602081019050610673565b50505050905001868103835288818151815260200191508051906020019060200280838360005b838110156106d05780820151818401526020810190506106b5565b50505050905001868103825287818151815260200191508051906020019060200280838360005b838110156107125780820151818401526020810190506106f7565b505050509050019a505050505050505050505060405180910390f35b34801561073a57600080fd5b506107436126a9565b604051808273ffffffffffffffffffffffffffffffffffffffff1673ffffffffffffffffffffffffffffffffffffffff16815260200191505060405180910390f35b6108546004803603810190808035600019169060200190929190803590602001908201803590602001908080601f0160208091040260200160405190810160405280939291908181526020018383808284378201915050505050509192919290803590602001908201803590602001908080601f01602080910402602001604051908101604052809392919081815260200183838082843782019150505050505091929192908035906020019092919080359060200190929190803560000b90602001909291905050506126cf565b604051808215151515815260200191505060405180910390f35b34801561087a57600080fd5b506108af600480360381019080803573ffffffffffffffffffffffffffffffffffffffff169060200190929190505050612f4a565b6040518082815260200191505060405180910390f35b3480156108d157600080fd5b506108f6600480360381019080803563ffffffff169060200190929190505050612f93565b604051808973ffffffffffffffffffffffffffffffffffffffff1673ffffffffffffffffffffffffffffffffffffffff1681526020018860ff1660ff16815260200187815260200186815260200185815260200184600581111561095657fe5b60ff1681526020018060200180602001838103835285818151815260200191508051906020019060200280838360005b838110156109a1578082015181840152602081019050610986565b50505050905001838103825284818151815260200191508051906020019060200280838360005b838110156109e35780820151818401526020810190506109c8565b505050509050019a505050505050505050505060405180910390f35b348015610a0b57600080fd5b50610a2a6004803603810190808035906020019092919050505061333b565b604051808215151515815260200191505060405180910390f35b348015610a5057600080fd5b50610a85600480360381019080803573ffffffffffffffffffffffffffffffffffffffff16906020019092919050505061351a565b005b348015610a9357600080fd5b50610ac8600480360381019080803573ffffffffffffffffffffffffffffffffffffffff16906020019092919050505061366f565b604051808060200180602001838103835285818151815260200191508051906020019060200280838360005b83811015610b0f578082015181840152602081019050610af4565b50505050905001838103825284818151815260200191508051906020019060200280838360005b83811015610b51578082015181840152602081019050610b36565b5050505090500194505050505060405180910390f35b348015610b7357600080fd5b50610ba8600480360381019080803563ffffffff169060200190929190803563ffffffff1690602001909291905050506138e1565b604051808973ffffffffffffffffffffffffffffffffffffffff1673ffffffffffffffffffffffffffffffffffffffff1681526020018860ff1660ff168152602001878152602001868152602001858152602001846005811115610c0857fe5b60ff1681526020018373ffffffffffffffffffffffffffffffffffffffff1673ffffffffffffffffffffffffffffffffffffffff1681526020018281526020019850505050505050505060405180910390f35b6060600360008360ff1660ff1681526020019081526020016000208054600181600116156101000203166002900480601f016020809104026020016040519081016040528092919081815260200182805460018160011615610100020316600290048015610d0a5780601f10610cdf57610100808354040283529160200191610d0a565b820191906000526020600020905b815481529060010190602001808311610ced57829003601f168201915b50505050509050919050565b6000610d2061535a565b60008060076000876000191660001916815260200190815260200160002061012060405190810160405290816000820160009054906101000a900460ff1660ff1660ff1681526020016000820160019054906101000a900460ff1660ff1660ff1681526020016000820160029054906101000a900463ffffffff1663ffffffff1663ffffffff1681526020016000820160069054906101000a900465ffffffffffff1665ffffffffffff1665ffffffffffff16815260200160008201600c9054906101000a900460ff166004811115610df557fe5b6004811115610e0057fe5b815260200160008201600d9054906101000a900460ff16151515158152602001600182015460001916600019168152602001600282018054600181600116156101000203166002900480601f016020809104026020016040519081016040528092919081815260200182805460018160011615610100020316600290048015610eca5780601f10610e9f57610100808354040283529160200191610eca565b820191906000526020600020905b815481529060010190602001808311610ead57829003601f168201915b50505050508152602001600382018054600181600116156101000203166002900480601f016020809104026020016040519081016040528092919081815260200182805460018160011615610100020316600290048015610f6c5780601f10610f4157610100808354040283529160200191610f6c565b820191906000526020600020905b815481529060010190602001808311610f4f57829003601f168201915b5050505050815250509250600480811115610f8357fe5b83608001516004811115610f9357fe5b141515610f9f57600080fd5b600091505b845182101561111d57600c8583815181101515610fbd57fe5b9060200190602002015163ffffffff16815481101515610fd957fe5b90600052602060002090600502019050856000191681600101546000191614156111105761110e838260e060405190810160405290816000820160009054906101000a900460ff1660ff1660ff1681526020016000820160019054906101000a900460000b60000b60000b81526020016000820160029054906101000a900460ff16600581111561106657fe5b600581111561107157fe5b81526020016001820154600019166000191681526020016002820160009054906101000a900473ffffffffffffffffffffffffffffffffffffffff1673ffffffffffffffffffffffffffffffffffffffff1673ffffffffffffffffffffffffffffffffffffffff1681526020016003820154815260200160048201548152505087858151811015156110ff57fe5b90602001906020020151613ac4565b505b8180600101925050610fa4565b6001935050505092915050565b6060600560008373ffffffffffffffffffffffffffffffffffffffff1673ffffffffffffffffffffffffffffffffffffffff1681526020019081526020016000208054806020026020016040519081016040528092919081815260200182805480156111e157602002820191906000526020600020906000905b82829054906101000a900463ffffffff1663ffffffff16815260200190600401906020826003010492830192600103820291508084116111a45790505b50505050509050919050565b6000806000809054906101000a900473ffffffffffffffffffffffffffffffffffffffff1673ffffffffffffffffffffffffffffffffffffffff163373ffffffffffffffffffffffffffffffffffffffff1614806112945750600a60003373ffffffffffffffffffffffffffffffffffffffff1673ffffffffffffffffffffffffffffffffffffffff16815260200190815260200160002060009054906101000a900460ff165b151561129f57600080fd5b6007600086600019166000191681526020019081526020016000209050838160000160006101000a81548160ff021916908360ff160217905550828160000160016101000a81548160ff021916908360ff160217905550600481600001600c6101000a81548160ff0219169083600481111561131757fe5b021790555060019150509392505050565b6000600b80549050905090565b60008060009054906101000a900473ffffffffffffffffffffffffffffffffffffffff1673ffffffffffffffffffffffffffffffffffffffff163373ffffffffffffffffffffffffffffffffffffffff1614806113db5750600a60003373ffffffffffffffffffffffffffffffffffffffff1673ffffffffffffffffffffffffffffffffffffffff16815260200190815260200160002060009054906101000a900460ff165b15156113e657600080fd5b81600360008560ff1660ff16815260200190815260200160002090805190602001906114139291906153cb565b5092915050565b60008060606000806000809054906101000a900473ffffffffffffffffffffffffffffffffffffffff1673ffffffffffffffffffffffffffffffffffffffff163373ffffffffffffffffffffffffffffffffffffffff1614806114c65750600a60003373ffffffffffffffffffffffffffffffffffffffff1673ffffffffffffffffffffffffffffffffffffffff16815260200190815260200160002060009054906101000a900460ff165b15156114d157600080fd5b600760008760001916600019168152602001908152602001600020600001600d9054906101000a900460ff1615151561150957600080fd5b6007600087600019166000191681526020019081526020016000209350600184600001600d6101000a81548160ff0219169083151502179055506008600087600019166000191681526020019081526020016000208054806020026020016040519081016040528092919081815260200182805480156115d457602002820191906000526020600020906000905b82829054906101000a900463ffffffff1663ffffffff16815260200190600401906020826003010492830192600103820291508084116115975790505b50505050509250600091505b8251821015611b4357600c83838151811015156115f957fe5b9060200190602002015163ffffffff1681548110151561161557fe5b906000526020600020906005020190506001600581111561163257fe5b8160000160029054906101000a900460ff16600581111561164f57fe5b148061168257506002600581111561166357fe5b8160000160029054906101000a900460ff16600581111561168057fe5b145b156119e5576119b98461012060405190810160405290816000820160009054906101000a900460ff1660ff1660ff1681526020016000820160019054906101000a900460ff1660ff1660ff1681526020016000820160029054906101000a900463ffffffff1663ffffffff1663ffffffff1681526020016000820160069054906101000a900465ffffffffffff1665ffffffffffff1665ffffffffffff16815260200160008201600c9054906101000a900460ff16600481111561174257fe5b600481111561174d57fe5b815260200160008201600d9054906101000a900460ff16151515158152602001600182015460001916600019168152602001600282018054600181600116156101000203166002900480601f0160208091040260200160405190810160405280929190818152602001828054600181600116156101000203166002900480156118175780601f106117ec57610100808354040283529160200191611817565b820191906000526020600020905b8154815290600101906020018083116117fa57829003601f168201915b50505050508152602001600382018054600181600116156101000203166002900480601f0160208091040260200160405190810160405280929190818152602001828054600181600116156101000203166002900480156118b95780601f1061188e576101008083540402835291602001916118b9565b820191906000526020600020905b81548152906001019060200180831161189c57829003601f168201915b5050505050815250508260e060405190810160405290816000820160009054906101000a900460ff1660ff1660ff1681526020016000820160019054906101000a900460000b60000b60000b81526020016000820160029054906101000a900460ff16600581111561192757fe5b600581111561193257fe5b81526020016001820154600019166000191681526020016002820160009054906101000a900473ffffffffffffffffffffffffffffffffffffffff1673ffffffffffffffffffffffffffffffffffffffff1673ffffffffffffffffffffffffffffffffffffffff168152602001600382015481526020016004820154815250506000613ac4565b5060058160000160026101000a81548160ff021916908360058111156119db57fe5b0217905550611b36565b600060058111156119f257fe5b8160000160029054906101000a900460ff166005811115611a0f57fe5b1415611b3557611b0d8160e060405190810160405290816000820160009054906101000a900460ff1660ff1660ff1681526020016000820160019054906101000a900460000b60000b60000b81526020016000820160029054906101000a900460ff166005811115611a7d57fe5b6005811115611a8857fe5b81526020016001820154600019166000191681526020016002820160009054906101000a900473ffffffffffffffffffffffffffffffffffffffff1673ffffffffffffffffffffffffffffffffffffffff1673ffffffffffffffffffffffffffffffffffffffff16815260200160038201548152602001600482015481525050613cfc565b5060048160000160026101000a81548160ff02191690836005811115611b2f57fe5b02179055505b5b81806001019250506115e0565b611d838461012060405190810160405290816000820160009054906101000a900460ff1660ff1660ff1681526020016000820160019054906101000a900460ff1660ff1660ff1681526020016000820160029054906101000a900463ffffffff1663ffffffff1663ffffffff1681526020016000820160069054906101000a900465ffffffffffff1665ffffffffffff1665ffffffffffff16815260200160008201600c9054906101000a900460ff166004811115611bfe57fe5b6004811115611c0957fe5b815260200160008201600d9054906101000a900460ff16151515158152602001600182015460001916600019168152602001600282018054600181600116156101000203166002900480601f016020809104026020016040519081016040528092919081815260200182805460018160011615610100020316600290048015611cd35780601f10611ca857610100808354040283529160200191611cd3565b820191906000526020600020905b815481529060010190602001808311611cb657829003601f168201915b50505050508152602001600382018054600181600116156101000203166002900480601f016020809104026020016040519081016040528092919081815260200182805460018160011615610100020316600290048015611d755780601f10611d4a57610100808354040283529160200191611d75565b820191906000526020600020905b815481529060010190602001808311611d5857829003601f168201915b505050505081525050613dce565b506001945050505050919050565b6060600860008360001916600019168152602001908152602001600020805480602002602001604051908101604052809291908181526020018280548015611e2457602002820191906000526020600020906000905b82829054906101000a900463ffffffff1663ffffffff1681526020019060040190602082600301049283019260010382029150808411611de75790505b50505050509050919050565b6000809054906101000a900473ffffffffffffffffffffffffffffffffffffffff1681565b6000806000600c8463ffffffff16815481101515611e6f57fe5b906000526020600020906005020191503373ffffffffffffffffffffffffffffffffffffffff168260020160009054906101000a900473ffffffffffffffffffffffffffffffffffffffff1673ffffffffffffffffffffffffffffffffffffffff1614151515611ede57600080fd5b60026005811115611eeb57fe5b8260000160029054906101000a900460ff166005811115611f0857fe5b14151515611f1557600080fd5b34826004015483600301540310151515611f2e57600080fd5b611f3733613ea9565b15611fa357600b3390806001815401808255809150509060018203906000526020600020016000909192909190916101000a81548173ffffffffffffffffffffffffffffffffffffffff021916908373ffffffffffffffffffffffffffffffffffffffff160217905550505b348260040160008282540192505081905550816003015482600401541415611ff05760028260000160026101000a81548160ff02191690836005811115611fe657fe5b0217905550612017565b60018260000160026101000a81548160ff0219169083600581111561201157fe5b02179055505b6001600d6060604051908101604052808763ffffffff1681526020013373ffffffffffffffffffffffffffffffffffffffff168152602001348152509080600181540180825580915050906001820390600052602060002090600202016000909192909190915060008201518160000160006101000a81548163ffffffff021916908363ffffffff16021790555060208201518160000160046101000a81548173ffffffffffffffffffffffffffffffffffffffff021916908373ffffffffffffffffffffffffffffffffffffffff160217905550604082015181600101555050039050600660003373ffffffffffffffffffffffffffffffffffffffff1673ffffffffffffffffffffffffffffffffffffffff16815260200190815260200160002081908060018154018082558091505090600182039060005260206000209060089182820401919006600402909192909190916101000a81548163ffffffff021916908363ffffffff16021790555050600960008563ffffffff1663ffffffff16815260200190815260200160002081908060018154018082558091505090600182039060005260206000209060089182820401919006600402909192909190916101000a81548163ffffffff021916908363ffffffff1602179055505034600260003373ffffffffffffffffffffffffffffffffffffffff1673ffffffffffffffffffffffffffffffffffffffff16815260200190815260200160002060008282540192505081905550600192505050919050565b606080606080606080606080606080606060008061226b61544b565b8e5160405190808252806020026020018201604052801561229b5781602001602082028038833980820191505090505b5097508e516040519080825280602002602001820160405280156122ce5781602001602082028038833980820191505090505b5096508e516040519080825280602002602001820160405280156123015781602001602082028038833980820191505090505b5095508e516040519080825280602002602001820160405280156123345781602001602082028038833980820191505090505b5094508e516040519080825280602002602001820160405280156123675781602001602082028038833980820191505090505b509350600092505b8e51831015612688576123988f8481518110151561238957fe5b90602001906020020151611d91565b9850600091505b885182101561267b57600c89838151811015156123b857fe5b9060200190602002015163ffffffff168154811015156123d457fe5b906000526020600020906005020160e060405190810160405290816000820160009054906101000a900460ff1660ff1660ff1681526020016000820160019054906101000a900460000b60000b60000b81526020016000820160029054906101000a900460ff16600581111561244657fe5b600581111561245157fe5b81526020016001820154600019166000191681526020016002820160009054906101000a900473ffffffffffffffffffffffffffffffffffffffff1673ffffffffffffffffffffffffffffffffffffffff1673ffffffffffffffffffffffffffffffffffffffff168152602001600382015481526020016004820154815250509050600060058111156124e057fe5b816040015160058111156124f057fe5b141561251e57878381518110151561250457fe5b90602001906020020180518091906001018152505061266e565b6003600581111561252b57fe5b8160400151600581111561253b57fe5b141561256957858381518110151561254f57fe5b90602001906020020180518091906001018152505061266d565b6002600581111561257657fe5b8160400151600581111561258657fe5b14806125ab575060058081111561259957fe5b816040015160058111156125a957fe5b145b156125d85786838151811015156125be57fe5b90602001906020020180518091906001018152505061266c565b600160058111156125e557fe5b816040015160058111156125f557fe5b141561262357848381518110151561260957fe5b90602001906020020180518091906001018152505061266b565b6004600581111561263057fe5b8160400151600581111561264057fe5b141561266a57838381518110151561265457fe5b9060200190602002018051809190600101815250505b5b5b5b5b818060010192505061239f565b828060010193505061236f565b87858888879d509d509d509d509d5050505050505050505091939590929450565b600160009054906101000a900473ffffffffffffffffffffffffffffffffffffffff1681565b60006126d961535a565b6126e161544b565b600042861115156126f157600080fd5b600060198660000b81151561270257fe5b0760000b1480156127265750600860198660000b81151561271f57fe5b0560000b13155b801561276457507ffffffffffffffffffffffffffffffffffffffffffffffffffffffffffffffff860198660000b81151561275d57fe5b0560000b12155b151561276f57600080fd5b600760008b6000191660001916815260200190815260200160002061012060405190810160405290816000820160009054906101000a900460ff1660ff1660ff1681526020016000820160019054906101000a900460ff1660ff1660ff1681526020016000820160029054906101000a900463ffffffff1663ffffffff1663ffffffff1681526020016000820160069054906101000a900465ffffffffffff1665ffffffffffff1665ffffffffffff16815260200160008201600c9054906101000a900460ff16600481111561284157fe5b600481111561284c57fe5b815260200160008201600d9054906101000a900460ff16151515158152602001600182015460001916600019168152602001600282018054600181600116156101000203166002900480601f0160208091040260200160405190810160405280929190818152602001828054600181600116156101000203166002900480156129165780601f106128eb57610100808354040283529160200191612916565b820191906000526020600020905b8154815290600101906020018083116128f957829003601f168201915b50505050508152602001600382018054600181600116156101000203166002900480601f0160208091040260200160405190810160405280929190818152602001828054600181600116156101000203166002900480156129b85780601f1061298d576101008083540402835291602001916129b8565b820191906000526020600020905b81548152906001019060200180831161299b57829003601f168201915b5050505050815250509250600060048111156129d057fe5b836080015160048111156129e057fe5b1415612bcb57888360e001819052508783610100018190525085836060019065ffffffffffff16908165ffffffffffff1681525050600183608001906004811115612a2757fe5b90816004811115612a3457fe5b815250506001600f8b9080600181540180825580915050906001820390600052602060002001600090919290919091509060001916905503836040019063ffffffff16908163ffffffff168152505082600760008c6000191660001916815260200190815260200160002060008201518160000160006101000a81548160ff021916908360ff16021790555060208201518160000160016101000a81548160ff021916908360ff16021790555060408201518160000160026101000a81548163ffffffff021916908363ffffffff16021790555060608201518160000160066101000a81548165ffffffffffff021916908365ffffffffffff160217905550608082015181600001600c6101000a81548160ff02191690836004811115612b5757fe5b021790555060a082015181600001600d6101000a81548160ff02191690831515021790555060c0820151816001019060001916905560e0820151816002019080519060200190612ba89291906154b2565b50610100820151816003019080519060200190612bc69291906154b2565b509050505b60e0604051908101604052808860ff1681526020018660000b815260200160006005811115612bf657fe5b81526020018b6000191681526020013373ffffffffffffffffffffffffffffffffffffffff168152602001348152602001600081525091506001600c839080600181540180825580915050906001820390600052602060002090600502016000909192909190915060008201518160000160006101000a81548160ff021916908360ff16021790555060208201518160000160016101000a81548160ff021916908360000b60ff16021790555060408201518160000160026101000a81548160ff02191690836005811115612cc757fe5b02179055506060820151816001019060001916905560808201518160020160006101000a81548173ffffffffffffffffffffffffffffffffffffffff021916908373ffffffffffffffffffffffffffffffffffffffff16021790555060a0820151816003015560c082015181600401555050039050600560003373ffffffffffffffffffffffffffffffffffffffff1673ffffffffffffffffffffffffffffffffffffffff16815260200190815260200160002081908060018154018082558091505090600182039060005260206000209060089182820401919006600402909192909190916101000a81548163ffffffff021916908363ffffffff16021790555050600860008b6000191660001916815260200190815260200160002081908060018154018082558091505090600182039060005260206000209060089182820401919006600402909192909190916101000a81548163ffffffff021916908363ffffffff16021790555050612e3d33613ea9565b15612ea957600b3390806001815401808255809150509060018203906000526020600020016000909192909190916101000a81548173ffffffffffffffffffffffffffffffffffffffff021916908373ffffffffffffffffffffffffffffffffffffffff160217905550505b7ff5812625738c86053c8bcc576936f4ef4cb35b67102fb0b1637b5edff4af2db081604051808263ffffffff1663ffffffff16815260200191505060405180910390a134600260003373ffffffffffffffffffffffffffffffffffffffff1673ffffffffffffffffffffffffffffffffffffffff16815260200190815260200160002060008282540192505081905550600193505050509695505050505050565b6000600260008373ffffffffffffffffffffffffffffffffffffffff1673ffffffffffffffffffffffffffffffffffffffff168152602001908152602001600020549050919050565b600080600080600080606080612fa761544b565b6060806000600c8d63ffffffff16815481101515612fc157fe5b906000526020600020906005020160e060405190810160405290816000820160009054906101000a900460ff1660ff1660ff1681526020016000820160019054906101000a900460000b60000b60000b81526020016000820160029054906101000a900460ff16600581111561303357fe5b600581111561303e57fe5b81526020016001820154600019166000191681526020016002820160009054906101000a900473ffffffffffffffffffffffffffffffffffffffff1673ffffffffffffffffffffffffffffffffffffffff1673ffffffffffffffffffffffffffffffffffffffff168152602001600382015481526020016004820154815250509350600960008e63ffffffff1663ffffffff168152602001908152602001600020805490506040519080825280602002602001820160405280156131115781602001602082028038833980820191505090505b50925082516040519080825280602002602001820160405280156131445781602001602082028038833980820191505090505b509150600090505b82518163ffffffff1610156132f657600d600960008f63ffffffff1663ffffffff1681526020019081526020016000208263ffffffff1681548110151561318f57fe5b90600052602060002090600891828204019190066004029054906101000a900463ffffffff1663ffffffff168154811015156131c757fe5b906000526020600020906002020160000160049054906101000a900473ffffffffffffffffffffffffffffffffffffffff16838263ffffffff1681518110151561320d57fe5b9060200190602002019073ffffffffffffffffffffffffffffffffffffffff16908173ffffffffffffffffffffffffffffffffffffffff1681525050600d600960008f63ffffffff1663ffffffff1681526020019081526020016000208263ffffffff1681548110151561327d57fe5b90600052602060002090600891828204019190066004029054906101000a900463ffffffff1663ffffffff168154811015156132b557fe5b906000526020600020906002020160010154828263ffffffff168151811015156132db57fe5b9060200190602002018181525050808060010191505061314c565b8360800151846000015185602001518660a001518760c00151886040015188888560000b95509b509b509b509b509b509b509b509b5050505050919395975091939597565b600080600c8381548110151561334d57fe5b906000526020600020906005020190503373ffffffffffffffffffffffffffffffffffffffff168160020160009054906101000a900473ffffffffffffffffffffffffffffffffffffffff1673ffffffffffffffffffffffffffffffffffffffff161415156133bb57600080fd5b600060058111156133c857fe5b8160000160029054906101000a900460ff1660058111156133e557fe5b1415156133f157600080fd5b6134e98160e060405190810160405290816000820160009054906101000a900460ff1660ff1660ff1681526020016000820160019054906101000a900460000b60000b60000b81526020016000820160029054906101000a900460ff16600581111561345957fe5b600581111561346457fe5b81526020016001820154600019166000191681526020016002820160009054906101000a900473ffffffffffffffffffffffffffffffffffffffff1673ffffffffffffffffffffffffffffffffffffffff1673ffffffffffffffffffffffffffffffffffffffff16815260200160038201548152602001600482015481525050613cfc565b5060038160000160026101000a81548160ff0219169083600581111561350b57fe5b02179055506001915050919050565b6000809054906101000a900473ffffffffffffffffffffffffffffffffffffffff1673ffffffffffffffffffffffffffffffffffffffff163373ffffffffffffffffffffffffffffffffffffffff1614151561357557600080fd5b600073ffffffffffffffffffffffffffffffffffffffff168173ffffffffffffffffffffffffffffffffffffffff16141515156135b157600080fd5b8073ffffffffffffffffffffffffffffffffffffffff166000809054906101000a900473ffffffffffffffffffffffffffffffffffffffff1673ffffffffffffffffffffffffffffffffffffffff167f8be0079c531659141344cd1fd0a4f28419497f9722a3daafe3b4186f6b6457e060405160405180910390a3806000806101000a81548173ffffffffffffffffffffffffffffffffffffffff021916908373ffffffffffffffffffffffffffffffffffffffff16021790555050565b60608060606000600660008673ffffffffffffffffffffffffffffffffffffffff1673ffffffffffffffffffffffffffffffffffffffff168152602001908152602001600020805490506040519080825280602002602001820160405280156136e75781602001602082028038833980820191505090505b509150600090505b600660008673ffffffffffffffffffffffffffffffffffffffff1673ffffffffffffffffffffffffffffffffffffffff1681526020019081526020016000208054905081101561381857600d600660008773ffffffffffffffffffffffffffffffffffffffff1673ffffffffffffffffffffffffffffffffffffffff1681526020019081526020016000208281548110151561378757fe5b90600052602060002090600891828204019190066004029054906101000a900463ffffffff1663ffffffff168154811015156137bf57fe5b906000526020600020906002020160000160009054906101000a900463ffffffff1682828151811015156137ef57fe5b9060200190602002019063ffffffff16908163ffffffff168152505080806001019150506136ef565b81600660008773ffffffffffffffffffffffffffffffffffffffff1673ffffffffffffffffffffffffffffffffffffffff168152602001908152602001600020808054806020026020016040519081016040528092919081815260200182805480156138cf57602002820191906000526020600020906000905b82829054906101000a900463ffffffff1663ffffffff16815260200190600401906020826003010492830192600103820291508084116138925790505b50505050509050935093505050915091565b6000806000806000806000806138f561544b565b600080600c8d63ffffffff1681548110151561390d57fe5b906000526020600020906005020160e060405190810160405290816000820160009054906101000a900460ff1660ff1660ff1681526020016000820160019054906101000a900460000b60000b60000b81526020016000820160029054906101000a900460ff16600581111561397f57fe5b600581111561398a57fe5b81526020016001820154600019166000191681526020016002820160009054906101000a900473ffffffffffffffffffffffffffffffffffffffff1673ffffffffffffffffffffffffffffffffffffffff1673ffffffffffffffffffffffffffffffffffffffff168152602001600382015481526020016004820154815250509250600d8c63ffffffff16815481101515613a2157fe5b906000526020600020906002020160000160049054906101000a900473ffffffffffffffffffffffffffffffffffffffff169150600d8c63ffffffff16815481101515613a6a57fe5b90600052602060002090600202016001015490508260800151836000015184602001518560a001518660c00151876040015187878560000b95509a509a509a509a509a509a509a509a505050509295985092959890939650565b600060606000613ad2615532565b613add878787613f47565b9250600091505b8251821015613b5c578282815181101515613afb57fe5b90602001906020020151905060008160200151118015613b3657506000816000015173ffffffffffffffffffffffffffffffffffffffff1614155b15613b4f57613b4d81600001518260200151615263565b505b8180600101925050613ae4565b8560a0015160026000886080015173ffffffffffffffffffffffffffffffffffffffff1673ffffffffffffffffffffffffffffffffffffffff168152602001908152602001600020540360026000886080015173ffffffffffffffffffffffffffffffffffffffff1673ffffffffffffffffffffffffffffffffffffffff168152602001908152602001600020819055506064605f8760c0015102811515613c0057fe5b048660c001510360026000600160009054906101000a900473ffffffffffffffffffffffffffffffffffffffff1673ffffffffffffffffffffffffffffffffffffffff1673ffffffffffffffffffffffffffffffffffffffff168152602001908152602001600020540160026000600160009054906101000a900473ffffffffffffffffffffffffffffffffffffffff1673ffffffffffffffffffffffffffffffffffffffff1673ffffffffffffffffffffffffffffffffffffffff16815260200190815260200160002081905550600586604001906005811115613ce157fe5b90816005811115613cee57fe5b815250505050509392505050565b6000613d1082608001518360a00151615263565b50600482604001906005811115613d2357fe5b90816005811115613d3057fe5b815250508160a0015160026000846080015173ffffffffffffffffffffffffffffffffffffffff1673ffffffffffffffffffffffffffffffffffffffff168152602001908152602001600020540360026000846080015173ffffffffffffffffffffffffffffffffffffffff1673ffffffffffffffffffffffffffffffffffffffff1681526020019081526020016000208190555060019050919050565b6000806000836040015191506001600f80549050039050600f8163ffffffff16815481101515613dfa57fe5b9060005260206000200154600f8363ffffffff16815481101515613e1a57fe5b9060005260206000200181600019169055508160076000600f8563ffffffff16815481101515613e4657fe5b90600052602060002001546000191660001916815260200190815260200160002060000160026101000a81548163ffffffff021916908363ffffffff160217905550600f805480919060019003613e9d9190615562565b50600192505050919050565b600080600560008473ffffffffffffffffffffffffffffffffffffffff1673ffffffffffffffffffffffffffffffffffffffff1681526020019081526020016000208054905011158015613f4057506000600660008473ffffffffffffffffffffffffffffffffffffffff1673ffffffffffffffffffffffffffffffffffffffff1681526020019081526020016000208054905011155b9050919050565b6060600060606000806001811115613f5b57fe5b60ff16866000015160ff161415613f9457613f8d876020015160ff16886000015160ff1603876020015160000b6152d2565b9250613fb8565b613fb5876000015160ff16886020015160ff1603876020015160000b6152d2565b92505b6001600960008763ffffffff1663ffffffff168152602001908152602001600020805490500160405190808252806020026020018201604052801561401757816020015b61400461558e565b815260200190600190039081613ffc5790505b5091506000600481111561402757fe5b83600481111561403357fe5b1415614239576040805190810160405280876080015173ffffffffffffffffffffffffffffffffffffffff1681526020016064605f8960c001510281151561407757fe5b048860a001510181525082600081518110151561409057fe5b90602001906020020181905250600090505b600960008663ffffffff1663ffffffff1681526020019081526020016000208054905081101561423457600d600960008763ffffffff1663ffffffff168152602001908152602001600020828154811015156140fa57fe5b90600052602060002090600891828204019190066004029054906101000a900463ffffffff1663ffffffff1681548110151561413257fe5b90600052602060002090600202016001015460026000600d600960008a63ffffffff1663ffffffff1681526020019081526020016000208581548110151561417657fe5b90600052602060002090600891828204019190066004029054906101000a900463ffffffff1663ffffffff168154811015156141ae57fe5b906000526020600020906002020160000160049054906101000a900473ffffffffffffffffffffffffffffffffffffffff1673ffffffffffffffffffffffffffffffffffffffff1673ffffffffffffffffffffffffffffffffffffffff1681526020019081526020016000206000828254039250508190555080806001019150506140a2565b615256565b6001600481111561424657fe5b83600481111561425257fe5b1415614655576040805190810160405280876080015173ffffffffffffffffffffffffffffffffffffffff1681526020016002606460058a60c001510281151561429857fe5b048115156142a257fe5b048860c00151038860a00151018152508260008151811015156142c157fe5b90602001906020020181905250600090505b600960008663ffffffff1663ffffffff16815260200190815260200160002080549050811015614650576040805190810160405280600d600960008963ffffffff1663ffffffff1681526020019081526020016000208481548110151561433657fe5b90600052602060002090600891828204019190066004029054906101000a900463ffffffff1663ffffffff1681548110151561436e57fe5b906000526020600020906002020160000160049054906101000a900473ffffffffffffffffffffffffffffffffffffffff1673ffffffffffffffffffffffffffffffffffffffff168152602001600260646005600d600960008c63ffffffff1663ffffffff168152602001908152602001600020878154811015156143ef57fe5b90600052602060002090600891828204019190066004029054906101000a900463ffffffff1663ffffffff1681548110151561442757fe5b9060005260206000209060020201600101540281151561444357fe5b0481151561444d57fe5b04600d600960008a63ffffffff1663ffffffff1681526020019081526020016000208581548110151561447c57fe5b90600052602060002090600891828204019190066004029054906101000a900463ffffffff1663ffffffff168154811015156144b457fe5b9060005260206000209060020201600101540381525082600183018151811015156144db57fe5b90602001906020020181905250600d600960008763ffffffff1663ffffffff1681526020019081526020016000208281548110151561451657fe5b90600052602060002090600891828204019190066004029054906101000a900463ffffffff1663ffffffff1681548110151561454e57fe5b90600052602060002090600202016001015460026000600d600960008a63ffffffff1663ffffffff1681526020019081526020016000208581548110151561459257fe5b90600052602060002090600891828204019190066004029054906101000a900463ffffffff1663ffffffff168154811015156145ca57fe5b906000526020600020906002020160000160049054906101000a900473ffffffffffffffffffffffffffffffffffffffff1673ffffffffffffffffffffffffffffffffffffffff1673ffffffffffffffffffffffffffffffffffffffff1681526020019081526020016000206000828254039250508190555080806001019150506142d3565b615255565b6002600481111561466257fe5b83600481111561466e57fe5b1415614a71576040805190810160405280876080015173ffffffffffffffffffffffffffffffffffffffff16815260200160026064605f8a60c00151028115156146b457fe5b048115156146be57fe5b048860c00151018860a00151018152508260008151811015156146dd57fe5b90602001906020020181905250600090505b600960008663ffffffff1663ffffffff16815260200190815260200160002080549050811015614a6c576040805190810160405280600d600960008963ffffffff1663ffffffff1681526020019081526020016000208481548110151561475257fe5b90600052602060002090600891828204019190066004029054906101000a900463ffffffff1663ffffffff1681548110151561478a57fe5b906000526020600020906002020160000160049054906101000a900473ffffffffffffffffffffffffffffffffffffffff1673ffffffffffffffffffffffffffffffffffffffff16815260200160026064605f600d600960008c63ffffffff1663ffffffff1681526020019081526020016000208781548110151561480b57fe5b90600052602060002090600891828204019190066004029054906101000a900463ffffffff1663ffffffff1681548110151561484357fe5b9060005260206000209060020201600101540281151561485f57fe5b0481151561486957fe5b04600d600960008a63ffffffff1663ffffffff1681526020019081526020016000208581548110151561489857fe5b90600052602060002090600891828204019190066004029054906101000a900463ffffffff1663ffffffff168154811015156148d057fe5b9060005260206000209060020201600101540381525082600183018151811015156148f757fe5b90602001906020020181905250600d600960008763ffffffff1663ffffffff1681526020019081526020016000208281548110151561493257fe5b90600052602060002090600891828204019190066004029054906101000a900463ffffffff1663ffffffff1681548110151561496a57fe5b90600052602060002090600202016001015460026000600d600960008a63ffffffff1663ffffffff168152602001908152602001600020858154811015156149ae57fe5b90600052602060002090600891828204019190066004029054906101000a900463ffffffff1663ffffffff168154811015156149e657fe5b906000526020600020906002020160000160049054906101000a900473ffffffffffffffffffffffffffffffffffffffff1673ffffffffffffffffffffffffffffffffffffffff1673ffffffffffffffffffffffffffffffffffffffff1681526020019081526020016000206000828254039250508190555080806001019150506146ef565b615254565b60036004811115614a7e57fe5b836004811115614a8a57fe5b1415614e87576040805190810160405280876080015173ffffffffffffffffffffffffffffffffffffffff16815260200160026064605f8a60c0015102811515614ad057fe5b04811515614ada57fe5b048860a0015101815250826000815181101515614af357fe5b90602001906020020181905250600090505b600960008663ffffffff1663ffffffff16815260200190815260200160002080549050811015614e82576040805190810160405280600d600960008963ffffffff1663ffffffff16815260200190815260200160002084815481101515614b6857fe5b90600052602060002090600891828204019190066004029054906101000a900463ffffffff1663ffffffff16815481101515614ba057fe5b906000526020600020906002020160000160049054906101000a900473ffffffffffffffffffffffffffffffffffffffff1673ffffffffffffffffffffffffffffffffffffffff16815260200160026064605f600d600960008c63ffffffff1663ffffffff16815260200190815260200160002087815481101515614c2157fe5b90600052602060002090600891828204019190066004029054906101000a900463ffffffff1663ffffffff16815481101515614c5957fe5b90600052602060002090600202016001015402811515614c7557fe5b04811515614c7f57fe5b04600d600960008a63ffffffff1663ffffffff16815260200190815260200160002085815481101515614cae57fe5b90600052602060002090600891828204019190066004029054906101000a900463ffffffff1663ffffffff16815481101515614ce657fe5b906000526020600020906002020160010154018152508260018301815181101515614d0d57fe5b90602001906020020181905250600d600960008763ffffffff1663ffffffff16815260200190815260200160002082815481101515614d4857fe5b90600052602060002090600891828204019190066004029054906101000a900463ffffffff1663ffffffff16815481101515614d8057fe5b90600052602060002090600202016001015460026000600d600960008a63ffffffff1663ffffffff16815260200190815260200160002085815481101515614dc457fe5b90600052602060002090600891828204019190066004029054906101000a900463ffffffff1663ffffffff16815481101515614dfc57fe5b906000526020600020906002020160000160049054906101000a900473ffffffffffffffffffffffffffffffffffffffff1673ffffffffffffffffffffffffffffffffffffffff1673ffffffffffffffffffffffffffffffffffffffff168152602001908152602001600020600082825403925050819055508080600101915050614b05565b615253565b6040805190810160405280876080015173ffffffffffffffffffffffffffffffffffffffff1681526020018760c001518860a0015103815250826000815181101515614ecf57fe5b90602001906020020181905250600090505b600960008663ffffffff1663ffffffff16815260200190815260200160002080549050811015615252576040805190810160405280600d600960008963ffffffff1663ffffffff16815260200190815260200160002084815481101515614f4457fe5b90600052602060002090600891828204019190066004029054906101000a900463ffffffff1663ffffffff16815481101515614f7c57fe5b906000526020600020906002020160000160049054906101000a900473ffffffffffffffffffffffffffffffffffffffff1673ffffffffffffffffffffffffffffffffffffffff1681526020016064605f600d600960008b63ffffffff1663ffffffff16815260200190815260200160002086815481101515614ffb57fe5b90600052602060002090600891828204019190066004029054906101000a900463ffffffff1663ffffffff1681548110151561503357fe5b9060005260206000209060020201600101540281151561504f57fe5b04600d600960008a63ffffffff1663ffffffff1681526020019081526020016000208581548110151561507e57fe5b90600052602060002090600891828204019190066004029054906101000a900463ffffffff1663ffffffff168154811015156150b657fe5b9060005260206000209060020201600101540181525082600183018151811015156150dd57fe5b90602001906020020181905250600d600960008763ffffffff1663ffffffff1681526020019081526020016000208281548110151561511857fe5b90600052602060002090600891828204019190066004029054906101000a900463ffffffff1663ffffffff1681548110151561515057fe5b90600052602060002090600202016001015460026000600d600960008a63ffffffff1663ffffffff1681526020019081526020016000208581548110151561519457fe5b90600052602060002090600891828204019190066004029054906101000a900463ffffffff1663ffffffff168154811015156151cc57fe5b906000526020600020906002020160000160049054906101000a900473ffffffffffffffffffffffffffffffffffffffff1673ffffffffffffffffffffffffffffffffffffffff1673ffffffffffffffffffffffffffffffffffffffff168152602001908152602001600020600082825403925050819055508080600101915050614ee1565b5b5b5b5b8193505050509392505050565b6000808373ffffffffffffffffffffffffffffffffffffffff161415156152cc578273ffffffffffffffffffffffffffffffffffffffff166108fc839081150290604051600060405180830381858888f193505050501580156152ca573d6000803e3d6000fd5b505b92915050565b6000601960648402830114156152eb5760029050615354565b7fffffffffffffffffffffffffffffffffffffffffffffffffffffffffffffffe760648402830114156153215760039050615354565b600060648402830114156153385760019050615354565b6019606484028301131561534f5760009050615354565b600490505b92915050565b61012060405190810160405280600060ff168152602001600060ff168152602001600063ffffffff168152602001600065ffffffffffff168152602001600060048111156153a457fe5b81526020016000151581526020016000801916815260200160608152602001606081525090565b828054600181600116156101000203166002900490600052602060002090601f016020900481019282601f1061540c57805160ff191683800117855561543a565b8280016001018555821561543a579182015b8281111561543957825182559160200191906001019061541e565b5b50905061544791906155be565b5090565b60e060405190810160405280600060ff1681526020016000800b81526020016000600581111561547757fe5b815260200160008019168152602001600073ffffffffffffffffffffffffffffffffffffffff16815260200160008152602001600081525090565b828054600181600116156101000203166002900490600052602060002090601f016020900481019282601f106154f357805160ff1916838001178555615521565b82800160010185558215615521579182015b82811115615520578251825591602001919060010190615505565b5b50905061552e91906155be565b5090565b6040805190810160405280600073ffffffffffffffffffffffffffffffffffffffff168152602001600081525090565b8154818355818111156155895781836000526020600020918201910161558891906155e3565b5b505050565b6040805190810160405280600073ffffffffffffffffffffffffffffffffffffffff168152602001600081525090565b6155e091905b808211156155dc5760008160009055506001016155c4565b5090565b90565b61560591905b808211156156015760008160009055506001016155e9565b5090565b905600a165627a7a72305820a0e0094c8771495ba1e737558534fb218f44f80658fbae73849e473def4b05540029",
  "source": "pragma solidity ^0.4.21;\n\nimport \"./Ownable.sol\";\ncontract BetherContract is Ownable {\n\n\n  function BetherContract(){\n\n  }\n\n  event LogNewBetting(uint32 bettingIdx);\n\n  enum Team {Home, Away}\n  enum MatchStatus {NotAvailable, Waiting, Playing, Canceled, Finished}\n  enum BetStatus {Open, Deal, Settled, Canceled, Refunded, Done}\n  enum BookmakerResult {Win, Draw, WinAHalf, LoseAHalf, Lose}\n\n  address public feeOwner;\n  mapping(address => uint256) balances;\n  mapping(uint8 => string) leagues;\n  mapping(bytes32 => address) betContracts;\n  mapping(address => uint32[]) userBets;\n  mapping(address => uint32[]) userSettled;\n  mapping(bytes32 => Match) matches;\n  mapping(bytes32 => uint32[]) matchBets;\n  mapping(uint32 => uint32[]) betSettled;\n  mapping(address => bool) admins;\n\n\n  address[] players;\n  Betting[] bets;\n  Settle[] settles;\n  bytes32[] betIndexes;\n  bytes32[] matchIds;\n\n  struct Betting {\n    uint8 bmTeam; //bMaker team\n    int8 odds;\n    BetStatus status;\n    bytes32 matchId;\n    address bMaker;\n    uint256 bAmount;\n    uint256 settledAmount;\n  }\n\n  struct Settle {\n    uint32 betIndex;\n    address punter;\n    uint256 amount;\n  }\n\n  struct Match {\n\n    uint8 homeScore; // home score\n    uint8 awayScore;  // away score\n    uint32 idx;\n    uint48 time;\n    MatchStatus status;\n    bool isApproved;\n    bytes32 id;\n    string homeTeam; // home Team\n    string awayTeam; // away Team\n  }\n\n\n  struct Funding {\n\n    address receiver;\n    uint256 amount;\n\n  }\n\n\n  modifier canUpdate() {\n    require(msg.sender == owner || admins[msg.sender]);\n    _;\n  }\n\n  function updateLeague(uint8 id, string ipfsHash) canUpdate public returns (bool){\n    leagues[id] = ipfsHash;\n  }\n\n  function getLeague(uint8 id) public view returns (string league) {\n    league = leagues[id];\n  }\n\n\n  function offerNewMatch(bytes32 matchId, string homeTeam, string awayTeam, uint selectedTeam, uint time, int8 odds) public payable returns (bool) {\n\n    require(time > now);\n    require((odds % 25 == 0) && (odds / 25 <= 8) && (odds / 25 >= - 8));\n\n    Match memory _match = matches[matchId];\n\n    if (_match.status == MatchStatus.NotAvailable) {\n      _match.homeTeam = homeTeam;\n      _match.awayTeam = awayTeam;\n      _match.time = uint48(time);\n      _match.status = MatchStatus.Waiting;\n      _match.idx = uint32(matchIds.push(matchId) - 1);\n      matches[matchId] = _match;\n\n    }\n\n    Betting memory _betting = Betting(uint8(selectedTeam), odds, BetStatus.Open, matchId\n    , msg.sender, msg.value, 0);\n\n    uint32 betIdx = uint32(bets.push(_betting) - 1);\n    userBets[msg.sender].push(betIdx);\n    matchBets[matchId].push(betIdx);\n\n    if (isPlayerNotExist(msg.sender)) {\n      players.push(msg.sender);\n    }\n    emit LogNewBetting(betIdx);\n    balances[msg.sender] += msg.value;\n    return true;\n\n  }\n\n  function deal(uint32 bettingIdx) public payable returns (bool) {\n    Betting storage _betting = bets[bettingIdx];\n\n    require(_betting.bMaker != msg.sender);\n    require(_betting.status != BetStatus.Settled);\n    require(_betting.bAmount - _betting.settledAmount >= msg.value);\n\n    if (isPlayerNotExist(msg.sender)) {\n      players.push(msg.sender);\n    }\n\n    _betting.settledAmount += msg.value;\n    if (_betting.settledAmount == _betting.bAmount) {\n      _betting.status = BetStatus.Settled;\n    } else {\n      _betting.status = BetStatus.Deal;\n    }\n\n    uint32 betIdx = uint32(settles.push(Settle(bettingIdx, msg.sender, msg.value)) - 1);\n    userSettled[msg.sender].push(betIdx);\n    betSettled[bettingIdx].push(betIdx);\n    balances[msg.sender] += msg.value;\n    return true;\n  }\n\n  function isPlayerNotExist(address player) internal view returns (bool) {\n    return userBets[player].length <= 0 && userSettled[player].length <= 0;\n  }\n\n  function getBettingInfo(uint32 bettingIdx) public view returns (address,\n    uint8, int, uint256, uint256, BetStatus,\n    address[], uint256[]) {\n    Betting memory _betting = bets[bettingIdx];\n\n    address[] memory punters = new address[](betSettled[bettingIdx].length);\n    uint256[] memory punterAmounts = new uint256[](punters.length);\n    for (uint32 i = 0; i < punters.length; i++) {\n      punters[i] = settles[betSettled[bettingIdx][i]].punter;\n      punterAmounts[i] = settles[betSettled[bettingIdx][i]].amount;\n    }\n\n    return (_betting.bMaker, _betting.bmTeam, _betting.odds, _betting.bAmount, _betting.settledAmount, _betting.status, punters, punterAmounts);\n  }\n\n  function countBetStatus(bytes32[] matchIds) public view  returns(uint[], uint[], uint[], uint[], uint[]) {\n    uint32[] memory betIdxes;\n    uint[] memory open = new uint[](matchIds.length);\n    uint[] memory settledOrDone = new uint[](matchIds.length);\n    uint[] memory canceled = new uint[](matchIds.length);\n    uint[] memory deal = new uint[](matchIds.length);\n    uint[] memory refunded = new uint[](matchIds.length);\n\n    for(uint i=0;i< matchIds.length;i++) {\n\n      betIdxes = getBettings(matchIds[i]);\n\n      for(uint j = 0;j<betIdxes.length;j++) {\n        Betting memory _betting = bets[betIdxes[j]];\n        if(_betting.status == BetStatus.Open) {\n          open[i]++;\n        } else if(_betting.status == BetStatus.Canceled) {\n          canceled[i]++;\n        } else if(_betting.status == BetStatus.Settled || _betting.status == BetStatus.Done) {\n          settledOrDone[i]++;\n        }  else if(_betting.status == BetStatus.Deal) {\n          deal[i]++;\n        }\n        else if(_betting.status == BetStatus.Refunded) {\n          refunded[i]++;\n        }\n      }\n    }\n    return (open, deal, settledOrDone, canceled, refunded);\n  }\n\n  function getBettings(bytes32 matchId) public view returns (uint32[]) {\n    return matchBets[matchId];\n  }\n\n\n  function getUserBets(address user) public view returns (uint32[]) {\n    return userBets[user];\n  }\n\n  function getUserSettles(address user) public view returns (uint32[], uint32[]) {\n\n    uint32[] memory betIdex = new  uint32[](userSettled[user].length);\n    for (uint i = 0; i < userSettled[user].length; i++) {\n\n      betIdex[i] = settles[userSettled[user][i]].betIndex;\n    }\n\n    return (betIdex, userSettled[user]);\n  }\n\n  function getSettleInfo(uint32 bettingIdx, uint32 settleIdx) public view returns (address,\n    uint8, int, uint256, uint256, BetStatus,\n    address, uint256) {\n    Betting memory _betting = bets[bettingIdx];\n    address punter = settles[settleIdx].punter;\n    uint256 punterAmount = settles[settleIdx].amount;\n    return (_betting.bMaker, _betting.bmTeam, _betting.odds, _betting.bAmount, _betting.settledAmount, _betting.status, punter, punterAmount);\n  }\n\n  function countPlayers() public view returns (uint) {\n    return players.length;\n  }\n\n  function getPlayerBalance(address player) public view returns (uint256) {\n    return balances[player];\n  }\n\n  function updateScore(bytes32 matchId, uint homeScore, uint awayScore) public canUpdate returns (bool) {\n    Match storage _match = matches[matchId];\n    _match.homeScore = uint8(homeScore);\n    _match.awayScore = uint8(awayScore);\n    _match.status = MatchStatus.Finished;\n    return true;\n  }\n\n\n  function approveScore(bytes32 matchId) public canUpdate returns (bool) {\n\n    require(!matches[matchId].isApproved);\n    Match storage _match = matches[matchId];\n    _match.isApproved = true;\n\n    uint32[] memory betIdxes = matchBets[matchId];\n    for (uint256 i = 0; i < betIdxes.length; i++) {\n\n      Betting storage _betting = bets[betIdxes[i]];\n\n      if (_betting.status == BetStatus.Deal || _betting.status == BetStatus.Settled) {\n        doTransfer(_match, _betting, 0);\n        _betting.status = BetStatus.Done;\n      }\n      else if (_betting.status == BetStatus.Open) {\n\n        refund(_betting);\n        _betting.status = BetStatus.Refunded;\n      }\n\n    }\n\n    rmBetIdx(_match);\n    return true;\n  }\n  function rmBetIdx(Match _match) private returns (bool) {\n\n    uint32 toDelete = _match.idx;\n    uint32 lastIdx = uint32(matchIds.length - 1);\n    matchIds[toDelete] = matchIds[lastIdx];\n    matches[matchIds[toDelete]].idx = toDelete;\n    matchIds.length--;\n    return true;\n  }\n\n  function cancelOffer(uint256 bettingId) external returns (bool){\n    Betting storage _betting = bets[bettingId];\n    require(_betting.bMaker == msg.sender);\n    require(_betting.status == BetStatus.Open);\n    refund(_betting);\n    _betting.status = BetStatus.Canceled;\n    return true;\n  }\n\n  function refund(Betting _betting) internal returns (bool) {\n    transferFund(_betting.bMaker, _betting.bAmount);\n    _betting.status = BetStatus.Refunded;\n    balances[_betting.bMaker] = balances[_betting.bMaker] - _betting.bAmount;\n    return true;\n  }\n\n  function doTransfer(Match _match, Betting _betting, uint32 betIndex) internal returns (bool) {\n\n    Funding[] memory fundings = getFunding(_match, _betting, betIndex);\n    for (uint i = 0; i < fundings.length; i++) {\n      Funding memory funding = fundings[i];\n      if (funding.amount > 0 && funding.receiver != 0x0) {\n        transferFund(funding.receiver, funding.amount);\n      }\n    }\n\n    balances[_betting.bMaker] = balances[_betting.bMaker] - _betting.bAmount;\n    balances[feeOwner] = balances[feeOwner] + (_betting.settledAmount - _betting.settledAmount * 95 / 100);\n    _betting.status = BetStatus.Done;\n  }\n\n  function transferFund(address receiver, uint256 amount) private returns (bool) {\n    if (receiver != 0x0) {\n      receiver.transfer(amount);\n    }\n  }\n\n  function getFunding(Match _match, Betting _betting, uint32 betIdx) internal returns (Funding[]) {\n\n    BookmakerResult bmResult;\n\n    // calculate for bookmaker\n    if (_betting.bmTeam == uint8(Team.Home)) {\n      bmResult = getBookmakerResult(int(_match.homeScore) - int(_match.awayScore), _betting.odds);\n    } else {\n      bmResult = getBookmakerResult(int(_match.awayScore) - int(_match.homeScore), _betting.odds);\n    }\n    Funding[] memory fundings = new Funding[](betSettled[betIdx].length + 1);\n    if (bmResult == BookmakerResult.Win) {\n      fundings[0] = Funding(_betting.bMaker, _betting.bAmount + _betting.settledAmount * 95 / 100);\n      for (uint i = 0; i < betSettled[betIdx].length; i++) {\n        balances[settles[betSettled[betIdx][i]].punter] -= settles[betSettled[betIdx][i]].amount;\n      }\n    } else if (bmResult == BookmakerResult.Draw) {\n      fundings[0] = Funding(_betting.bMaker, _betting.bAmount + (_betting.settledAmount - _betting.settledAmount * 5 / 100 / 2));\n      for (i = 0; i < betSettled[betIdx].length; i++) {\n        fundings[i + 1] = Funding(settles[betSettled[betIdx][i]].punter, settles[betSettled[betIdx][i]].amount - settles[betSettled[betIdx][i]].amount * 5 / 100 / 2);\n        balances[settles[betSettled[betIdx][i]].punter] -= settles[betSettled[betIdx][i]].amount;\n      }\n    } else if (bmResult == BookmakerResult.WinAHalf) {\n      fundings[0] = Funding(_betting.bMaker, _betting.bAmount + (_betting.settledAmount + _betting.settledAmount * 95 / 100 / 2));\n      for (i = 0; i < betSettled[betIdx].length; i++) {\n        fundings[i + 1] = Funding(settles[betSettled[betIdx][i]].punter, settles[betSettled[betIdx][i]].amount - settles[betSettled[betIdx][i]].amount * 95 / 100 / 2);\n        balances[settles[betSettled[betIdx][i]].punter] -= settles[betSettled[betIdx][i]].amount;\n      }\n    } else if (bmResult == BookmakerResult.LoseAHalf) {\n      fundings[0] = Funding(_betting.bMaker, _betting.bAmount + _betting.settledAmount * 95 / 100 / 2);\n      for (i = 0; i < betSettled[betIdx].length; i++) {\n        fundings[i + 1] = Funding(settles[betSettled[betIdx][i]].punter, settles[betSettled[betIdx][i]].amount + settles[betSettled[betIdx][i]].amount * 95 / 100 / 2);\n        balances[settles[betSettled[betIdx][i]].punter] -= settles[betSettled[betIdx][i]].amount;\n      }\n    }\n    else {\n      fundings[0] = Funding(_betting.bMaker, _betting.bAmount - _betting.settledAmount);\n      for (i = 0; i < betSettled[betIdx].length; i++) {\n        fundings[i + 1] = Funding(settles[betSettled[betIdx][i]].punter, settles[betSettled[betIdx][i]].amount + settles[betSettled[betIdx][i]].amount * 95 / 100);\n        balances[settles[betSettled[betIdx][i]].punter] -= settles[betSettled[betIdx][i]].amount;\n      }\n\n    }\n\n    return fundings;\n  }\n\n  function getBookmakerResult(int goaldifference, int odds) private returns (BookmakerResult) {\n    if ((odds + goaldifference * 100) == 25) return BookmakerResult.WinAHalf;\n    if ((odds + goaldifference * 100) == - 25) return BookmakerResult.LoseAHalf;\n    if ((odds + goaldifference * 100) == 0) return BookmakerResult.Draw;\n    if ((odds + goaldifference * 100) > 25) return BookmakerResult.Win;\n    return BookmakerResult.Lose;\n  }\n\n  function claimStake(bytes32 matchId, uint32[] bettingIdxes) public returns (bool) {\n\n    Match memory _match = matches[matchId];\n    require(_match.status == MatchStatus.Finished);\n    for (uint i = 0; i < bettingIdxes.length; i++) {\n      Betting storage _betting = bets[bettingIdxes[i]];\n      if (_betting.matchId == matchId) {\n        doTransfer(_match, _betting, bettingIdxes[i]);\n      }\n\n    }\n    return true;\n\n  }\n\n\n}\n",
  "sourcePath": "/Users/kenshin/Desktop/web/football-bet/backend/contracts/BetherContract.sol",
  "compiler": {
    "name": "solc",
    "version": "0.4.24+commit.e67f0147.Emscripten.clang"
  },
  "schemaVersion": "2.0.0",
  "updatedAt": "2018-08-18T07:43:05.255Z"
}