{
  "contractName": "AsianSoloBet",
  "abi": [
    {
      "constant": true,
      "inputs": [
        {
          "name": "matchId",
          "type": "bytes32"
        },
        {
          "name": "bettingId",
          "type": "uint256"
        }
      ],
      "name": "getBettingInfo",
      "outputs": [
        {
          "name": "bMaker",
          "type": "address"
        },
        {
          "name": "punter",
          "type": "address"
        },
        {
          "name": "selectedTeam",
          "type": "uint8"
        },
        {
          "name": "odds",
          "type": "int256"
        },
        {
          "name": "amount",
          "type": "uint256"
        },
        {
          "name": "status",
          "type": "uint8"
        }
      ],
      "payable": false,
      "stateMutability": "view",
      "type": "function"
    },
    {
      "constant": true,
      "inputs": [
        {
          "name": "matchId",
          "type": "bytes32"
        }
      ],
      "name": "findMatch",
      "outputs": [
        {
          "name": "homeTeam",
          "type": "string"
        },
        {
          "name": "awayTeam",
          "type": "string"
        },
        {
          "name": "homeScore",
          "type": "uint256"
        },
        {
          "name": "awayScore",
          "type": "uint256"
        },
        {
          "name": "time",
          "type": "uint256"
        },
        {
          "name": "status",
          "type": "uint8"
        },
        {
          "name": "isApproved",
          "type": "bool"
        }
      ],
      "payable": false,
      "stateMutability": "view",
      "type": "function"
    },
    {
      "constant": false,
      "inputs": [],
      "name": "destroyContract",
      "outputs": [],
      "payable": false,
      "stateMutability": "nonpayable",
      "type": "function"
    },
    {
      "constant": false,
      "inputs": [
        {
          "name": "matchId",
          "type": "bytes32"
        },
        {
          "name": "homeScore",
          "type": "uint256"
        },
        {
          "name": "awayScore",
          "type": "uint256"
        }
      ],
      "name": "updateScore",
      "outputs": [
        {
          "name": "",
          "type": "bool"
        }
      ],
      "payable": false,
      "stateMutability": "nonpayable",
      "type": "function"
    },
    {
      "constant": false,
      "inputs": [
        {
          "name": "matchId",
          "type": "bytes32"
        }
      ],
      "name": "claimStake",
      "outputs": [
        {
          "name": "",
          "type": "bool"
        }
      ],
      "payable": false,
      "stateMutability": "nonpayable",
      "type": "function"
    },
    {
      "constant": true,
      "inputs": [
        {
          "name": "bettingOwner",
          "type": "address"
        }
      ],
      "name": "getBettingMatchesByAddress",
      "outputs": [
        {
          "name": "",
          "type": "bytes32[]"
        },
        {
          "name": "",
          "type": "uint256[]"
        },
        {
          "name": "",
          "type": "int256[]"
        },
        {
          "name": "",
          "type": "uint256[]"
        },
        {
          "name": "",
          "type": "bool[]"
        },
        {
          "name": "",
          "type": "uint256[]"
        }
      ],
      "payable": false,
      "stateMutability": "view",
      "type": "function"
    },
    {
      "constant": true,
      "inputs": [],
      "name": "countPlayers",
      "outputs": [
        {
          "name": "",
          "type": "uint256"
        }
      ],
      "payable": false,
      "stateMutability": "view",
      "type": "function"
    },
    {
      "constant": false,
      "inputs": [
        {
          "name": "matchId",
          "type": "bytes32"
        },
        {
          "name": "bettingId",
          "type": "uint256"
        }
      ],
      "name": "cancelOffer",
      "outputs": [
        {
          "name": "",
          "type": "bool"
        }
      ],
      "payable": false,
      "stateMutability": "nonpayable",
      "type": "function"
    },
    {
      "constant": false,
      "inputs": [
        {
          "name": "matchId",
          "type": "bytes32"
        },
        {
          "name": "bettingId",
          "type": "uint256"
        }
      ],
      "name": "deal",
      "outputs": [
        {
          "name": "",
          "type": "bool"
        }
      ],
      "payable": true,
      "stateMutability": "payable",
      "type": "function"
    },
    {
      "constant": false,
      "inputs": [
        {
          "name": "matchId",
          "type": "bytes32"
        }
      ],
      "name": "approveScore",
      "outputs": [
        {
          "name": "",
          "type": "bool"
        }
      ],
      "payable": false,
      "stateMutability": "nonpayable",
      "type": "function"
    },
    {
      "constant": true,
      "inputs": [],
      "name": "getTotalBettingMatches",
      "outputs": [
        {
          "name": "",
          "type": "uint256"
        }
      ],
      "payable": false,
      "stateMutability": "view",
      "type": "function"
    },
    {
      "constant": false,
      "inputs": [
        {
          "name": "_feeOwner",
          "type": "address"
        }
      ],
      "name": "changeFeeOwner",
      "outputs": [
        {
          "name": "",
          "type": "bool"
        }
      ],
      "payable": false,
      "stateMutability": "nonpayable",
      "type": "function"
    },
    {
      "constant": true,
      "inputs": [],
      "name": "owner",
      "outputs": [
        {
          "name": "",
          "type": "address"
        }
      ],
      "payable": false,
      "stateMutability": "view",
      "type": "function"
    },
    {
      "constant": true,
      "inputs": [],
      "name": "feeOwner",
      "outputs": [
        {
          "name": "",
          "type": "address"
        }
      ],
      "payable": false,
      "stateMutability": "view",
      "type": "function"
    },
    {
      "constant": true,
      "inputs": [
        {
          "name": "matchId",
          "type": "bytes32"
        }
      ],
      "name": "totalBets",
      "outputs": [
        {
          "name": "",
          "type": "uint256"
        }
      ],
      "payable": false,
      "stateMutability": "view",
      "type": "function"
    },
    {
      "constant": true,
      "inputs": [],
      "name": "getBettingMatchIds",
      "outputs": [
        {
          "name": "",
          "type": "bytes32[]"
        }
      ],
      "payable": false,
      "stateMutability": "view",
      "type": "function"
    },
    {
      "constant": true,
      "inputs": [
        {
          "name": "player",
          "type": "address"
        }
      ],
      "name": "getPlayerBalance",
      "outputs": [
        {
          "name": "",
          "type": "uint256"
        }
      ],
      "payable": false,
      "stateMutability": "view",
      "type": "function"
    },
    {
      "constant": false,
      "inputs": [],
      "name": "withDrawFee",
      "outputs": [],
      "payable": false,
      "stateMutability": "nonpayable",
      "type": "function"
    },
    {
      "constant": false,
      "inputs": [
        {
          "name": "newOwner",
          "type": "address"
        }
      ],
      "name": "transferOwnership",
      "outputs": [],
      "payable": false,
      "stateMutability": "nonpayable",
      "type": "function"
    },
    {
      "constant": false,
      "inputs": [
        {
          "name": "matchId",
          "type": "bytes32"
        },
        {
          "name": "homeTeam",
          "type": "string"
        },
        {
          "name": "awayTeam",
          "type": "string"
        },
        {
          "name": "selectedTeam",
          "type": "uint256"
        },
        {
          "name": "time",
          "type": "uint256"
        },
        {
          "name": "odds",
          "type": "int256"
        }
      ],
      "name": "offerNewMatch",
      "outputs": [
        {
          "name": "",
          "type": "bool"
        }
      ],
      "payable": true,
      "stateMutability": "payable",
      "type": "function"
    },
    {
      "inputs": [],
      "payable": false,
      "stateMutability": "nonpayable",
      "type": "constructor"
    },
    {
      "anonymous": false,
      "inputs": [
        {
          "indexed": false,
          "name": "sender",
          "type": "address"
        },
        {
          "indexed": false,
          "name": "amount",
          "type": "uint256"
        }
      ],
      "name": "LogSelfDestruct",
      "type": "event"
    },
    {
      "anonymous": false,
      "inputs": [
        {
          "indexed": false,
          "name": "bMaker",
          "type": "address"
        },
        {
          "indexed": false,
          "name": "punter",
          "type": "address"
        },
        {
          "indexed": false,
          "name": "matchId",
          "type": "bytes32"
        },
        {
          "indexed": false,
          "name": "betingId",
          "type": "uint256"
        }
      ],
      "name": "LogDeal",
      "type": "event"
    },
    {
      "anonymous": false,
      "inputs": [
        {
          "indexed": true,
          "name": "previousOwner",
          "type": "address"
        },
        {
          "indexed": true,
          "name": "newOwner",
          "type": "address"
        }
      ],
      "name": "OwnershipTransferred",
      "type": "event"
    }
  ],
  "bytecode": "6060604052341561000f57600080fd5b60008054600160a060020a0333811661010084900a90810291021991821681179092556002805490911690911790556138608061004d6000396000f3006060604052600436106101115763ffffffff7c010000000000000000000000000000000000000000000000000000000060003504166301cd6b9c81146101165780630662ce01146101a7578063092a5cce146102d75780633c9b03f3146102ec5780634007c5ad1461032857806341deb678146103425780634bec8b391461050e578063616f886314610533578063679153cd146105535780637bbe09f5146105685780637df79e8c1461058257806384465fa5146105955780638da5cb5b146105b4578063b9818be1146105e6578063bd282d4a146105f9578063d3d79caf14610613578063e2734c931461067a578063eea5bf4b14610699578063f2fde38b146106ac578063f3864de1146106cb575b600080fd5b341561012157600080fd5b61013660048035600019169060200135610774565b6040518087600160a060020a0316600160a060020a0316815260200186600160a060020a0316600160a060020a031681526020018560ff1660ff16815260200184815260200183815260200182600481111561018e57fe5b60ff168152602001965050505050505060405180910390f35b34156101b257600080fd5b6101c1600019600435166108b9565b6040518080602001806020018881526020018781526020018681526020018560048111156101eb57fe5b60ff1681526020018415151515815260200183810383528a818151815260200191508051906020019080838360005b8381101561023257808201518382015260200161021a565b50505050905090810190601f16801561025f5780820380516001836020036101000a031916815260200191505b50838103825289818151815260200191508051906020019080838360005b8381101561029557808201518382015260200161027d565b50505050905090810190601f1680156102c25780820380516001836020036101000a031916815260200191505b50995050505050505050505060405180910390f35b34156102e257600080fd5b6102ea610b40565b005b34156102f757600080fd5b61031260048035600019169060209081018035910135610d1e565b6040519015151515815260200160405180910390f35b341561033357600080fd5b61031260001960043516610ddd565b341561034d57600080fd5b610361600160a060020a036004351661139b565b6040518080602001806020018060200180602001806020018060200187810387528d818151815260200191508051906020019060200280838360005b838110156103b557808201518382015260200161039d565b5050505090500187810386528c818151815260200191508051906020019060200280838360005b838110156103f45780820151838201526020016103dc565b5050505090500187810385528b818151815260200191508051906020019060200280838360005b8381101561043357808201518382015260200161041b565b5050505090500187810384528a818151815260200191508051906020019060200280838360005b8381101561047257808201518382015260200161045a565b50505050905001878103835289818151815260200191508051906020019060200280838360005b838110156104b1578082015183820152602001610499565b50505050905001878103825288818151815260200191508051906020019060200280838360005b838110156104f05780820151838201526020016104d8565b505050509050019c5050505050505050505050505060405180910390f35b341561051957600080fd5b61052161198e565b60405190815260200160405180910390f35b341561053e57600080fd5b61031260048035600019169060200135611995565b61031260048035600019169060200135611b2b565b341561057357600080fd5b61031260001960043516611e38565b341561058d57600080fd5b610521612565565b34156105a057600080fd5b610312600160a060020a036004351661256b565b34156105bf57600080fd5b6105c76125cd565b604051600160a060020a03918216909116815260200160405180910390f35b34156105f157600080fd5b6105c76125e5565b341561060457600080fd5b610521600019600435166125fc565b341561061e57600080fd5b610626612619565b6040518080602001828103825283818151815260200191508051906020019060200280838360005b8381101561066657808201518382015260200161064e565b505050509050019250505060405180910390f35b341561068557600080fd5b610521600160a060020a036004351661267b565b34156106a457600080fd5b6102ea61269d565b34156106b757600080fd5b6102ea600160a060020a0360043516612754565b61031260048080356000191690602001909190803590602001908201803590602001908080601f01602080910402602001604051908101604052818152929190602084018383808284378201915050505050509190803590602001908201803590602001908080601f0160208091040260200160405190810160405281815292919060208401838380828437509496505084359460209081018035955001359250612827915050565b60008060008060008061078561352c565b600460008a60001916600019168152602001908152602001600020888154811015156107ad57fe5b906000526020600020906005020160c060405190810160405290816000820160009054906101000a9004600160a060020a0316600160a060020a0316600160a060020a031681526020016001820160009054906101000a9004600160a060020a0316600160a060020a0316600160a060020a031681526020016001820160149054906101000a900460ff1660ff1660ff16815260200160028201548152602001600382015481526020016004820160009054906101000a900460ff16600481111561087457fe5b600481111561087f57fe5b9052509050600081015196508060200151955080606001519350806080015192508060a00151915080604001519450509295509295509295565b6108c1613582565b6108c9613582565b60008060008060006108d9613594565b600360008a60001916600019168152602001908152602001600020610120604051908101604052600080830154811990811616825260018084015460ff61010093840a8204811681168116602080870191825293850a830482168216821690840190815263ffffffff6002860a8404811681161690840190815265ffffffffffff6006860a8404811681161690840190815294959490920192600c900a900416600481111561098457fe5b600481111561098f57fe5b815260200160018201600d9054906101000a900460ff16151515158152602001600282018054600181600116156101000203166002900480601f016020809104026020016040519081016040528092919081815260200182805460018160011615610100020316600290048015610a475780601f10610a1c57610100808354040283529160200191610a47565b820191906000526020600020905b815481529060010190602001808311610a2a57829003601f168201915b50505050508152602001600382018054600181600116156101000203166002900480601f016020809104026020016040519081016040528092919081815260200182805460018160011615610100020316600290048015610ae95780601f10610abe57610100808354040283529160200191610ae9565b820191906000526020600020905b815481529060010190602001808311610acc57829003601f168201915b50505050508152505090508060e0015197508061010001519650806020015160ff169550806040015160ff1694508060a001519250806080015165ffffffffffff1693508060c00151915050919395979092949650565b60008060009054906101000a9004600160a060020a0316600160a060020a031633600160a060020a0316141515610b7657600080fd5b5060005b600654811015610c9957600060056000600684815481101515610b9957fe5b906000526020600020900160009054906101000a9004600160a060020a0316600160a060020a0316600160a060020a03168152602001908152602001600020541115610c9157600681815481101515610bee57fe5b906000526020600020900160009054906101000a9004600160a060020a0316600160a060020a03166108fc60056000600685815481101515610c2c57fe5b906000526020600020900160009054906101000a9004600160a060020a0316600160a060020a0316600160a060020a03168152602001908152602001600020549081150290604051600060405180830381858888f193505050501515610c9157600080fd5b600101610b7a565b7f215be423a2afeeee1f3f4d3cc730708809a96e17103a81f16896c0722bd206356000809054906101000a9004600160a060020a031630600160a060020a031631604051600160a060020a03928316909216825260209182019081520160405180910390a16000809054906101000a9004600160a060020a0316600160a060020a0316ff5b6000806000809054906101000a9004600160a060020a0316600160a060020a031633600160a060020a0316141515610d5557600080fd5b6003600086600019166000191681526020019081526020016000209050838160010160006101000a81548160ff021916908360ff160217905550828160010160016101000a81548160ff021916908360ff160217905550600481600101600c6101000a81548160ff02191690836004811115610dcd57fe5b0217905550600195945050505050565b6000610de7613594565b6000806000600360008760001916600019168152602001908152602001600020610120604051908101604052600080830154811990811616825260018084015460ff61010093840a8204811681168116602080870191825293850a830482168216821690840190815263ffffffff6002860a8404811681161690840190815265ffffffffffff6006860a8404811681161690840190815294959490920192600c900a9004166004811115610e9757fe5b6004811115610ea257fe5b815260200160018201600d9054906101000a900460ff16151515158152602001600282018054600181600116156101000203166002900480601f016020809104026020016040519081016040528092919081815260200182805460018160011615610100020316600290048015610f5a5780601f10610f2f57610100808354040283529160200191610f5a565b820191906000526020600020905b815481529060010190602001808311610f3d57829003601f168201915b50505050508152602001600382018054600181600116156101000203166002900480601f016020809104026020016040519081016040528092919081815260200182805460018160011615610100020316600290048015610ffc5780601f10610fd157610100808354040283529160200191610ffc565b820191906000526020600020905b815481529060010190602001808311610fdf57829003601f168201915b505050505081525050935060048081111561101357fe5b8460a00151600481111561102357fe5b14151561102f57600080fd5b600160a060020a033381161660009081526007602080830191825201812054935091505b8282101561138f5785600019166007600033600160a060020a0316600160a060020a031681526020019081526020016000208381548110151561109257fe5b9060005260206000209060030201600101546000191614156113845760008019808816168152600460208083019182528101808320600160a060020a03338116168452600790925290912080548490811015156110eb57fe5b906000526020600020906003020160000160009054906101000a900463ffffffff1663ffffffff1681548110151561111f57fe5b906000526020600020906005020190506001600481111561113c57fe5b8160040160009054906101000a900460ff16600481111561115957fe5b141561125c57611230848260c060405190810160405290816000820160009054906101000a9004600160a060020a0316600160a060020a0316600160a060020a031681526020016001820160009054906101000a9004600160a060020a0316600160a060020a0316600160a060020a031681526020016001820160149054906101000a900460ff1660ff1660ff16815260200160028201548152602001600382015481526020016004820160009054906101000a900460ff16600481111561121d57fe5b600481111561122857fe5b905250612f5a565b5060048160040160006101000a81548160ff0219169083600481111561125257fe5b0217905550611384565b6000600481111561126957fe5b8160040160009054906101000a900460ff16600481111561128657fe5b14156113845761135c8160c060405190810160405290816000820160009054906101000a9004600160a060020a0316600160a060020a0316600160a060020a031681526020016001820160009054906101000a9004600160a060020a0316600160a060020a0316600160a060020a031681526020016001820160149054906101000a900460ff1660ff1660ff16815260200160028201548152602001600382015481526020016004820160009054906101000a900460ff16600481111561134957fe5b600481111561135457fe5b90525061310e565b5060038160040160006101000a81548160ff0219169083600481111561137e57fe5b02179055505b600190910190611053565b50600195945050505050565b6113a3613582565b6113ab613582565b6113b3613582565b6113bb613582565b6113c3613582565b6113cb613582565b6113d3613582565b6113db613582565b6113e3613582565b6113eb613582565b6113f3613582565b6113fb613582565b600160a060020a03808e1616600090815260076020808301918252018120546040518059106114275750595b9080825280602002602001820160405250965086516040518059106114495750595b90808252806020026020018201604052509550865160405180591061146b5750595b90808252806020026020018201604052509450865160405180591061148d5750595b9080825280602002602001820160405250935086516040518059106114af5750595b9080825280602002602001820160405250925086516040518059106114d15750595b90808252806020026020018201604052509150600090505b86518163ffffffff16101561197857600760008f600160a060020a0316600160a060020a031681526020019081526020016000208163ffffffff1681548110151561153057fe5b906000526020600020906003020160010154878263ffffffff1681518110151561155657fe5b906020019060200201906000191690816000191681525050600760008f600160a060020a0316600160a060020a031681526020019081526020016000208163ffffffff168154811015156115a657fe5b906000526020600020906003020160000160009054906101000a900463ffffffff1663ffffffff16868263ffffffff168151811015156115e257fe5b602090810291010152600460008863ffffffff841681518110151561160357fe5b9060200190602002015160001916600019168152602001908152602001600020868263ffffffff1681518110151561163757fe5b9060200190602002015181548110151561164d57fe5b906000526020600020906005020160000160009054906101000a9004600160a060020a0316600160a060020a03168e600160a060020a031614156117215760046000888363ffffffff168151811015156116a357fe5b9060200190602002015160001916600019168152602001908152602001600020868263ffffffff168151811015156116d757fe5b906020019060200201518154811015156116ed57fe5b906000526020600020906005020160020154828263ffffffff1681518110151561171357fe5b6020908102910101526117b7565b60046000888363ffffffff1681518110151561173957fe5b9060200190602002015160001916600019168152602001908152602001600020868263ffffffff1681518110151561176d57fe5b9060200190602002015181548110151561178357fe5b90600052602060002090600502016002015460001902828263ffffffff168151811015156117ad57fe5b6020908102910101525b600760008f600160a060020a0316600160a060020a031681526020019081526020016000208163ffffffff168154811015156117ef57fe5b906000526020600020906003020160020160009054906101000a900460ff16848263ffffffff1681518110151561182257fe5b906020019060200201901515908115158152505060046000888363ffffffff1681518110151561184e57fe5b9060200190602002015160001916600019168152602001908152602001600020868263ffffffff1681518110151561188257fe5b9060200190602002015181548110151561189857fe5b906000526020600020906005020160030154858263ffffffff168151811015156118be57fe5b602090810291010152600460008863ffffffff84168151811015156118df57fe5b9060200190602002015160001916600019168152602001908152602001600020868263ffffffff1681518110151561191357fe5b9060200190602002015181548110151561192957fe5b906000526020600020906005020160040160009054906101000a900460ff16600481111561195357fe5b838263ffffffff1681518110151561196757fe5b6020908102910101526001016114e9565b50949c939b509399509097509550909350915050565b6006545b90565b600080600460008560001916600019168152602001908152602001600020838154811015156119c057fe5b9060005260206000209060050201905033600160a060020a03168160000160009054906101000a9004600160a060020a0316600160a060020a0316141515611a0757600080fd5b60006004811115611a1457fe5b8160040160009054906101000a900460ff166004811115611a3157fe5b141515611a3d57600080fd5b611afa8160c060405190810160405290816000820160009054906101000a9004600160a060020a0316600160a060020a0316600160a060020a031681526020016001820160009054906101000a9004600160a060020a0316600160a060020a0316600160a060020a031681526020016001820160149054906101000a900460ff1660ff1660ff16815260200160028201548152602001600382015481526020016004820160009054906101000a900460ff16600481111561134957fe5b5060028160040160006101000a81548160ff02191690836004811115611b1c57fe5b02179055506001949350505050565b60008060046000856000191660001916815260200190815260200160002083815481101515611b5657fe5b90600052602060002090600502019050348160030154141515611b7857600080fd5b33600160a060020a03168160000160009054906101000a9004600160a060020a0316600160a060020a031614151515611bb057600080fd5b60006004811115611bbd57fe5b8160040160009054906101000a900460ff166004811115611bda57fe5b141515611be657600080fd5b338160010160006101000a815481600160a060020a030219169083600160a060020a0316021790555060018160040160006101000a81548160ff02191690836004811115611c3057fe5b0217905550611c3e336131a0565b15611c8b576006805460018101611c55838261360b565b9160005260206000209001600033909190916101000a815481600160a060020a030219169083600160a060020a03160217905550505b6007600033600160a060020a0316600160a060020a031681526020019081526020016000208054806001018281611cc29190613634565b916000526020600020906003020160006060604051908101604052808763ffffffff1681526020018860001916815260200160006001811115611d0157fe5b600187015460146101000a900460ff9081168116911614151515905291905060008201518160000160006101000a81548163ffffffff021916908363ffffffff1602179055506020820151600019166001820155604082015160029091018054911515600061010081900a91820260ff83021990941693909317909155600160a060020a0333811681168352600560208085019182520183208054340190559185015460018601547f488b2f9051d0b8ee33cbf7b1879374803cd93255e85ce22ba2368a92c38c96cf95509082900483169350041686866040518085600160a060020a0316600160a060020a0316815260200184600160a060020a0316600160a060020a03168152602001836000191660001916815260200182815260200194505050505060405180910390a15060019392505050565b60008060008060008060009054906101000a9004600160a060020a0316600160a060020a031633600160a060020a0316141515611e7457600080fd5b600080198781161681526003602080830191825201902060010154600d6101000a900460ff16151515611ea657600080fd5b60008019878116168082526003602080840191825281018084206001808201805460ff600d6101000a908102199091169215150291909117905592845260049091528220909550935091505b8254821015612351578282815481101515611f0957fe5b9060005260206000209060050201905060016004811115611f2657fe5b8160040160009054906101000a900460ff166004811115611f4357fe5b14156122315761220584610120604051908101604052600080830154811990811616825260018084015460ff61010093840a8204811681168116602080870191825293850a830482168216821690840190815263ffffffff6002860a8404811681161690840190815265ffffffffffff6006860a8404811681161690840190815294959490920192600c900a9004166004811115611fdd57fe5b6004811115611fe857fe5b815260200160018201600d9054906101000a900460ff16151515158152602001600282018054600181600116156101000203166002900480601f0160208091040260200160405190810160405280929190818152602001828054600181600116156101000203166002900480156120a05780601f10612075576101008083540402835291602001916120a0565b820191906000526020600020905b81548152906001019060200180831161208357829003601f168201915b50505050508152602001600382018054600181600116156101000203166002900480601f0160208091040260200160405190810160405280929190818152602001828054600181600116156101000203166002900480156121425780601f1061211757610100808354040283529160200191612142565b820191906000526020600020905b81548152906001019060200180831161212557829003601f168201915b5050505050815250508260c060405190810160405290816000820160009054906101000a9004600160a060020a0316600160a060020a0316600160a060020a031681526020016001820160009054906101000a9004600160a060020a0316600160a060020a0316600160a060020a031681526020016001820160149054906101000a900460ff1660ff1660ff16815260200160028201548152602001600382015481526020016004820160009054906101000a900460ff16600481111561121d57fe5b5060048160040160006101000a81548160ff0219169083600481111561222757fe5b0217905550612346565b6000600481111561223e57fe5b8160040160009054906101000a900460ff16600481111561225b57fe5b14156123465761231e8160c060405190810160405290816000820160009054906101000a9004600160a060020a0316600160a060020a0316600160a060020a031681526020016001820160009054906101000a9004600160a060020a0316600160a060020a0316600160a060020a031681526020016001820160149054906101000a900460ff1660ff1660ff16815260200160028201548152602001600382015481526020016004820160009054906101000a900460ff16600481111561134957fe5b5060038160040160006101000a81548160ff0219169083600481111561234057fe5b02179055505b600190910190611ef2565b61255884610120604051908101604052600080830154811990811616825260018084015460ff61010093840a8204811681168116602080870191825293850a830482168216821690840190815263ffffffff6002860a8404811681161690840190815265ffffffffffff6006860a8404811681161690840190815294959490920192600c900a90041660048111156123e557fe5b60048111156123f057fe5b815260200160018201600d9054906101000a900460ff16151515158152602001600282018054600181600116156101000203166002900480601f0160208091040260200160405190810160405280929190818152602001828054600181600116156101000203166002900480156124a85780601f1061247d576101008083540402835291602001916124a8565b820191906000526020600020905b81548152906001019060200180831161248b57829003601f168201915b50505050508152602001600382018054600181600116156101000203166002900480601f01602080910402602001604051908101604052809291908181526020018280546001816001161561010002031660029004801561254a5780601f1061251f5761010080835404028352916020019161254a565b820191906000526020600020905b81548152906001019060200180831161252d57829003601f168201915b5050505050815250506131c4565b5060019695505050505050565b60015490565b60008060009054906101000a9004600160a060020a0316600160a060020a031633600160a060020a03161415156125a157600080fd5b81600260006101000a815481600160a060020a030219169083600160a060020a03160217905550919050565b6000809054906101000a9004600160a060020a031681565b60025460006101000a9004600160a060020a031681565b600080198083161681526004602080830191825201902054919050565b612621613582565b600180548060200260200160405190810160405280929190818152602001828054801561267157602002820191906000526020600020905b81546000191681526020019060010190808311612659575b5050505050905090565b600160a060020a03908116166000908152600560208083019182520190205490565b6000809054906101000a9004600160a060020a0316600160a060020a031633600160a060020a03161415156126d157600080fd5b6000809054906101000a9004600160a060020a0316600160a060020a03166108fc60056000600260009054906101000a9004600160a060020a0316600160a060020a0316600160a060020a03168152602001908152602001600020549081150290604051600060405180830381858888f19350505050151561275257600080fd5b565b6000809054906101000a9004600160a060020a0316600160a060020a031633600160a060020a031614151561278857600080fd5b6000600160a060020a031681600160a060020a0316141515156127aa57600080fd5b80600160a060020a03166000809054906101000a9004600160a060020a0316600160a060020a03167f8be0079c531659141344cd1fd0a4f28419497f9722a3daafe3b4186f6b6457e060405160405180910390a3806000806101000a815481600160a060020a030219169083600160a060020a0316021790555050565b6000612831613594565b61283961352c565b6000428611151561284957600080fd5b60198581151561285557fe5b0760001480156128725750600860198681151561286e57fe5b0513155b801561288c575060071960198681151561288857fe5b0512155b151561289757600080fd5b600360008b60001916600019168152602001908152602001600020610120604051908101604052600080830154811990811616825260018084015460ff61010093840a8204811681168116602080870191825293850a830482168216821690840190815263ffffffff6002860a8404811681161690840190815265ffffffffffff6006860a8404811681161690840190815294959490920192600c900a900416600481111561294257fe5b600481111561294d57fe5b815260200160018201600d9054906101000a900460ff16151515158152602001600282018054600181600116156101000203166002900480601f016020809104026020016040519081016040528092919081815260200182805460018160011615610100020316600290048015612a055780601f106129da57610100808354040283529160200191612a05565b820191906000526020600020905b8154815290600101906020018083116129e857829003601f168201915b50505050508152602001600382018054600181600116156101000203166002900480601f016020809104026020016040519081016040528092919081815260200182805460018160011615610100020316600290048015612aa75780601f10612a7c57610100808354040283529160200191612aa7565b820191906000526020600020905b815481529060010190602001808311612a8a57829003601f168201915b505050505081525050925060006004811115612abf57fe5b8360a001516004811115612acf57fe5b1415612ca95760008019808c16169084015260e08301899052610100830188905265ffffffffffff80871616608084015260a0830160016004811115612b1157fe5b90816004811115612b1e57fe5b905250600180548190808201612b34838261360b565b916000526020600020900160008d90919091509060001916905503836060019063ffffffff16908163ffffffff168152505082600360008c600019166000191681526020019081526020016000206000820151816000019060001916905560208201518160010160006101000a81548160ff021916908360ff16021790555060408201518160010160016101000a81548160ff021916908360ff16021790555060608201518160010160026101000a81548163ffffffff021916908363ffffffff16021790555060808201518160010160066101000a81548165ffffffffffff021916908365ffffffffffff16021790555060a082015181600101600c6101000a81548160ff02191690836004811115612c4a57fe5b021790555060c082015181600101600d6101000a81548160ff02191690831515021790555060e082015181600201908051612c89929160200190613660565b5061010082015181600301908051612ca5929160200190613660565b5050505b60c06040519081016040528033600160a060020a031681526020016000600160a060020a031681526020018860ff16815260200186815260200134815260200160006004811115612cf657fe5b905260008019808d16168152600460208083019182520190208054919350600191808301612d2483826136de565b60009283526020832090928692600502909101908201518160000160006101000a815481600160a060020a030219169083600160a060020a0316021790555060208201518160010160006101000a815481600160a060020a030219169083600160a060020a0316021790555060408201518160010160146101000a81548160ff021916908360ff160217905550606082015181600201556080820151816003015560a08201518160040160006101000a81548160ff02191690836004811115612de957fe5b02179055505050039050612dfc336131a0565b15612e49576006805460018101612e13838261360b565b9160005260206000209001600033909190916101000a815481600160a060020a030219169083600160a060020a03160217905550505b6007600033600160a060020a0316600160a060020a031681526020019081526020016000208054806001018281612e809190613634565b916000526020600020906003020160006060604051908101604052808563ffffffff1681526020018e60001916815260200160006001811115612ebf57fe5b60ff168c141515905291905060008201518160000160006101000a81548163ffffffff021916908363ffffffff1602179055506020820151600019166001820155604082015160029091018054911515600061010081900a91820260ff90920219909316179055600160a060020a03338116168152600560208083019182520190208054340190555060019450505050509695505050505050565b6000612f6461370a565b6000612f6e613738565b612f7886866131d8565b9250600091505b6002821015612fe3578282600281101515612f9657fe5b6020020151905060008160200151118015612fbf57508060000151600160a060020a0316600014155b15612fd857612fd681600001518260200151613344565b505b600190910190612f7f565b8460800151600560008760000151600160a060020a0316600160a060020a031681526020019081526020016000205403600560008760000151600160a060020a03908116168152602090810191825201600020556080850151600560008760200151600160a060020a0316600160a060020a031681526020019081526020016000205403600560008760200151600160a060020a039081161681526020908101918252016000205560646080860151605f0281151561309e57fe5b048560800151600254600160a060020a03600061010081900a90920481168116168082526005602080840182815290810180852054938552919052909120910191909103905560a085016004808011156130f457fe5b9081600481111561310157fe5b8152505050505092915050565b600061312282600001518360800151613344565b5060a082016003600481111561313457fe5b9081600481111561314157fe5b9052506080820151600560008460000151600160a060020a0316600160a060020a031681526020019081526020016000205403600560008460000151600160a060020a0390811616815260209081019182520160002055506001919050565b600160a060020a039081161660009081526007602080830191825201812054111590565b60006131cf82613390565b50600192915050565b6131e061370a565b60008060018111156131ee57fe5b60ff16836040015160ff161415613262576060604051908101604052808460000151600160a060020a03168152602001613241866040015160ff16876020015160ff16038660600151876080015161346a565b815260200184905282600060028110151561325857fe5b60200201526132c1565b6060604051908101604052808460000151600160a060020a031681526020016132a4866020015160ff16876040015160ff16038660600151876080015161346a565b81526020018490528260006002811015156132bb57fe5b60200201525b8160006002811015156132d057fe5b60200201516020015160648460800151605f028115156132ec57fe5b04846080015101039050600081111561333d576060604051908101604052808460200151600160a060020a031681526020018281526020018481525082600160028110151561333757fe5b60200201525b5092915050565b600082600160a060020a0316600014151561338a57600160a060020a03831682156108fc0283604051600060405180830381858888f19350505050151561338a57600080fd5b92915050565b600080600083606001516001805491935080820392509063ffffffff831690811015156133b957fe5b90600052602060002090015460018363ffffffff168154811015156133da57fe5b90600052602060002090018160001916905550816003600060018563ffffffff1681548110151561340757fe5b9060005260206000209001546000191660001916815260200190815260200160002060010160026101000a81548163ffffffff021916908363ffffffff160217905550600180548091906001900361345f919061360b565b506001949350505050565b60008360640283016019141561349f576002606483605f0281151561348b57fe5b0481151561349557fe5b0482019050613525565b83606402830160181914156134d1576002606483605f028115156134bf57fe5b048115156134c957fe5b049050613525565b836064028301600014156135045760026064836005028115156134f057fe5b048115156134fa57fe5b0482039050613525565b6019846064028401131561352157606482605f0281151561349557fe5b5060005b9392505050565b60c0604051908101604052806000600160a060020a031681526020016000600160a060020a03168152602001600060ff16815260200160008152602001600081526020016000600481111561357d57fe5b905290565b60206040519081016040526000815290565b6101206040519081016040528060008019168152602001600060ff168152602001600060ff168152602001600063ffffffff168152602001600065ffffffffffff168152602001600060048111156135e857fe5b81526020016000151581526020016135fe613582565b815260200161357d613582565b81548183558181151161362f5760008381526020902061362f918101908301613764565b505050565b81548183558181151161362f5760030281600302836000526020600020918201910161362f919061377e565b828054600181600116156101000203166002900490600052602060002090601f016020900481019282601f106136a157805160ff19168380011785556136ce565b828001600101855582156136ce579182015b828111156136ce5782518255916020019190600101906136b3565b506136da929150613764565b5090565b81548183558181151161362f5760050281600502836000526020600020918201910161362f91906137c9565b6102006040519081016040526002815b613722613738565b81526020019060019003908161371a5790505090565b610100604051908101604052806000600160a060020a031681526020016000815260200161357d61352c565b61199291905b808211156136da576000815560010161376a565b61199291905b808211156136da57600080820160006101000a81549063ffffffff021916905560018201600090556002820160006101000a81549060ff021916905550600301613784565b61199291905b808211156136da5760008181018054600160a060020a0361010084810a9182021992831690935560018501805460ff601490950a85021993169290921690915560028401839055600384019290925560048301805491909202191690556005016137cf5600a165627a7a72305820e46ba062b3de1ca39536d8d2f8fccfc97d053fb97489c27a0bd0d7a4251ec8fa0029",
  "deployedBytecode": "0x606060405260043610610112576000357c0100000000000000000000000000000000000000000000000000000000900463ffffffff16806301cd6b9c146101175780630662ce01146101ea578063092a5cce1461032b5780633c9b03f3146103405780634007c5ad1461039157806341deb678146103d05780634bec8b39146105c6578063616f8863146105ef578063679153cd146106375780637bbe09f5146106745780637df79e8c146106b357806384465fa5146106dc5780638da5cb5b1461072d578063b9818be114610782578063bd282d4a146107d7578063d3d79caf14610812578063e2734c931461087c578063eea5bf4b146108c9578063f2fde38b146108de578063f3864de114610917575b600080fd5b341561012257600080fd5b6101456004808035600019169060200190919080359060200190919050506109ec565b604051808773ffffffffffffffffffffffffffffffffffffffff1673ffffffffffffffffffffffffffffffffffffffff1681526020018673ffffffffffffffffffffffffffffffffffffffff1673ffffffffffffffffffffffffffffffffffffffff1681526020018560ff1660ff1681526020018481526020018381526020018260048111156101d157fe5b60ff168152602001965050505050505060405180910390f35b34156101f557600080fd5b61020f600480803560001916906020019091905050610b80565b60405180806020018060200188815260200187815260200186815260200185600481111561023957fe5b60ff1681526020018415151515815260200183810383528a818151815260200191508051906020019080838360005b83811015610283578082015181840152602081019050610268565b50505050905090810190601f1680156102b05780820380516001836020036101000a031916815260200191505b50838103825289818151815260200191508051906020019080838360005b838110156102e95780820151818401526020810190506102ce565b50505050905090810190601f1680156103165780820380516001836020036101000a031916815260200191505b50995050505050505050505060405180910390f35b341561033657600080fd5b61033e610e40565b005b341561034b57600080fd5b61037760048080356000191690602001909190803590602001909190803590602001909190505061110f565b604051808215151515815260200191505060405180910390f35b341561039c57600080fd5b6103b66004808035600019169060200190919050506111f6565b604051808215151515815260200191505060405180910390f35b34156103db57600080fd5b610407600480803573ffffffffffffffffffffffffffffffffffffffff169060200190919050506118fa565b6040518080602001806020018060200180602001806020018060200187810387528d818151815260200191508051906020019060200280838360005b8381101561045e578082015181840152602081019050610443565b5050505090500187810386528c818151815260200191508051906020019060200280838360005b838110156104a0578082015181840152602081019050610485565b5050505090500187810385528b818151815260200191508051906020019060200280838360005b838110156104e25780820151818401526020810190506104c7565b5050505090500187810384528a818151815260200191508051906020019060200280838360005b83811015610524578082015181840152602081019050610509565b50505050905001878103835289818151815260200191508051906020019060200280838360005b8381101561056657808201518184015260208101905061054b565b50505050905001878103825288818151815260200191508051906020019060200280838360005b838110156105a857808201518184015260208101905061058d565b505050509050019c5050505050505050505050505060405180910390f35b34156105d157600080fd5b6105d9611fd0565b6040518082815260200191505060405180910390f35b34156105fa57600080fd5b61061d600480803560001916906020019091908035906020019091905050611fdd565b604051808215151515815260200191505060405180910390f35b61065a6004808035600019169060200190919080359060200190919050506121fd565b604051808215151515815260200191505060405180910390f35b341561067f57600080fd5b610699600480803560001916906020019091905050612617565b604051808215151515815260200191505060405180910390f35b34156106be57600080fd5b6106c6612ebe565b6040518082815260200191505060405180910390f35b34156106e757600080fd5b610713600480803573ffffffffffffffffffffffffffffffffffffffff16906020019091905050612ecb565b604051808215151515815260200191505060405180910390f35b341561073857600080fd5b610740612f6e565b604051808273ffffffffffffffffffffffffffffffffffffffff1673ffffffffffffffffffffffffffffffffffffffff16815260200191505060405180910390f35b341561078d57600080fd5b610795612f93565b604051808273ffffffffffffffffffffffffffffffffffffffff1673ffffffffffffffffffffffffffffffffffffffff16815260200191505060405180910390f35b34156107e257600080fd5b6107fc600480803560001916906020019091905050612fb9565b6040518082815260200191505060405180910390f35b341561081d57600080fd5b610825612fe1565b6040518080602001828103825283818151815260200191508051906020019060200280838360005b8381101561086857808201518184015260208101905061084d565b505050509050019250505060405180910390f35b341561088757600080fd5b6108b3600480803573ffffffffffffffffffffffffffffffffffffffff16906020019091905050613043565b6040518082815260200191505060405180910390f35b34156108d457600080fd5b6108dc61308c565b005b34156108e957600080fd5b610915600480803573ffffffffffffffffffffffffffffffffffffffff169060200190919050506131ab565b005b6109d260048080356000191690602001909190803590602001908201803590602001908080601f0160208091040260200160405190810160405280939291908181526020018383808284378201915050505050509190803590602001908201803590602001908080601f01602080910402602001604051908101604052809392919081815260200183838082843782019150505050505091908035906020019091908035906020019091908035906020019091905050613300565b604051808215151515815260200191505060405180910390f35b6000806000806000806109fd614334565b600460008a6000191660001916815260200190815260200160002088815481101515610a2557fe5b906000526020600020906005020160c060405190810160405290816000820160009054906101000a900473ffffffffffffffffffffffffffffffffffffffff1673ffffffffffffffffffffffffffffffffffffffff1673ffffffffffffffffffffffffffffffffffffffff1681526020016001820160009054906101000a900473ffffffffffffffffffffffffffffffffffffffff1673ffffffffffffffffffffffffffffffffffffffff1673ffffffffffffffffffffffffffffffffffffffff1681526020016001820160149054906101000a900460ff1660ff1660ff16815260200160028201548152602001600382015481526020016004820160009054906101000a900460ff166004811115610b3a57fe5b6004811115610b4557fe5b815250509050806000015196508060200151955080606001519350806080015192508060a00151915080604001519450509295509295509295565b610b886143a5565b610b906143a5565b6000806000806000610ba06143b9565b600360008a6000191660001916815260200190815260200160002061012060405190810160405290816000820154600019166000191681526020016001820160009054906101000a900460ff1660ff1660ff1681526020016001820160019054906101000a900460ff1660ff1660ff1681526020016001820160029054906101000a900463ffffffff1663ffffffff1663ffffffff1681526020016001820160069054906101000a900465ffffffffffff1665ffffffffffff1665ffffffffffff16815260200160018201600c9054906101000a900460ff166004811115610c8457fe5b6004811115610c8f57fe5b815260200160018201600d9054906101000a900460ff16151515158152602001600282018054600181600116156101000203166002900480601f016020809104026020016040519081016040528092919081815260200182805460018160011615610100020316600290048015610d475780601f10610d1c57610100808354040283529160200191610d47565b820191906000526020600020905b815481529060010190602001808311610d2a57829003601f168201915b50505050508152602001600382018054600181600116156101000203166002900480601f016020809104026020016040519081016040528092919081815260200182805460018160011615610100020316600290048015610de95780601f10610dbe57610100808354040283529160200191610de9565b820191906000526020600020905b815481529060010190602001808311610dcc57829003601f168201915b50505050508152505090508060e0015197508061010001519650806020015160ff169550806040015160ff1694508060a001519250806080015165ffffffffffff1693508060c00151915050919395979092949650565b60008060009054906101000a900473ffffffffffffffffffffffffffffffffffffffff1673ffffffffffffffffffffffffffffffffffffffff163373ffffffffffffffffffffffffffffffffffffffff16141515610e9d57600080fd5b600090505b60068054905081101561103257600060056000600684815481101515610ec457fe5b906000526020600020900160009054906101000a900473ffffffffffffffffffffffffffffffffffffffff1673ffffffffffffffffffffffffffffffffffffffff1673ffffffffffffffffffffffffffffffffffffffff16815260200190815260200160002054111561102557600681815481101515610f4057fe5b906000526020600020900160009054906101000a900473ffffffffffffffffffffffffffffffffffffffff1673ffffffffffffffffffffffffffffffffffffffff166108fc60056000600685815481101515610f9857fe5b906000526020600020900160009054906101000a900473ffffffffffffffffffffffffffffffffffffffff1673ffffffffffffffffffffffffffffffffffffffff1673ffffffffffffffffffffffffffffffffffffffff168152602001908152602001600020549081150290604051600060405180830381858888f19350505050151561102457600080fd5b5b8080600101915050610ea2565b7f215be423a2afeeee1f3f4d3cc730708809a96e17103a81f16896c0722bd206356000809054906101000a900473ffffffffffffffffffffffffffffffffffffffff163073ffffffffffffffffffffffffffffffffffffffff1631604051808373ffffffffffffffffffffffffffffffffffffffff1673ffffffffffffffffffffffffffffffffffffffff1681526020018281526020019250505060405180910390a16000809054906101000a900473ffffffffffffffffffffffffffffffffffffffff1673ffffffffffffffffffffffffffffffffffffffff16ff5b6000806000809054906101000a900473ffffffffffffffffffffffffffffffffffffffff1673ffffffffffffffffffffffffffffffffffffffff163373ffffffffffffffffffffffffffffffffffffffff1614151561116d57600080fd5b6003600086600019166000191681526020019081526020016000209050838160010160006101000a81548160ff021916908360ff160217905550828160010160016101000a81548160ff021916908360ff160217905550600481600101600c6101000a81548160ff021916908360048111156111e557fe5b021790555060019150509392505050565b60006112006143b9565b600080600060036000876000191660001916815260200190815260200160002061012060405190810160405290816000820154600019166000191681526020016001820160009054906101000a900460ff1660ff1660ff1681526020016001820160019054906101000a900460ff1660ff1660ff1681526020016001820160029054906101000a900463ffffffff1663ffffffff1663ffffffff1681526020016001820160069054906101000a900465ffffffffffff1665ffffffffffff1665ffffffffffff16815260200160018201600c9054906101000a900460ff1660048111156112e957fe5b60048111156112f457fe5b815260200160018201600d9054906101000a900460ff16151515158152602001600282018054600181600116156101000203166002900480601f0160208091040260200160405190810160405280929190818152602001828054600181600116156101000203166002900480156113ac5780601f10611381576101008083540402835291602001916113ac565b820191906000526020600020905b81548152906001019060200180831161138f57829003601f168201915b50505050508152602001600382018054600181600116156101000203166002900480601f01602080910402602001604051908101604052809291908181526020018280546001816001161561010002031660029004801561144e5780601f106114235761010080835404028352916020019161144e565b820191906000526020600020905b81548152906001019060200180831161143157829003601f168201915b505050505081525050935060048081111561146557fe5b8460a00151600481111561147557fe5b14151561148157600080fd5b600760003373ffffffffffffffffffffffffffffffffffffffff1673ffffffffffffffffffffffffffffffffffffffff168152602001908152602001600020805490509250600091505b828210156118ed578560001916600760003373ffffffffffffffffffffffffffffffffffffffff1673ffffffffffffffffffffffffffffffffffffffff1681526020019081526020016000208381548110151561152457fe5b9060005260206000209060030201600101546000191614156118e057600460008760001916600019168152602001908152602001600020600760003373ffffffffffffffffffffffffffffffffffffffff1673ffffffffffffffffffffffffffffffffffffffff168152602001908152602001600020838154811015156115a757fe5b906000526020600020906003020160000160009054906101000a900463ffffffff1663ffffffff168154811015156115db57fe5b90600052602060002090600502019050600160048111156115f857fe5b8160040160009054906101000a900460ff16600481111561161557fe5b14156117675761173b848260c060405190810160405290816000820160009054906101000a900473ffffffffffffffffffffffffffffffffffffffff1673ffffffffffffffffffffffffffffffffffffffff1673ffffffffffffffffffffffffffffffffffffffff1681526020016001820160009054906101000a900473ffffffffffffffffffffffffffffffffffffffff1673ffffffffffffffffffffffffffffffffffffffff1673ffffffffffffffffffffffffffffffffffffffff1681526020016001820160149054906101000a900460ff1660ff1660ff16815260200160028201548152602001600382015481526020016004820160009054906101000a900460ff16600481111561172757fe5b600481111561173257fe5b81525050613b65565b5060048160040160006101000a81548160ff0219169083600481111561175d57fe5b02179055506118df565b6000600481111561177457fe5b8160040160009054906101000a900460ff16600481111561179157fe5b14156118de576118b68160c060405190810160405290816000820160009054906101000a900473ffffffffffffffffffffffffffffffffffffffff1673ffffffffffffffffffffffffffffffffffffffff1673ffffffffffffffffffffffffffffffffffffffff1681526020016001820160009054906101000a900473ffffffffffffffffffffffffffffffffffffffff1673ffffffffffffffffffffffffffffffffffffffff1673ffffffffffffffffffffffffffffffffffffffff1681526020016001820160149054906101000a900460ff1660ff1660ff16815260200160028201548152602001600382015481526020016004820160009054906101000a900460ff1660048111156118a257fe5b60048111156118ad57fe5b81525050613e2d565b5060038160040160006101000a81548160ff021916908360048111156118d857fe5b02179055505b5b5b81806001019250506114cb565b6001945050505050919050565b611902614436565b61190a61444a565b61191261445e565b61191a61444a565b611922614472565b61192a61444a565b611932614436565b61193a61444a565b61194261444a565b61194a614472565b61195261444a565b61195a61445e565b6000600760008f73ffffffffffffffffffffffffffffffffffffffff1673ffffffffffffffffffffffffffffffffffffffff168152602001908152602001600020805490506040518059106119ac5750595b9080825280602002602001820160405250965086516040518059106119ce5750595b9080825280602002602001820160405250955086516040518059106119f05750595b908082528060200260200182016040525094508651604051805910611a125750595b908082528060200260200182016040525093508651604051805910611a345750595b908082528060200260200182016040525092508651604051805910611a565750595b90808252806020026020018201604052509150600090505b86518163ffffffff161015611fae57600760008f73ffffffffffffffffffffffffffffffffffffffff1673ffffffffffffffffffffffffffffffffffffffff1681526020019081526020016000208163ffffffff16815481101515611acf57fe5b906000526020600020906003020160010154878263ffffffff16815181101515611af557fe5b906020019060200201906000191690816000191681525050600760008f73ffffffffffffffffffffffffffffffffffffffff1673ffffffffffffffffffffffffffffffffffffffff1681526020019081526020016000208163ffffffff16815481101515611b5f57fe5b906000526020600020906003020160000160009054906101000a900463ffffffff1663ffffffff16868263ffffffff16815181101515611b9b57fe5b906020019060200201818152505060046000888363ffffffff16815181101515611bc157fe5b9060200190602002015160001916600019168152602001908152602001600020868263ffffffff16815181101515611bf557fe5b90602001906020020151815481101515611c0b57fe5b906000526020600020906005020160000160009054906101000a900473ffffffffffffffffffffffffffffffffffffffff1673ffffffffffffffffffffffffffffffffffffffff168e73ffffffffffffffffffffffffffffffffffffffff161415611d0b5760046000888363ffffffff16815181101515611c8857fe5b9060200190602002015160001916600019168152602001908152602001600020868263ffffffff16815181101515611cbc57fe5b90602001906020020151815481101515611cd257fe5b906000526020600020906005020160020154828263ffffffff16815181101515611cf857fe5b9060200190602002018181525050611dc4565b7fffffffffffffffffffffffffffffffffffffffffffffffffffffffffffffffff60046000898463ffffffff16815181101515611d4457fe5b9060200190602002015160001916600019168152602001908152602001600020878363ffffffff16815181101515611d7857fe5b90602001906020020151815481101515611d8e57fe5b90600052602060002090600502016002015402828263ffffffff16815181101515611db557fe5b90602001906020020181815250505b600760008f73ffffffffffffffffffffffffffffffffffffffff1673ffffffffffffffffffffffffffffffffffffffff1681526020019081526020016000208163ffffffff16815481101515611e1657fe5b906000526020600020906003020160020160009054906101000a900460ff16848263ffffffff16815181101515611e4957fe5b906020019060200201901515908115158152505060046000888363ffffffff16815181101515611e7557fe5b9060200190602002015160001916600019168152602001908152602001600020868263ffffffff16815181101515611ea957fe5b90602001906020020151815481101515611ebf57fe5b906000526020600020906005020160030154858263ffffffff16815181101515611ee557fe5b906020019060200201818152505060046000888363ffffffff16815181101515611f0b57fe5b9060200190602002015160001916600019168152602001908152602001600020868263ffffffff16815181101515611f3f57fe5b90602001906020020151815481101515611f5557fe5b906000526020600020906005020160040160009054906101000a900460ff166004811115611f7f57fe5b838263ffffffff16815181101515611f9357fe5b90602001906020020181815250508080600101915050611a6e565b8686838787879c509c509c509c509c509c505050505050505091939550919395565b6000600680549050905090565b6000806004600085600019166000191681526020019081526020016000208381548110151561200857fe5b906000526020600020906005020190503373ffffffffffffffffffffffffffffffffffffffff168160000160009054906101000a900473ffffffffffffffffffffffffffffffffffffffff1673ffffffffffffffffffffffffffffffffffffffff1614151561207657600080fd5b6000600481111561208357fe5b8160040160009054906101000a900460ff1660048111156120a057fe5b1415156120ac57600080fd5b6121cb8160c060405190810160405290816000820160009054906101000a900473ffffffffffffffffffffffffffffffffffffffff1673ffffffffffffffffffffffffffffffffffffffff1673ffffffffffffffffffffffffffffffffffffffff1681526020016001820160009054906101000a900473ffffffffffffffffffffffffffffffffffffffff1673ffffffffffffffffffffffffffffffffffffffff1673ffffffffffffffffffffffffffffffffffffffff1681526020016001820160149054906101000a900460ff1660ff1660ff16815260200160028201548152602001600382015481526020016004820160009054906101000a900460ff1660048111156121b757fe5b60048111156121c257fe5b81525050613e2d565b5060028160040160006101000a81548160ff021916908360048111156121ed57fe5b0217905550600191505092915050565b6000806004600085600019166000191681526020019081526020016000208381548110151561222857fe5b9060005260206000209060050201905034816003015414151561224a57600080fd5b3373ffffffffffffffffffffffffffffffffffffffff168160000160009054906101000a900473ffffffffffffffffffffffffffffffffffffffff1673ffffffffffffffffffffffffffffffffffffffff16141515156122a957600080fd5b600060048111156122b657fe5b8160040160009054906101000a900460ff1660048111156122d357fe5b1415156122df57600080fd5b338160010160006101000a81548173ffffffffffffffffffffffffffffffffffffffff021916908373ffffffffffffffffffffffffffffffffffffffff16021790555060018160040160006101000a81548160ff0219169083600481111561234357fe5b021790555061235133613eff565b156123ba576006805480600101828161236a9190614486565b9160005260206000209001600033909190916101000a81548173ffffffffffffffffffffffffffffffffffffffff021916908373ffffffffffffffffffffffffffffffffffffffff160217905550505b600760003373ffffffffffffffffffffffffffffffffffffffff1673ffffffffffffffffffffffffffffffffffffffff168152602001908152602001600020805480600101828161240b91906144b2565b916000526020600020906003020160006060604051908101604052808763ffffffff168152602001886000191681526020016000600181111561244a57fe5b60ff168660010160149054906101000a900460ff1660ff1614151515815250909190915060008201518160000160006101000a81548163ffffffff021916908363ffffffff1602179055506020820151816001019060001916905560408201518160020160006101000a81548160ff02191690831515021790555050505034600560003373ffffffffffffffffffffffffffffffffffffffff1673ffffffffffffffffffffffffffffffffffffffff168152602001908152602001600020600082825401925050819055507f488b2f9051d0b8ee33cbf7b1879374803cd93255e85ce22ba2368a92c38c96cf8160000160009054906101000a900473ffffffffffffffffffffffffffffffffffffffff168260010160009054906101000a900473ffffffffffffffffffffffffffffffffffffffff168686604051808573ffffffffffffffffffffffffffffffffffffffff1673ffffffffffffffffffffffffffffffffffffffff1681526020018473ffffffffffffffffffffffffffffffffffffffff1673ffffffffffffffffffffffffffffffffffffffff168152602001836000191660001916815260200182815260200194505050505060405180910390a1600191505092915050565b60008060008060008060009054906101000a900473ffffffffffffffffffffffffffffffffffffffff1673ffffffffffffffffffffffffffffffffffffffff163373ffffffffffffffffffffffffffffffffffffffff1614151561267a57600080fd5b600360008760001916600019168152602001908152602001600020600101600d9054906101000a900460ff161515156126b257600080fd5b6003600087600019166000191681526020019081526020016000209350600184600101600d6101000a81548160ff0219169083151502179055506004600087600019166000191681526020019081526020016000209250600091505b8280549050821015612c7057828281548110151561272857fe5b906000526020600020906005020190506001600481111561274557fe5b8160040160009054906101000a900460ff16600481111561276257fe5b1415612aeb57612abf8461012060405190810160405290816000820154600019166000191681526020016001820160009054906101000a900460ff1660ff1660ff1681526020016001820160019054906101000a900460ff1660ff1660ff1681526020016001820160029054906101000a900463ffffffff1663ffffffff1663ffffffff1681526020016001820160069054906101000a900465ffffffffffff1665ffffffffffff1665ffffffffffff16815260200160018201600c9054906101000a900460ff16600481111561283557fe5b600481111561284057fe5b815260200160018201600d9054906101000a900460ff16151515158152602001600282018054600181600116156101000203166002900480601f0160208091040260200160405190810160405280929190818152602001828054600181600116156101000203166002900480156128f85780601f106128cd576101008083540402835291602001916128f8565b820191906000526020600020905b8154815290600101906020018083116128db57829003601f168201915b50505050508152602001600382018054600181600116156101000203166002900480601f01602080910402602001604051908101604052809291908181526020018280546001816001161561010002031660029004801561299a5780601f1061296f5761010080835404028352916020019161299a565b820191906000526020600020905b81548152906001019060200180831161297d57829003601f168201915b5050505050815250508260c060405190810160405290816000820160009054906101000a900473ffffffffffffffffffffffffffffffffffffffff1673ffffffffffffffffffffffffffffffffffffffff1673ffffffffffffffffffffffffffffffffffffffff1681526020016001820160009054906101000a900473ffffffffffffffffffffffffffffffffffffffff1673ffffffffffffffffffffffffffffffffffffffff1673ffffffffffffffffffffffffffffffffffffffff1681526020016001820160149054906101000a900460ff1660ff1660ff16815260200160028201548152602001600382015481526020016004820160009054906101000a900460ff166004811115612aab57fe5b6004811115612ab657fe5b81525050613b65565b5060048160040160006101000a81548160ff02191690836004811115612ae157fe5b0217905550612c63565b60006004811115612af857fe5b8160040160009054906101000a900460ff166004811115612b1557fe5b1415612c6257612c3a8160c060405190810160405290816000820160009054906101000a900473ffffffffffffffffffffffffffffffffffffffff1673ffffffffffffffffffffffffffffffffffffffff1673ffffffffffffffffffffffffffffffffffffffff1681526020016001820160009054906101000a900473ffffffffffffffffffffffffffffffffffffffff1673ffffffffffffffffffffffffffffffffffffffff1673ffffffffffffffffffffffffffffffffffffffff1681526020016001820160149054906101000a900460ff1660ff1660ff16815260200160028201548152602001600382015481526020016004820160009054906101000a900460ff166004811115612c2657fe5b6004811115612c3157fe5b81525050613e2d565b5060038160040160006101000a81548160ff02191690836004811115612c5c57fe5b02179055505b5b818060010192505061270e565b612eb08461012060405190810160405290816000820154600019166000191681526020016001820160009054906101000a900460ff1660ff1660ff1681526020016001820160019054906101000a900460ff1660ff1660ff1681526020016001820160029054906101000a900463ffffffff1663ffffffff1663ffffffff1681526020016001820160069054906101000a900465ffffffffffff1665ffffffffffff1665ffffffffffff16815260200160018201600c9054906101000a900460ff166004811115612d3d57fe5b6004811115612d4857fe5b815260200160018201600d9054906101000a900460ff16151515158152602001600282018054600181600116156101000203166002900480601f016020809104026020016040519081016040528092919081815260200182805460018160011615610100020316600290048015612e005780601f10612dd557610100808354040283529160200191612e00565b820191906000526020600020905b815481529060010190602001808311612de357829003601f168201915b50505050508152602001600382018054600181600116156101000203166002900480601f016020809104026020016040519081016040528092919081815260200182805460018160011615610100020316600290048015612ea25780601f10612e7757610100808354040283529160200191612ea2565b820191906000526020600020905b815481529060010190602001808311612e8557829003601f168201915b505050505081525050613f4e565b506001945050505050919050565b6000600180549050905090565b60008060009054906101000a900473ffffffffffffffffffffffffffffffffffffffff1673ffffffffffffffffffffffffffffffffffffffff163373ffffffffffffffffffffffffffffffffffffffff16141515612f2857600080fd5b81600260006101000a81548173ffffffffffffffffffffffffffffffffffffffff021916908373ffffffffffffffffffffffffffffffffffffffff160217905550919050565b6000809054906101000a900473ffffffffffffffffffffffffffffffffffffffff1681565b600260009054906101000a900473ffffffffffffffffffffffffffffffffffffffff1681565b6000600460008360001916600019168152602001908152602001600020805490509050919050565b612fe9614436565b600180548060200260200160405190810160405280929190818152602001828054801561303957602002820191906000526020600020905b81546000191681526020019060010190808311613021575b5050505050905090565b6000600560008373ffffffffffffffffffffffffffffffffffffffff1673ffffffffffffffffffffffffffffffffffffffff168152602001908152602001600020549050919050565b6000809054906101000a900473ffffffffffffffffffffffffffffffffffffffff1673ffffffffffffffffffffffffffffffffffffffff163373ffffffffffffffffffffffffffffffffffffffff161415156130e757600080fd5b6000809054906101000a900473ffffffffffffffffffffffffffffffffffffffff1673ffffffffffffffffffffffffffffffffffffffff166108fc60056000600260009054906101000a900473ffffffffffffffffffffffffffffffffffffffff1673ffffffffffffffffffffffffffffffffffffffff1673ffffffffffffffffffffffffffffffffffffffff168152602001908152602001600020549081150290604051600060405180830381858888f1935050505015156131a957600080fd5b565b6000809054906101000a900473ffffffffffffffffffffffffffffffffffffffff1673ffffffffffffffffffffffffffffffffffffffff163373ffffffffffffffffffffffffffffffffffffffff1614151561320657600080fd5b600073ffffffffffffffffffffffffffffffffffffffff168173ffffffffffffffffffffffffffffffffffffffff161415151561324257600080fd5b8073ffffffffffffffffffffffffffffffffffffffff166000809054906101000a900473ffffffffffffffffffffffffffffffffffffffff1673ffffffffffffffffffffffffffffffffffffffff167f8be0079c531659141344cd1fd0a4f28419497f9722a3daafe3b4186f6b6457e060405160405180910390a3806000806101000a81548173ffffffffffffffffffffffffffffffffffffffff021916908373ffffffffffffffffffffffffffffffffffffffff16021790555050565b600061330a6143b9565b613312614334565b6000428611151561332257600080fd5b600060198681151561333057fe5b0714801561334b5750600860198681151561334757fe5b0513155b801561338357507ffffffffffffffffffffffffffffffffffffffffffffffffffffffffffffffff860198681151561337f57fe5b0512155b151561338e57600080fd5b600360008b6000191660001916815260200190815260200160002061012060405190810160405290816000820154600019166000191681526020016001820160009054906101000a900460ff1660ff1660ff1681526020016001820160019054906101000a900460ff1660ff1660ff1681526020016001820160029054906101000a900463ffffffff1663ffffffff1663ffffffff1681526020016001820160069054906101000a900465ffffffffffff1665ffffffffffff1665ffffffffffff16815260200160018201600c9054906101000a900460ff16600481111561347257fe5b600481111561347d57fe5b815260200160018201600d9054906101000a900460ff16151515158152602001600282018054600181600116156101000203166002900480601f0160208091040260200160405190810160405280929190818152602001828054600181600116156101000203166002900480156135355780601f1061350a57610100808354040283529160200191613535565b820191906000526020600020905b81548152906001019060200180831161351857829003601f168201915b50505050508152602001600382018054600181600116156101000203166002900480601f0160208091040260200160405190810160405280929190818152602001828054600181600116156101000203166002900480156135d75780601f106135ac576101008083540402835291602001916135d7565b820191906000526020600020905b8154815290600101906020018083116135ba57829003601f168201915b5050505050815250509250600060048111156135ef57fe5b8360a0015160048111156135ff57fe5b14156137fa578983600001906000191690816000191681525050888360e001819052508783610100018190525085836080019065ffffffffffff16908165ffffffffffff168152505060018360a00190600481111561365a57fe5b9081600481111561366757fe5b81525050600180805480600101828161368091906144e4565b916000526020600020900160008d90919091509060001916905503836060019063ffffffff16908163ffffffff168152505082600360008c600019166000191681526020019081526020016000206000820151816000019060001916905560208201518160010160006101000a81548160ff021916908360ff16021790555060408201518160010160016101000a81548160ff021916908360ff16021790555060608201518160010160026101000a81548163ffffffff021916908363ffffffff16021790555060808201518160010160066101000a81548165ffffffffffff021916908365ffffffffffff16021790555060a082015181600101600c6101000a81548160ff0219169083600481111561379657fe5b021790555060c082015181600101600d6101000a81548160ff02191690831515021790555060e08201518160020190805190602001906137d7929190614510565b506101008201518160030190805190602001906137f5929190614510565b509050505b60c0604051908101604052803373ffffffffffffffffffffffffffffffffffffffff168152602001600073ffffffffffffffffffffffffffffffffffffffff1681526020018860ff1681526020018681526020013481526020016000600481111561386157fe5b81525091506001600460008c6000191660001916815260200190815260200160002080548060010182816138959190614590565b9160005260206000209060050201600085909190915060008201518160000160006101000a81548173ffffffffffffffffffffffffffffffffffffffff021916908373ffffffffffffffffffffffffffffffffffffffff16021790555060208201518160010160006101000a81548173ffffffffffffffffffffffffffffffffffffffff021916908373ffffffffffffffffffffffffffffffffffffffff16021790555060408201518160010160146101000a81548160ff021916908360ff160217905550606082015181600201556080820151816003015560a08201518160040160006101000a81548160ff0219169083600481111561399257fe5b021790555050500390506139a533613eff565b15613a0e57600680548060010182816139be9190614486565b9160005260206000209001600033909190916101000a81548173ffffffffffffffffffffffffffffffffffffffff021916908373ffffffffffffffffffffffffffffffffffffffff160217905550505b600760003373ffffffffffffffffffffffffffffffffffffffff1673ffffffffffffffffffffffffffffffffffffffff1681526020019081526020016000208054806001018281613a5f91906144b2565b916000526020600020906003020160006060604051908101604052808563ffffffff1681526020018e60001916815260200160006001811115613a9e57fe5b60ff168c141515815250909190915060008201518160000160006101000a81548163ffffffff021916908363ffffffff1602179055506020820151816001019060001916905560408201518160020160006101000a81548160ff02191690831515021790555050505034600560003373ffffffffffffffffffffffffffffffffffffffff1673ffffffffffffffffffffffffffffffffffffffff16815260200190815260200160002060008282540192505081905550600193505050509695505050505050565b6000613b6f6145c2565b6000613b796145f1565b613b838686613f63565b9250600091505b6002821015613bfd578282600281101515613ba157fe5b6020020151905060008160200151118015613bd757506000816000015173ffffffffffffffffffffffffffffffffffffffff1614155b15613bf057613bee81600001518260200151614104565b505b8180600101925050613b8a565b846080015160056000876000015173ffffffffffffffffffffffffffffffffffffffff1673ffffffffffffffffffffffffffffffffffffffff168152602001908152602001600020540360056000876000015173ffffffffffffffffffffffffffffffffffffffff1673ffffffffffffffffffffffffffffffffffffffff16815260200190815260200160002081905550846080015160056000876020015173ffffffffffffffffffffffffffffffffffffffff1673ffffffffffffffffffffffffffffffffffffffff168152602001908152602001600020540360056000876020015173ffffffffffffffffffffffffffffffffffffffff1673ffffffffffffffffffffffffffffffffffffffff168152602001908152602001600020819055506064605f866080015102811515613d3257fe5b04856080015160056000600260009054906101000a900473ffffffffffffffffffffffffffffffffffffffff1673ffffffffffffffffffffffffffffffffffffffff1673ffffffffffffffffffffffffffffffffffffffff16815260200190815260200160002054010360056000600260009054906101000a900473ffffffffffffffffffffffffffffffffffffffff1673ffffffffffffffffffffffffffffffffffffffff1673ffffffffffffffffffffffffffffffffffffffff1681526020019081526020016000208190555060048560a001906004811115613e1357fe5b90816004811115613e2057fe5b8152505050505092915050565b6000613e4182600001518360800151614104565b5060038260a001906004811115613e5457fe5b90816004811115613e6157fe5b81525050816080015160056000846000015173ffffffffffffffffffffffffffffffffffffffff1673ffffffffffffffffffffffffffffffffffffffff168152602001908152602001600020540360056000846000015173ffffffffffffffffffffffffffffffffffffffff1673ffffffffffffffffffffffffffffffffffffffff1681526020019081526020016000208190555060019050919050565b600080600760008473ffffffffffffffffffffffffffffffffffffffff1673ffffffffffffffffffffffffffffffffffffffff1681526020019081526020016000208054905011159050919050565b6000613f598261416c565b5060019050919050565b613f6b6145c2565b6000806001811115613f7957fe5b60ff16836040015160ff161415613ffe57606060405190810160405280846000015173ffffffffffffffffffffffffffffffffffffffff168152602001613fd9866040015160ff16876020015160ff160386606001518760800151614249565b815260200184815250826000600281101515613ff157fe5b602002018190525061406e565b606060405190810160405280846000015173ffffffffffffffffffffffffffffffffffffffff16815260200161404d866020015160ff16876040015160ff160386606001518760800151614249565b81526020018481525082600060028110151561406557fe5b60200201819052505b81600060028110151561407d57fe5b6020020151602001516064605f85608001510281151561409957fe5b0484608001510103905060008111156140fa57606060405190810160405280846020015173ffffffffffffffffffffffffffffffffffffffff168152602001828152602001848152508260016002811015156140f157fe5b60200201819052505b8191505092915050565b6000808373ffffffffffffffffffffffffffffffffffffffff16141515614166578273ffffffffffffffffffffffffffffffffffffffff166108fc839081150290604051600060405180830381858888f19350505050151561416557600080fd5b5b92915050565b6000806000836060015191506001808054905003905060018163ffffffff1681548110151561419757fe5b90600052602060002090015460018363ffffffff168154811015156141b857fe5b90600052602060002090018160001916905550816003600060018563ffffffff168154811015156141e557fe5b9060005260206000209001546000191660001916815260200190815260200160002060010160026101000a81548163ffffffff021916908363ffffffff160217905550600180548091906001900361423d9190614630565b50600192505050919050565b60006019606485028401141561427e5760026064605f840281151561426a57fe5b0481151561427457fe5b048201905061432d565b7fffffffffffffffffffffffffffffffffffffffffffffffffffffffffffffffe760648502840114156142ce5760026064605f84028115156142bc57fe5b048115156142c657fe5b04905061432d565b600060648502840114156143015760026064600584028115156142ed57fe5b048115156142f757fe5b048203905061432d565b60196064850284011315614328576064605f830281151561431e57fe5b048201905061432d565b600090505b9392505050565b60c060405190810160405280600073ffffffffffffffffffffffffffffffffffffffff168152602001600073ffffffffffffffffffffffffffffffffffffffff168152602001600060ff16815260200160008152602001600081526020016000600481111561439f57fe5b81525090565b602060405190810160405280600081525090565b6101206040519081016040528060008019168152602001600060ff168152602001600060ff168152602001600063ffffffff168152602001600065ffffffffffff1681526020016000600481111561440d57fe5b815260200160001515815260200161442361465c565b815260200161443061465c565b81525090565b602060405190810160405280600081525090565b602060405190810160405280600081525090565b602060405190810160405280600081525090565b602060405190810160405280600081525090565b8154818355818115116144ad578183600052602060002091820191016144ac9190614670565b5b505050565b8154818355818115116144df576003028160030283600052602060002091820191016144de9190614695565b5b505050565b81548183558181151161450b5781836000526020600020918201910161450a91906146e7565b5b505050565b828054600181600116156101000203166002900490600052602060002090601f016020900481019282601f1061455157805160ff191683800117855561457f565b8280016001018555821561457f579182015b8281111561457e578251825591602001919060010190614563565b5b50905061458c9190614670565b5090565b8154818355818115116145bd576005028160050283600052602060002091820191016145bc919061470c565b5b505050565b610200604051908101604052806002905b6145db6147b1565b8152602001906001900390816145d35790505090565b61010060405190810160405280600073ffffffffffffffffffffffffffffffffffffffff1681526020016000815260200161462a6147f0565b81525090565b8154818355818115116146575781836000526020600020918201910161465691906146e7565b5b505050565b602060405190810160405280600081525090565b61469291905b8082111561468e576000816000905550600101614676565b5090565b90565b6146e491905b808211156146e057600080820160006101000a81549063ffffffff021916905560018201600090556002820160006101000a81549060ff02191690555060030161469b565b5090565b90565b61470991905b808211156147055760008160009055506001016146ed565b5090565b90565b6147ae91905b808211156147aa57600080820160006101000a81549073ffffffffffffffffffffffffffffffffffffffff02191690556001820160006101000a81549073ffffffffffffffffffffffffffffffffffffffff02191690556001820160146101000a81549060ff0219169055600282016000905560038201600090556004820160006101000a81549060ff021916905550600501614712565b5090565b90565b61010060405190810160405280600073ffffffffffffffffffffffffffffffffffffffff168152602001600081526020016147ea6147f0565b81525090565b60c060405190810160405280600073ffffffffffffffffffffffffffffffffffffffff168152602001600073ffffffffffffffffffffffffffffffffffffffff168152602001600060ff16815260200160008152602001600081526020016000600481111561485b57fe5b815250905600a165627a7a723058207cbfde758b7696eec81a6398f72899bf7be88c728cb9a5a56493669f7f3136ed0029",
  "source": "pragma solidity ^0.4.21;\n\n// File: contracts/Ownable.sol\n\ncontract Ownable {\n\n  address public owner;\n\n\n  event OwnershipTransferred(address indexed previousOwner, address indexed newOwner);\n\n\n  /**\n   * @dev The Ownable constructor sets the original `owner` of the contract to the sender\n   * account.\n   */\n  function Ownable() public {\n    owner = msg.sender;\n  }\n\n  /**\n   * @dev Throws if called by any account other than the owner.\n   */\n  modifier onlyOwner() {\n    require(msg.sender == owner);\n    _;\n  }\n\n  /**\n   * @dev Allows the current owner to transfer control of the contract to a newOwner.\n   * @param newOwner The address to transfer ownership to.\n   */\n  function transferOwnership(address newOwner) public onlyOwner {\n    require(newOwner != address(0));\n    emit OwnershipTransferred(owner, newOwner);\n    owner = newOwner;\n  }\n\n}\n\n// File: contracts/SoloBet.sol\n\ncontract SoloBet is Ownable {\n  enum Team {Home, Away}\n  enum MatchStatus {NotAvailable, Waiting, Playing, Canceled, Finished}\n  enum BetStatus {Open, Deal, Canceled, Refunded, Done}\n\n  event LogDeal(address bMaker, address punter, bytes32 matchId, uint256 betingId);\n\n  struct Match {\n\n    bytes32 id;\n    uint8 hSc; // home score\n    uint8 aSc;  // away score\n    uint32 idx;\n    uint48 time;\n    MatchStatus status;\n    bool isApproved;\n    string hT; // home Team\n    string aT; // away Team\n\n  }\n\n  bytes32[] betIndexes;\n\n  struct Betting {\n    address bMaker;\n    address punter;\n    uint8 bmTeam; //bMaker team\n    int odds;\n    uint256 amount;\n    BetStatus status;\n  }\n\n\n  struct Funding {\n\n    address receiver;\n    uint256 amount;\n    Betting betting;\n\n  }\n\n  struct MyBet {\n    uint32 betIdx;\n    bytes32 matchId;\n    bool bet4HTeam;\n  }\n\n  address public feeOwner;\n  mapping(bytes32 => Match) matches;\n  mapping(bytes32 => Betting[]) bets;\n  mapping(address => uint256) balances;\n  address[] players;\n  mapping(address => MyBet[]) myBets;\n\n\n\n  function isPlayerNotExist(address player) internal view returns (bool) {\n    return myBets[player].length <= 0;\n  }\n\n  function countPlayers() public view returns (uint) {\n    return players.length;\n  }\n\n  function getPlayerBalance(address player) public view returns (uint256) {\n    return balances[player];\n  }\n\n  function changeFeeOwner(address _feeOwner) public onlyOwner returns (bool) {\n    feeOwner = _feeOwner;\n  }\n\n  function totalBets(bytes32 matchId) public view returns (uint256);\n\n  function getBettingMatchIds() public view returns (bytes32[]);\n\n  function getTotalBettingMatches() public view returns (uint256);\n\n  function findMatch(bytes32 matchId) public view returns (string hT, string aT, uint hSc, uint aSc, uint time, MatchStatus status, bool isScoreApproved);\n\n  function getBettingInfo(bytes32 matchId, uint256 bettingId) public view returns (address bMaker, address punter, uint8 pair, int odds, uint256 amount, BetStatus status);\n\n  function getBettingMatchesByAddress(address owner) public view returns (bytes32[] matchIds, uint256[] betIdxes, int[] odds, uint256[] amounts, bool[]choosehT, uint[] status);\n\n  function deal(bytes32 matchId, uint256 bettingId) public payable returns (bool);\n\n  function offerNewMatch(bytes32 matchId, string hT, string aT, uint pair, uint time, int rate) public payable returns (bool);\n\n  function cancelOffer(bytes32 matchId, uint256 bettingId) external returns (bool);\n\n  function approveScore(bytes32 matchId) public onlyOwner returns (bool);\n\n  function updateScore(bytes32 matchId, uint hSc, uint aSc) public onlyOwner returns (bool);\n//  function claimStake(bytes32 matchId) public returns (bool);\n\n  function withDrawFee() public onlyOwner {\n    owner.transfer(balances[feeOwner]);\n  }\n}\n\n// File: contracts/AsianSoloBet.sol\n\ncontract AsianSoloBet is Ownable, SoloBet {\n\n  function AsianSoloBet() public {\n    feeOwner = msg.sender;\n  }\n\n\n  function getBettingMatchesByAddress(address bettingOwner) public view returns (bytes32[], uint256[], int[], uint256[], bool[], uint[]) {\n    bytes32[] memory matchIds = new bytes32[](myBets[bettingOwner].length);\n    uint256[] memory betIdxes = new uint256[](matchIds.length);\n    uint256[] memory amounts = new uint256[](matchIds.length);\n    bool[]memory slHTeam = new bool[](matchIds.length);\n    uint256[] memory status = new uint256[](matchIds.length);\n    int[] memory odds = new int[](matchIds.length);\n    for (uint32 i = 0; i < matchIds.length; i++) {\n\n      matchIds[i] = myBets[bettingOwner][i].matchId;\n      betIdxes[i] = uint256(myBets[bettingOwner][i].betIdx);\n      if (bettingOwner == bets[matchIds[i]][betIdxes[i]].bMaker) {\n        odds[i] = bets[matchIds[i]][betIdxes[i]].odds;\n      } else {\n        odds[i] = bets[matchIds[i]][betIdxes[i]].odds * - 1;\n      }\n      slHTeam[i] = myBets[bettingOwner][i].bet4HTeam;\n      amounts[i] = bets[matchIds[i]][betIdxes[i]].amount;\n      status[i] = uint256(bets[matchIds[i]][betIdxes[i]].status);\n    }\n\n    return (matchIds, betIdxes, odds, amounts, slHTeam, status);\n  }\n\n\n  function totalBets(bytes32 matchId) public view returns (uint256) {\n    return bets[matchId].length;\n  }\n\n\n  function findMatch(bytes32 matchId) public view returns (\n    string homeTeam,\n    string awayTeam,\n    uint homeScore,\n    uint awayScore,\n    uint time,\n    MatchStatus status,\n    bool isApproved) {\n\n    Match memory _match = matches[matchId];\n\n    homeTeam = _match.hT;\n    awayTeam = _match.aT;\n    homeScore = _match.hSc;\n    awayScore = _match.aSc;\n    status = _match.status;\n    time = _match.time;\n    isApproved = _match.isApproved;\n  }\n\n\n  function updateScore(bytes32 matchId, uint homeScore, uint awayScore) public onlyOwner returns (bool) {\n    Match storage _match = matches[matchId];\n    _match.hSc = uint8(homeScore);\n    _match.aSc = uint8(awayScore);\n    _match.status = MatchStatus.Finished;\n    return true;\n  }\n\n  function approveScore(bytes32 matchId) public onlyOwner returns (bool) {\n    require(!matches[matchId].isApproved);\n    Match storage _match = matches[matchId];\n    _match.isApproved = true;\n\n    Betting[] storage _bettings = bets[matchId];\n    for (uint256 i = 0; i < _bettings.length; i++) {\n\n      Betting storage _betting = _bettings[i];\n      if (_betting.status == BetStatus.Deal) {\n        doTransfer(_match, _betting);\n        _betting.status = BetStatus.Done;\n      } else if (_betting.status == BetStatus.Open) {\n        refund(_betting);\n        _betting.status = BetStatus.Refunded;\n      }\n\n    }\n\n    rmBet(_match);\n    return true;\n  }\n\n  function claimStake(bytes32 matchId) public returns (bool) {\n    Match memory _match = matches[matchId];\n    require(_match.status == MatchStatus.Finished);\n    uint betCount = myBets[msg.sender].length;\n    for (uint i = 0; i < betCount; i++) {\n\n      if (myBets[msg.sender][i].matchId == matchId) {\n        Betting storage _betting = bets[matchId][myBets[msg.sender][i].betIdx];\n        if (_betting.status == BetStatus.Deal) {\n          doTransfer(_match, _betting);\n          _betting.status = BetStatus.Done;\n        } else if (_betting.status == BetStatus.Open) {\n          refund(_betting);\n          _betting.status = BetStatus.Refunded;\n        }\n      }\n    }\n    return true;\n\n  }\n\n\n  function cancelOffer(bytes32 matchId, uint256 bettingId) external returns (bool){\n    Betting storage _betting = bets[matchId][bettingId];\n    require(_betting.bMaker == msg.sender);\n    require(_betting.status == BetStatus.Open);\n    refund(_betting);\n    _betting.status = BetStatus.Canceled;\n    return true;\n  }\n\n  function rmBet(Match _match) private returns (bool){\n    //delete bets[_match.id];\n    rmBetIdx(_match);\n    return true;\n  }\n\n  function rmBetIdx(Match _match) private returns (bool) {\n\n    uint32 toDelete = _match.idx;\n    uint32 lastIdx = uint32(betIndexes.length - 1);\n    betIndexes[toDelete] = betIndexes[lastIdx];\n    matches[betIndexes[toDelete]].idx = toDelete;\n    betIndexes.length--;\n    return true;\n  }\n\n  function transferFund(address receiver, uint256 amount) private returns (bool) {\n    if (receiver != 0x0) {\n      receiver.transfer(amount);\n    }\n  }\n\n  function refund(Betting _betting) internal returns (bool) {\n    transferFund(_betting.bMaker, _betting.amount);\n    _betting.status = BetStatus.Refunded;\n    balances[_betting.bMaker] = balances[_betting.bMaker] - _betting.amount;\n    return true;\n  }\n\n  function doTransfer(Match _match, Betting _betting) internal returns (bool) {\n\n    Funding[2] memory fundings = getFunding(_match, _betting);\n    for (uint i = 0; i < fundings.length; i++) {\n      Funding memory funding = fundings[i];\n      if (funding.amount > 0 && funding.receiver != 0x0) {\n        transferFund(funding.receiver, funding.amount);\n      }\n    }\n\n    balances[_betting.bMaker] = balances[_betting.bMaker] - _betting.amount;\n    balances[_betting.punter] = balances[_betting.punter] - _betting.amount;\n    balances[feeOwner] = balances[feeOwner] + _betting.amount - _betting.amount * 95 / 100;\n    _betting.status = BetStatus.Done;\n  }\n\n\n  function getFunding(Match _match, Betting _betting) internal returns (Funding[2] fundings) {\n\n    if (_betting.bmTeam == uint8(Team.Home)) {\n      fundings[0] = Funding(_betting.bMaker, calculateAmount(int(_match.hSc) - int(_match.aSc), _betting.odds, _betting.amount), _betting);\n    } else {\n      fundings[0] = Funding(_betting.bMaker, calculateAmount(int(_match.aSc) - int(_match.hSc), _betting.odds, _betting.amount), _betting);\n    }\n\n    uint punterAmount = _betting.amount + _betting.amount * 95 / 100 - fundings[0].amount;\n    if (punterAmount > 0) {\n      fundings[1] = Funding(_betting.punter, punterAmount, _betting);\n    }\n    return fundings;\n  }\n\n  function calculateAmount(int goaldifference, int odds, uint amount) private returns (uint256) {\n    if ((odds + goaldifference * 100) == 25) return amount + amount * 95 / 100 / 2;\n    if ((odds + goaldifference * 100) == - 25) return amount * 95 / 100 / 2;\n    if ((odds + goaldifference * 100) == 0) return amount - amount * 5 / 100 / 2;\n    if ((odds + goaldifference * 100) > 25) return amount + amount * 95 / 100;\n\n    return 0;\n\n  }\n\n  function getBettingMatchIds() public view returns (bytes32[]) {\n    return betIndexes;\n  }\n\n  function getTotalBettingMatches() public view returns (uint256) {\n    return betIndexes.length;\n  }\n\n  function offerNewMatch(bytes32 matchId, string homeTeam, string awayTeam, uint selectedTeam, uint time, int odds) public payable returns (bool) {\n\n    require(time > now);\n    require((odds % 25 == 0) && (odds / 25 <= 8) && (odds / 25 >= - 8));\n\n    Match memory _match = matches[matchId];\n\n    if (_match.status == MatchStatus.NotAvailable) {\n      _match.id = matchId;\n      _match.hT = homeTeam;\n      _match.aT = awayTeam;\n      _match.time = uint48(time);\n      _match.status = MatchStatus.Waiting;\n      _match.idx = uint32(betIndexes.push(matchId) - 1);\n      matches[matchId] = _match;\n    }\n\n    Betting memory _betting = Betting(msg.sender, 0x0, uint8(selectedTeam), odds, msg.value, BetStatus.Open);\n    uint32 betIdx = uint32(bets[matchId].push(_betting) - 1);\n    if (isPlayerNotExist(msg.sender)) {\n      players.push(msg.sender);\n    }\n    myBets[msg.sender].push(MyBet(betIdx, matchId, selectedTeam == uint8(Team.Home)));\n    balances[msg.sender] += msg.value;\n    return true;\n\n  }\n\n  function deal(bytes32 matchId, uint256 bettingId) public payable returns (bool) {\n    Betting storage _betting = bets[matchId][bettingId];\n    require(_betting.amount == msg.value);\n    require(_betting.bMaker != msg.sender);\n    require(_betting.status == BetStatus.Open);\n    _betting.punter = msg.sender;\n    _betting.status = BetStatus.Deal;\n\n    if (isPlayerNotExist(msg.sender)) {\n      players.push(msg.sender);\n    }\n\n    myBets[msg.sender].push(MyBet(uint32(bettingId), matchId, _betting.bmTeam != uint8(Team.Home)));\n\n    balances[msg.sender] += msg.value;\n\n    emit LogDeal(_betting.bMaker, _betting.punter, matchId, bettingId);\n\n    return true;\n  }\n\n  function getBettingInfo(bytes32 matchId, uint256 bettingId) public view returns (address bMaker, address punter, uint8 selectedTeam, int odds, uint256 amount, BetStatus status) {\n    Betting memory _betting = bets[matchId][bettingId];\n    bMaker = _betting.bMaker;\n    punter = _betting.punter;\n    odds = _betting.odds;\n    amount = _betting.amount;\n    status = _betting.status;\n    selectedTeam = _betting.bmTeam;\n  }\n\n  event LogSelfDestruct(address sender, uint amount);\n\n  function destroyContract() public onlyOwner {\n    for (uint i = 0; i < players.length; i++) {\n      if (balances[players[i]] > 0) {\n        players[i].transfer(balances[players[i]]);\n      }\n    }\n\n    emit LogSelfDestruct(owner, this.balance);\n    selfdestruct(owner);\n  }\n}\n",
  "sourcePath": "/home/chuonghd/Project/smartcontract/football-bet/contracts/AsianSoloBet.sol",
  "compiler": {
    "name": "solc",
    "version": "0.4.21+commit.dfe3193c.Emscripten.clang"
  },
  "schemaVersion": "2.0.0",
  "updatedAt": "2018-08-04T15:02:32.871Z"
}