{
  "contractName": "AsianSoloBet",
  "abi": [
    {
      "constant": true,
      "inputs": [],
      "name": "countPlayers",
      "outputs": [
        {
          "name": "",
          "type": "uint256"
        }
      ],
      "payable": false,
      "stateMutability": "view",
      "type": "function"
    },
    {
      "constant": false,
      "inputs": [
        {
          "name": "_feeOwner",
          "type": "address"
        }
      ],
      "name": "changeFeeOwner",
      "outputs": [
        {
          "name": "",
          "type": "bool"
        }
      ],
      "payable": false,
      "stateMutability": "nonpayable",
      "type": "function"
    },
    {
      "constant": true,
      "inputs": [],
      "name": "owner",
      "outputs": [
        {
          "name": "",
          "type": "address"
        }
      ],
      "payable": false,
      "stateMutability": "view",
      "type": "function"
    },
    {
      "constant": true,
      "inputs": [],
      "name": "feeOwner",
      "outputs": [
        {
          "name": "",
          "type": "address"
        }
      ],
      "payable": false,
      "stateMutability": "view",
      "type": "function"
    },
    {
      "constant": true,
      "inputs": [
        {
          "name": "player",
          "type": "address"
        }
      ],
      "name": "getPlayerBalance",
      "outputs": [
        {
          "name": "",
          "type": "uint256"
        }
      ],
      "payable": false,
      "stateMutability": "view",
      "type": "function"
    },
    {
      "constant": false,
      "inputs": [],
      "name": "withDrawFee",
      "outputs": [],
      "payable": false,
      "stateMutability": "nonpayable",
      "type": "function"
    },
    {
      "constant": false,
      "inputs": [
        {
          "name": "newOwner",
          "type": "address"
        }
      ],
      "name": "transferOwnership",
      "outputs": [],
      "payable": false,
      "stateMutability": "nonpayable",
      "type": "function"
    },
    {
      "inputs": [],
      "payable": false,
      "stateMutability": "nonpayable",
      "type": "constructor"
    },
    {
      "anonymous": false,
      "inputs": [
        {
          "indexed": false,
          "name": "sender",
          "type": "address"
        },
        {
          "indexed": false,
          "name": "amount",
          "type": "uint256"
        }
      ],
      "name": "LogSelfDestruct",
      "type": "event"
    },
    {
      "anonymous": false,
      "inputs": [
        {
          "indexed": false,
          "name": "bMaker",
          "type": "address"
        },
        {
          "indexed": false,
          "name": "punter",
          "type": "address"
        },
        {
          "indexed": false,
          "name": "matchId",
          "type": "bytes32"
        },
        {
          "indexed": false,
          "name": "betingId",
          "type": "uint256"
        }
      ],
      "name": "LogDeal",
      "type": "event"
    },
    {
      "anonymous": false,
      "inputs": [
        {
          "indexed": true,
          "name": "previousOwner",
          "type": "address"
        },
        {
          "indexed": true,
          "name": "newOwner",
          "type": "address"
        }
      ],
      "name": "OwnershipTransferred",
      "type": "event"
    },
    {
      "constant": true,
      "inputs": [
        {
          "name": "bettingOwner",
          "type": "address"
        }
      ],
      "name": "getBettingMatchesByAddress",
      "outputs": [
        {
          "name": "",
          "type": "bytes32[]"
        },
        {
          "name": "",
          "type": "uint256[]"
        },
        {
          "name": "",
          "type": "int256[]"
        },
        {
          "name": "",
          "type": "uint256[]"
        },
        {
          "name": "",
          "type": "bool[]"
        },
        {
          "name": "",
          "type": "uint256[]"
        }
      ],
      "payable": false,
      "stateMutability": "view",
      "type": "function"
    },
    {
      "constant": true,
      "inputs": [
        {
          "name": "matchId",
          "type": "bytes32"
        }
      ],
      "name": "totalBets",
      "outputs": [
        {
          "name": "",
          "type": "uint256"
        }
      ],
      "payable": false,
      "stateMutability": "view",
      "type": "function"
    },
    {
      "constant": true,
      "inputs": [
        {
          "name": "matchId",
          "type": "bytes32"
        }
      ],
      "name": "findMatch",
      "outputs": [
        {
          "name": "homeTeam",
          "type": "string"
        },
        {
          "name": "awayTeam",
          "type": "string"
        },
        {
          "name": "homeScore",
          "type": "uint256"
        },
        {
          "name": "awayScore",
          "type": "uint256"
        },
        {
          "name": "time",
          "type": "uint256"
        },
        {
          "name": "status",
          "type": "uint8"
        },
        {
          "name": "isApproved",
          "type": "bool"
        }
      ],
      "payable": false,
      "stateMutability": "view",
      "type": "function"
    },
    {
      "constant": false,
      "inputs": [
        {
          "name": "matchId",
          "type": "bytes32"
        },
        {
          "name": "homeScore",
          "type": "uint256"
        },
        {
          "name": "awayScore",
          "type": "uint256"
        }
      ],
      "name": "updateScore",
      "outputs": [
        {
          "name": "",
          "type": "bool"
        }
      ],
      "payable": false,
      "stateMutability": "nonpayable",
      "type": "function"
    },
    {
      "constant": false,
      "inputs": [
        {
          "name": "matchId",
          "type": "bytes32"
        }
      ],
      "name": "approveScore",
      "outputs": [
        {
          "name": "",
          "type": "bool"
        }
      ],
      "payable": false,
      "stateMutability": "nonpayable",
      "type": "function"
    },
    {
      "constant": false,
      "inputs": [
        {
          "name": "matchId",
          "type": "bytes32"
        }
      ],
      "name": "claimStake",
      "outputs": [
        {
          "name": "",
          "type": "bool"
        }
      ],
      "payable": false,
      "stateMutability": "nonpayable",
      "type": "function"
    },
    {
      "constant": false,
      "inputs": [
        {
          "name": "matchId",
          "type": "bytes32"
        },
        {
          "name": "bettingId",
          "type": "uint256"
        }
      ],
      "name": "cancelOffer",
      "outputs": [
        {
          "name": "",
          "type": "bool"
        }
      ],
      "payable": false,
      "stateMutability": "nonpayable",
      "type": "function"
    },
    {
      "constant": true,
      "inputs": [],
      "name": "getBettingMatchIds",
      "outputs": [
        {
          "name": "",
          "type": "bytes32[]"
        }
      ],
      "payable": false,
      "stateMutability": "view",
      "type": "function"
    },
    {
      "constant": true,
      "inputs": [],
      "name": "getTotalBettingMatches",
      "outputs": [
        {
          "name": "",
          "type": "uint256"
        }
      ],
      "payable": false,
      "stateMutability": "view",
      "type": "function"
    },
    {
      "constant": false,
      "inputs": [
        {
          "name": "matchId",
          "type": "bytes32"
        },
        {
          "name": "homeTeam",
          "type": "string"
        },
        {
          "name": "awayTeam",
          "type": "string"
        },
        {
          "name": "selectedTeam",
          "type": "uint256"
        },
        {
          "name": "time",
          "type": "uint256"
        },
        {
          "name": "odds",
          "type": "int256"
        }
      ],
      "name": "offerNewMatch",
      "outputs": [
        {
          "name": "",
          "type": "bool"
        }
      ],
      "payable": true,
      "stateMutability": "payable",
      "type": "function"
    },
    {
      "constant": false,
      "inputs": [
        {
          "name": "matchId",
          "type": "bytes32"
        },
        {
          "name": "bettingId",
          "type": "uint256"
        }
      ],
      "name": "deal",
      "outputs": [
        {
          "name": "",
          "type": "bool"
        }
      ],
      "payable": true,
      "stateMutability": "payable",
      "type": "function"
    },
    {
      "constant": true,
      "inputs": [
        {
          "name": "matchId",
          "type": "bytes32"
        },
        {
          "name": "bettingId",
          "type": "uint256"
        }
      ],
      "name": "getBettingInfo",
      "outputs": [
        {
          "name": "bMaker",
          "type": "address"
        },
        {
          "name": "punter",
          "type": "address"
        },
        {
          "name": "selectedTeam",
          "type": "uint8"
        },
        {
          "name": "odds",
          "type": "int256"
        },
        {
          "name": "amount",
          "type": "uint256"
        },
        {
          "name": "status",
          "type": "uint8"
        }
      ],
      "payable": false,
      "stateMutability": "view",
      "type": "function"
    },
    {
      "constant": false,
      "inputs": [],
      "name": "destroyContract",
      "outputs": [],
      "payable": false,
      "stateMutability": "nonpayable",
      "type": "function"
    }
  ],
  "bytecode": "0x6060604052341561000f57600080fd5b336000806101000a81548173ffffffffffffffffffffffffffffffffffffffff021916908373ffffffffffffffffffffffffffffffffffffffff16021790555033600260006101000a81548173ffffffffffffffffffffffffffffffffffffffff021916908373ffffffffffffffffffffffffffffffffffffffff16021790555061488d8061009f6000396000f300606060405260043610610112576000357c0100000000000000000000000000000000000000000000000000000000900463ffffffff16806301cd6b9c146101175780630662ce01146101ea578063092a5cce1461032b5780633c9b03f3146103405780634007c5ad1461039157806341deb678146103d05780634bec8b39146105c6578063616f8863146105ef578063679153cd146106375780637bbe09f5146106745780637df79e8c146106b357806384465fa5146106dc5780638da5cb5b1461072d578063b9818be114610782578063bd282d4a146107d7578063d3d79caf14610812578063e2734c931461087c578063eea5bf4b146108c9578063f2fde38b146108de578063f3864de114610917575b600080fd5b341561012257600080fd5b6101456004808035600019169060200190919080359060200190919050506109ec565b604051808773ffffffffffffffffffffffffffffffffffffffff1673ffffffffffffffffffffffffffffffffffffffff1681526020018673ffffffffffffffffffffffffffffffffffffffff1673ffffffffffffffffffffffffffffffffffffffff1681526020018560ff1660ff1681526020018481526020018381526020018260048111156101d157fe5b60ff168152602001965050505050505060405180910390f35b34156101f557600080fd5b61020f600480803560001916906020019091905050610b80565b60405180806020018060200188815260200187815260200186815260200185600481111561023957fe5b60ff1681526020018415151515815260200183810383528a818151815260200191508051906020019080838360005b83811015610283578082015181840152602081019050610268565b50505050905090810190601f1680156102b05780820380516001836020036101000a031916815260200191505b50838103825289818151815260200191508051906020019080838360005b838110156102e95780820151818401526020810190506102ce565b50505050905090810190601f1680156103165780820380516001836020036101000a031916815260200191505b50995050505050505050505060405180910390f35b341561033657600080fd5b61033e610e40565b005b341561034b57600080fd5b61037760048080356000191690602001909190803590602001909190803590602001909190505061110f565b604051808215151515815260200191505060405180910390f35b341561039c57600080fd5b6103b66004808035600019169060200190919050506111f6565b604051808215151515815260200191505060405180910390f35b34156103db57600080fd5b610407600480803573ffffffffffffffffffffffffffffffffffffffff169060200190919050506118fa565b6040518080602001806020018060200180602001806020018060200187810387528d818151815260200191508051906020019060200280838360005b8381101561045e578082015181840152602081019050610443565b5050505090500187810386528c818151815260200191508051906020019060200280838360005b838110156104a0578082015181840152602081019050610485565b5050505090500187810385528b818151815260200191508051906020019060200280838360005b838110156104e25780820151818401526020810190506104c7565b5050505090500187810384528a818151815260200191508051906020019060200280838360005b83811015610524578082015181840152602081019050610509565b50505050905001878103835289818151815260200191508051906020019060200280838360005b8381101561056657808201518184015260208101905061054b565b50505050905001878103825288818151815260200191508051906020019060200280838360005b838110156105a857808201518184015260208101905061058d565b505050509050019c5050505050505050505050505060405180910390f35b34156105d157600080fd5b6105d9611fd0565b6040518082815260200191505060405180910390f35b34156105fa57600080fd5b61061d600480803560001916906020019091908035906020019091905050611fdd565b604051808215151515815260200191505060405180910390f35b61065a6004808035600019169060200190919080359060200190919050506121fd565b604051808215151515815260200191505060405180910390f35b341561067f57600080fd5b610699600480803560001916906020019091905050612617565b604051808215151515815260200191505060405180910390f35b34156106be57600080fd5b6106c6612ebe565b6040518082815260200191505060405180910390f35b34156106e757600080fd5b610713600480803573ffffffffffffffffffffffffffffffffffffffff16906020019091905050612ecb565b604051808215151515815260200191505060405180910390f35b341561073857600080fd5b610740612f6e565b604051808273ffffffffffffffffffffffffffffffffffffffff1673ffffffffffffffffffffffffffffffffffffffff16815260200191505060405180910390f35b341561078d57600080fd5b610795612f93565b604051808273ffffffffffffffffffffffffffffffffffffffff1673ffffffffffffffffffffffffffffffffffffffff16815260200191505060405180910390f35b34156107e257600080fd5b6107fc600480803560001916906020019091905050612fb9565b6040518082815260200191505060405180910390f35b341561081d57600080fd5b610825612fe1565b6040518080602001828103825283818151815260200191508051906020019060200280838360005b8381101561086857808201518184015260208101905061084d565b505050509050019250505060405180910390f35b341561088757600080fd5b6108b3600480803573ffffffffffffffffffffffffffffffffffffffff16906020019091905050613043565b6040518082815260200191505060405180910390f35b34156108d457600080fd5b6108dc61308c565b005b34156108e957600080fd5b610915600480803573ffffffffffffffffffffffffffffffffffffffff169060200190919050506131ab565b005b6109d260048080356000191690602001909190803590602001908201803590602001908080601f0160208091040260200160405190810160405280939291908181526020018383808284378201915050505050509190803590602001908201803590602001908080601f01602080910402602001604051908101604052809392919081815260200183838082843782019150505050505091908035906020019091908035906020019091908035906020019091905050613300565b604051808215151515815260200191505060405180910390f35b6000806000806000806109fd614334565b600460008a6000191660001916815260200190815260200160002088815481101515610a2557fe5b906000526020600020906005020160c060405190810160405290816000820160009054906101000a900473ffffffffffffffffffffffffffffffffffffffff1673ffffffffffffffffffffffffffffffffffffffff1673ffffffffffffffffffffffffffffffffffffffff1681526020016001820160009054906101000a900473ffffffffffffffffffffffffffffffffffffffff1673ffffffffffffffffffffffffffffffffffffffff1673ffffffffffffffffffffffffffffffffffffffff1681526020016001820160149054906101000a900460ff1660ff1660ff16815260200160028201548152602001600382015481526020016004820160009054906101000a900460ff166004811115610b3a57fe5b6004811115610b4557fe5b815250509050806000015196508060200151955080606001519350806080015192508060a00151915080604001519450509295509295509295565b610b886143a5565b610b906143a5565b6000806000806000610ba06143b9565b600360008a6000191660001916815260200190815260200160002061012060405190810160405290816000820154600019166000191681526020016001820160009054906101000a900460ff1660ff1660ff1681526020016001820160019054906101000a900460ff1660ff1660ff1681526020016001820160029054906101000a900463ffffffff1663ffffffff1663ffffffff1681526020016001820160069054906101000a900465ffffffffffff1665ffffffffffff1665ffffffffffff16815260200160018201600c9054906101000a900460ff166004811115610c8457fe5b6004811115610c8f57fe5b815260200160018201600d9054906101000a900460ff16151515158152602001600282018054600181600116156101000203166002900480601f016020809104026020016040519081016040528092919081815260200182805460018160011615610100020316600290048015610d475780601f10610d1c57610100808354040283529160200191610d47565b820191906000526020600020905b815481529060010190602001808311610d2a57829003601f168201915b50505050508152602001600382018054600181600116156101000203166002900480601f016020809104026020016040519081016040528092919081815260200182805460018160011615610100020316600290048015610de95780601f10610dbe57610100808354040283529160200191610de9565b820191906000526020600020905b815481529060010190602001808311610dcc57829003601f168201915b50505050508152505090508060e0015197508061010001519650806020015160ff169550806040015160ff1694508060a001519250806080015165ffffffffffff1693508060c00151915050919395979092949650565b60008060009054906101000a900473ffffffffffffffffffffffffffffffffffffffff1673ffffffffffffffffffffffffffffffffffffffff163373ffffffffffffffffffffffffffffffffffffffff16141515610e9d57600080fd5b600090505b60068054905081101561103257600060056000600684815481101515610ec457fe5b906000526020600020900160009054906101000a900473ffffffffffffffffffffffffffffffffffffffff1673ffffffffffffffffffffffffffffffffffffffff1673ffffffffffffffffffffffffffffffffffffffff16815260200190815260200160002054111561102557600681815481101515610f4057fe5b906000526020600020900160009054906101000a900473ffffffffffffffffffffffffffffffffffffffff1673ffffffffffffffffffffffffffffffffffffffff166108fc60056000600685815481101515610f9857fe5b906000526020600020900160009054906101000a900473ffffffffffffffffffffffffffffffffffffffff1673ffffffffffffffffffffffffffffffffffffffff1673ffffffffffffffffffffffffffffffffffffffff168152602001908152602001600020549081150290604051600060405180830381858888f19350505050151561102457600080fd5b5b8080600101915050610ea2565b7f215be423a2afeeee1f3f4d3cc730708809a96e17103a81f16896c0722bd206356000809054906101000a900473ffffffffffffffffffffffffffffffffffffffff163073ffffffffffffffffffffffffffffffffffffffff1631604051808373ffffffffffffffffffffffffffffffffffffffff1673ffffffffffffffffffffffffffffffffffffffff1681526020018281526020019250505060405180910390a16000809054906101000a900473ffffffffffffffffffffffffffffffffffffffff1673ffffffffffffffffffffffffffffffffffffffff16ff5b6000806000809054906101000a900473ffffffffffffffffffffffffffffffffffffffff1673ffffffffffffffffffffffffffffffffffffffff163373ffffffffffffffffffffffffffffffffffffffff1614151561116d57600080fd5b6003600086600019166000191681526020019081526020016000209050838160010160006101000a81548160ff021916908360ff160217905550828160010160016101000a81548160ff021916908360ff160217905550600481600101600c6101000a81548160ff021916908360048111156111e557fe5b021790555060019150509392505050565b60006112006143b9565b600080600060036000876000191660001916815260200190815260200160002061012060405190810160405290816000820154600019166000191681526020016001820160009054906101000a900460ff1660ff1660ff1681526020016001820160019054906101000a900460ff1660ff1660ff1681526020016001820160029054906101000a900463ffffffff1663ffffffff1663ffffffff1681526020016001820160069054906101000a900465ffffffffffff1665ffffffffffff1665ffffffffffff16815260200160018201600c9054906101000a900460ff1660048111156112e957fe5b60048111156112f457fe5b815260200160018201600d9054906101000a900460ff16151515158152602001600282018054600181600116156101000203166002900480601f0160208091040260200160405190810160405280929190818152602001828054600181600116156101000203166002900480156113ac5780601f10611381576101008083540402835291602001916113ac565b820191906000526020600020905b81548152906001019060200180831161138f57829003601f168201915b50505050508152602001600382018054600181600116156101000203166002900480601f01602080910402602001604051908101604052809291908181526020018280546001816001161561010002031660029004801561144e5780601f106114235761010080835404028352916020019161144e565b820191906000526020600020905b81548152906001019060200180831161143157829003601f168201915b505050505081525050935060048081111561146557fe5b8460a00151600481111561147557fe5b14151561148157600080fd5b600760003373ffffffffffffffffffffffffffffffffffffffff1673ffffffffffffffffffffffffffffffffffffffff168152602001908152602001600020805490509250600091505b828210156118ed578560001916600760003373ffffffffffffffffffffffffffffffffffffffff1673ffffffffffffffffffffffffffffffffffffffff1681526020019081526020016000208381548110151561152457fe5b9060005260206000209060030201600101546000191614156118e057600460008760001916600019168152602001908152602001600020600760003373ffffffffffffffffffffffffffffffffffffffff1673ffffffffffffffffffffffffffffffffffffffff168152602001908152602001600020838154811015156115a757fe5b906000526020600020906003020160000160009054906101000a900463ffffffff1663ffffffff168154811015156115db57fe5b90600052602060002090600502019050600160048111156115f857fe5b8160040160009054906101000a900460ff16600481111561161557fe5b14156117675761173b848260c060405190810160405290816000820160009054906101000a900473ffffffffffffffffffffffffffffffffffffffff1673ffffffffffffffffffffffffffffffffffffffff1673ffffffffffffffffffffffffffffffffffffffff1681526020016001820160009054906101000a900473ffffffffffffffffffffffffffffffffffffffff1673ffffffffffffffffffffffffffffffffffffffff1673ffffffffffffffffffffffffffffffffffffffff1681526020016001820160149054906101000a900460ff1660ff1660ff16815260200160028201548152602001600382015481526020016004820160009054906101000a900460ff16600481111561172757fe5b600481111561173257fe5b81525050613b65565b5060048160040160006101000a81548160ff0219169083600481111561175d57fe5b02179055506118df565b6000600481111561177457fe5b8160040160009054906101000a900460ff16600481111561179157fe5b14156118de576118b68160c060405190810160405290816000820160009054906101000a900473ffffffffffffffffffffffffffffffffffffffff1673ffffffffffffffffffffffffffffffffffffffff1673ffffffffffffffffffffffffffffffffffffffff1681526020016001820160009054906101000a900473ffffffffffffffffffffffffffffffffffffffff1673ffffffffffffffffffffffffffffffffffffffff1673ffffffffffffffffffffffffffffffffffffffff1681526020016001820160149054906101000a900460ff1660ff1660ff16815260200160028201548152602001600382015481526020016004820160009054906101000a900460ff1660048111156118a257fe5b60048111156118ad57fe5b81525050613e2d565b5060038160040160006101000a81548160ff021916908360048111156118d857fe5b02179055505b5b5b81806001019250506114cb565b6001945050505050919050565b611902614436565b61190a61444a565b61191261445e565b61191a61444a565b611922614472565b61192a61444a565b611932614436565b61193a61444a565b61194261444a565b61194a614472565b61195261444a565b61195a61445e565b6000600760008f73ffffffffffffffffffffffffffffffffffffffff1673ffffffffffffffffffffffffffffffffffffffff168152602001908152602001600020805490506040518059106119ac5750595b9080825280602002602001820160405250965086516040518059106119ce5750595b9080825280602002602001820160405250955086516040518059106119f05750595b908082528060200260200182016040525094508651604051805910611a125750595b908082528060200260200182016040525093508651604051805910611a345750595b908082528060200260200182016040525092508651604051805910611a565750595b90808252806020026020018201604052509150600090505b86518163ffffffff161015611fae57600760008f73ffffffffffffffffffffffffffffffffffffffff1673ffffffffffffffffffffffffffffffffffffffff1681526020019081526020016000208163ffffffff16815481101515611acf57fe5b906000526020600020906003020160010154878263ffffffff16815181101515611af557fe5b906020019060200201906000191690816000191681525050600760008f73ffffffffffffffffffffffffffffffffffffffff1673ffffffffffffffffffffffffffffffffffffffff1681526020019081526020016000208163ffffffff16815481101515611b5f57fe5b906000526020600020906003020160000160009054906101000a900463ffffffff1663ffffffff16868263ffffffff16815181101515611b9b57fe5b906020019060200201818152505060046000888363ffffffff16815181101515611bc157fe5b9060200190602002015160001916600019168152602001908152602001600020868263ffffffff16815181101515611bf557fe5b90602001906020020151815481101515611c0b57fe5b906000526020600020906005020160000160009054906101000a900473ffffffffffffffffffffffffffffffffffffffff1673ffffffffffffffffffffffffffffffffffffffff168e73ffffffffffffffffffffffffffffffffffffffff161415611d0b5760046000888363ffffffff16815181101515611c8857fe5b9060200190602002015160001916600019168152602001908152602001600020868263ffffffff16815181101515611cbc57fe5b90602001906020020151815481101515611cd257fe5b906000526020600020906005020160020154828263ffffffff16815181101515611cf857fe5b9060200190602002018181525050611dc4565b7fffffffffffffffffffffffffffffffffffffffffffffffffffffffffffffffff60046000898463ffffffff16815181101515611d4457fe5b9060200190602002015160001916600019168152602001908152602001600020878363ffffffff16815181101515611d7857fe5b90602001906020020151815481101515611d8e57fe5b90600052602060002090600502016002015402828263ffffffff16815181101515611db557fe5b90602001906020020181815250505b600760008f73ffffffffffffffffffffffffffffffffffffffff1673ffffffffffffffffffffffffffffffffffffffff1681526020019081526020016000208163ffffffff16815481101515611e1657fe5b906000526020600020906003020160020160009054906101000a900460ff16848263ffffffff16815181101515611e4957fe5b906020019060200201901515908115158152505060046000888363ffffffff16815181101515611e7557fe5b9060200190602002015160001916600019168152602001908152602001600020868263ffffffff16815181101515611ea957fe5b90602001906020020151815481101515611ebf57fe5b906000526020600020906005020160030154858263ffffffff16815181101515611ee557fe5b906020019060200201818152505060046000888363ffffffff16815181101515611f0b57fe5b9060200190602002015160001916600019168152602001908152602001600020868263ffffffff16815181101515611f3f57fe5b90602001906020020151815481101515611f5557fe5b906000526020600020906005020160040160009054906101000a900460ff166004811115611f7f57fe5b838263ffffffff16815181101515611f9357fe5b90602001906020020181815250508080600101915050611a6e565b8686838787879c509c509c509c509c509c505050505050505091939550919395565b6000600680549050905090565b6000806004600085600019166000191681526020019081526020016000208381548110151561200857fe5b906000526020600020906005020190503373ffffffffffffffffffffffffffffffffffffffff168160000160009054906101000a900473ffffffffffffffffffffffffffffffffffffffff1673ffffffffffffffffffffffffffffffffffffffff1614151561207657600080fd5b6000600481111561208357fe5b8160040160009054906101000a900460ff1660048111156120a057fe5b1415156120ac57600080fd5b6121cb8160c060405190810160405290816000820160009054906101000a900473ffffffffffffffffffffffffffffffffffffffff1673ffffffffffffffffffffffffffffffffffffffff1673ffffffffffffffffffffffffffffffffffffffff1681526020016001820160009054906101000a900473ffffffffffffffffffffffffffffffffffffffff1673ffffffffffffffffffffffffffffffffffffffff1673ffffffffffffffffffffffffffffffffffffffff1681526020016001820160149054906101000a900460ff1660ff1660ff16815260200160028201548152602001600382015481526020016004820160009054906101000a900460ff1660048111156121b757fe5b60048111156121c257fe5b81525050613e2d565b5060028160040160006101000a81548160ff021916908360048111156121ed57fe5b0217905550600191505092915050565b6000806004600085600019166000191681526020019081526020016000208381548110151561222857fe5b9060005260206000209060050201905034816003015414151561224a57600080fd5b3373ffffffffffffffffffffffffffffffffffffffff168160000160009054906101000a900473ffffffffffffffffffffffffffffffffffffffff1673ffffffffffffffffffffffffffffffffffffffff16141515156122a957600080fd5b600060048111156122b657fe5b8160040160009054906101000a900460ff1660048111156122d357fe5b1415156122df57600080fd5b338160010160006101000a81548173ffffffffffffffffffffffffffffffffffffffff021916908373ffffffffffffffffffffffffffffffffffffffff16021790555060018160040160006101000a81548160ff0219169083600481111561234357fe5b021790555061235133613eff565b156123ba576006805480600101828161236a9190614486565b9160005260206000209001600033909190916101000a81548173ffffffffffffffffffffffffffffffffffffffff021916908373ffffffffffffffffffffffffffffffffffffffff160217905550505b600760003373ffffffffffffffffffffffffffffffffffffffff1673ffffffffffffffffffffffffffffffffffffffff168152602001908152602001600020805480600101828161240b91906144b2565b916000526020600020906003020160006060604051908101604052808763ffffffff168152602001886000191681526020016000600181111561244a57fe5b60ff168660010160149054906101000a900460ff1660ff1614151515815250909190915060008201518160000160006101000a81548163ffffffff021916908363ffffffff1602179055506020820151816001019060001916905560408201518160020160006101000a81548160ff02191690831515021790555050505034600560003373ffffffffffffffffffffffffffffffffffffffff1673ffffffffffffffffffffffffffffffffffffffff168152602001908152602001600020600082825401925050819055507f488b2f9051d0b8ee33cbf7b1879374803cd93255e85ce22ba2368a92c38c96cf8160000160009054906101000a900473ffffffffffffffffffffffffffffffffffffffff168260010160009054906101000a900473ffffffffffffffffffffffffffffffffffffffff168686604051808573ffffffffffffffffffffffffffffffffffffffff1673ffffffffffffffffffffffffffffffffffffffff1681526020018473ffffffffffffffffffffffffffffffffffffffff1673ffffffffffffffffffffffffffffffffffffffff168152602001836000191660001916815260200182815260200194505050505060405180910390a1600191505092915050565b60008060008060008060009054906101000a900473ffffffffffffffffffffffffffffffffffffffff1673ffffffffffffffffffffffffffffffffffffffff163373ffffffffffffffffffffffffffffffffffffffff1614151561267a57600080fd5b600360008760001916600019168152602001908152602001600020600101600d9054906101000a900460ff161515156126b257600080fd5b6003600087600019166000191681526020019081526020016000209350600184600101600d6101000a81548160ff0219169083151502179055506004600087600019166000191681526020019081526020016000209250600091505b8280549050821015612c7057828281548110151561272857fe5b906000526020600020906005020190506001600481111561274557fe5b8160040160009054906101000a900460ff16600481111561276257fe5b1415612aeb57612abf8461012060405190810160405290816000820154600019166000191681526020016001820160009054906101000a900460ff1660ff1660ff1681526020016001820160019054906101000a900460ff1660ff1660ff1681526020016001820160029054906101000a900463ffffffff1663ffffffff1663ffffffff1681526020016001820160069054906101000a900465ffffffffffff1665ffffffffffff1665ffffffffffff16815260200160018201600c9054906101000a900460ff16600481111561283557fe5b600481111561284057fe5b815260200160018201600d9054906101000a900460ff16151515158152602001600282018054600181600116156101000203166002900480601f0160208091040260200160405190810160405280929190818152602001828054600181600116156101000203166002900480156128f85780601f106128cd576101008083540402835291602001916128f8565b820191906000526020600020905b8154815290600101906020018083116128db57829003601f168201915b50505050508152602001600382018054600181600116156101000203166002900480601f01602080910402602001604051908101604052809291908181526020018280546001816001161561010002031660029004801561299a5780601f1061296f5761010080835404028352916020019161299a565b820191906000526020600020905b81548152906001019060200180831161297d57829003601f168201915b5050505050815250508260c060405190810160405290816000820160009054906101000a900473ffffffffffffffffffffffffffffffffffffffff1673ffffffffffffffffffffffffffffffffffffffff1673ffffffffffffffffffffffffffffffffffffffff1681526020016001820160009054906101000a900473ffffffffffffffffffffffffffffffffffffffff1673ffffffffffffffffffffffffffffffffffffffff1673ffffffffffffffffffffffffffffffffffffffff1681526020016001820160149054906101000a900460ff1660ff1660ff16815260200160028201548152602001600382015481526020016004820160009054906101000a900460ff166004811115612aab57fe5b6004811115612ab657fe5b81525050613b65565b5060048160040160006101000a81548160ff02191690836004811115612ae157fe5b0217905550612c63565b60006004811115612af857fe5b8160040160009054906101000a900460ff166004811115612b1557fe5b1415612c6257612c3a8160c060405190810160405290816000820160009054906101000a900473ffffffffffffffffffffffffffffffffffffffff1673ffffffffffffffffffffffffffffffffffffffff1673ffffffffffffffffffffffffffffffffffffffff1681526020016001820160009054906101000a900473ffffffffffffffffffffffffffffffffffffffff1673ffffffffffffffffffffffffffffffffffffffff1673ffffffffffffffffffffffffffffffffffffffff1681526020016001820160149054906101000a900460ff1660ff1660ff16815260200160028201548152602001600382015481526020016004820160009054906101000a900460ff166004811115612c2657fe5b6004811115612c3157fe5b81525050613e2d565b5060038160040160006101000a81548160ff02191690836004811115612c5c57fe5b02179055505b5b818060010192505061270e565b612eb08461012060405190810160405290816000820154600019166000191681526020016001820160009054906101000a900460ff1660ff1660ff1681526020016001820160019054906101000a900460ff1660ff1660ff1681526020016001820160029054906101000a900463ffffffff1663ffffffff1663ffffffff1681526020016001820160069054906101000a900465ffffffffffff1665ffffffffffff1665ffffffffffff16815260200160018201600c9054906101000a900460ff166004811115612d3d57fe5b6004811115612d4857fe5b815260200160018201600d9054906101000a900460ff16151515158152602001600282018054600181600116156101000203166002900480601f016020809104026020016040519081016040528092919081815260200182805460018160011615610100020316600290048015612e005780601f10612dd557610100808354040283529160200191612e00565b820191906000526020600020905b815481529060010190602001808311612de357829003601f168201915b50505050508152602001600382018054600181600116156101000203166002900480601f016020809104026020016040519081016040528092919081815260200182805460018160011615610100020316600290048015612ea25780601f10612e7757610100808354040283529160200191612ea2565b820191906000526020600020905b815481529060010190602001808311612e8557829003601f168201915b505050505081525050613f4e565b506001945050505050919050565b6000600180549050905090565b60008060009054906101000a900473ffffffffffffffffffffffffffffffffffffffff1673ffffffffffffffffffffffffffffffffffffffff163373ffffffffffffffffffffffffffffffffffffffff16141515612f2857600080fd5b81600260006101000a81548173ffffffffffffffffffffffffffffffffffffffff021916908373ffffffffffffffffffffffffffffffffffffffff160217905550919050565b6000809054906101000a900473ffffffffffffffffffffffffffffffffffffffff1681565b600260009054906101000a900473ffffffffffffffffffffffffffffffffffffffff1681565b6000600460008360001916600019168152602001908152602001600020805490509050919050565b612fe9614436565b600180548060200260200160405190810160405280929190818152602001828054801561303957602002820191906000526020600020905b81546000191681526020019060010190808311613021575b5050505050905090565b6000600560008373ffffffffffffffffffffffffffffffffffffffff1673ffffffffffffffffffffffffffffffffffffffff168152602001908152602001600020549050919050565b6000809054906101000a900473ffffffffffffffffffffffffffffffffffffffff1673ffffffffffffffffffffffffffffffffffffffff163373ffffffffffffffffffffffffffffffffffffffff161415156130e757600080fd5b6000809054906101000a900473ffffffffffffffffffffffffffffffffffffffff1673ffffffffffffffffffffffffffffffffffffffff166108fc60056000600260009054906101000a900473ffffffffffffffffffffffffffffffffffffffff1673ffffffffffffffffffffffffffffffffffffffff1673ffffffffffffffffffffffffffffffffffffffff168152602001908152602001600020549081150290604051600060405180830381858888f1935050505015156131a957600080fd5b565b6000809054906101000a900473ffffffffffffffffffffffffffffffffffffffff1673ffffffffffffffffffffffffffffffffffffffff163373ffffffffffffffffffffffffffffffffffffffff1614151561320657600080fd5b600073ffffffffffffffffffffffffffffffffffffffff168173ffffffffffffffffffffffffffffffffffffffff161415151561324257600080fd5b8073ffffffffffffffffffffffffffffffffffffffff166000809054906101000a900473ffffffffffffffffffffffffffffffffffffffff1673ffffffffffffffffffffffffffffffffffffffff167f8be0079c531659141344cd1fd0a4f28419497f9722a3daafe3b4186f6b6457e060405160405180910390a3806000806101000a81548173ffffffffffffffffffffffffffffffffffffffff021916908373ffffffffffffffffffffffffffffffffffffffff16021790555050565b600061330a6143b9565b613312614334565b6000428611151561332257600080fd5b600060198681151561333057fe5b0714801561334b5750600860198681151561334757fe5b0513155b801561338357507ffffffffffffffffffffffffffffffffffffffffffffffffffffffffffffffff860198681151561337f57fe5b0512155b151561338e57600080fd5b600360008b6000191660001916815260200190815260200160002061012060405190810160405290816000820154600019166000191681526020016001820160009054906101000a900460ff1660ff1660ff1681526020016001820160019054906101000a900460ff1660ff1660ff1681526020016001820160029054906101000a900463ffffffff1663ffffffff1663ffffffff1681526020016001820160069054906101000a900465ffffffffffff1665ffffffffffff1665ffffffffffff16815260200160018201600c9054906101000a900460ff16600481111561347257fe5b600481111561347d57fe5b815260200160018201600d9054906101000a900460ff16151515158152602001600282018054600181600116156101000203166002900480601f0160208091040260200160405190810160405280929190818152602001828054600181600116156101000203166002900480156135355780601f1061350a57610100808354040283529160200191613535565b820191906000526020600020905b81548152906001019060200180831161351857829003601f168201915b50505050508152602001600382018054600181600116156101000203166002900480601f0160208091040260200160405190810160405280929190818152602001828054600181600116156101000203166002900480156135d75780601f106135ac576101008083540402835291602001916135d7565b820191906000526020600020905b8154815290600101906020018083116135ba57829003601f168201915b5050505050815250509250600060048111156135ef57fe5b8360a0015160048111156135ff57fe5b14156137fa578983600001906000191690816000191681525050888360e001819052508783610100018190525085836080019065ffffffffffff16908165ffffffffffff168152505060018360a00190600481111561365a57fe5b9081600481111561366757fe5b81525050600180805480600101828161368091906144e4565b916000526020600020900160008d90919091509060001916905503836060019063ffffffff16908163ffffffff168152505082600360008c600019166000191681526020019081526020016000206000820151816000019060001916905560208201518160010160006101000a81548160ff021916908360ff16021790555060408201518160010160016101000a81548160ff021916908360ff16021790555060608201518160010160026101000a81548163ffffffff021916908363ffffffff16021790555060808201518160010160066101000a81548165ffffffffffff021916908365ffffffffffff16021790555060a082015181600101600c6101000a81548160ff0219169083600481111561379657fe5b021790555060c082015181600101600d6101000a81548160ff02191690831515021790555060e08201518160020190805190602001906137d7929190614510565b506101008201518160030190805190602001906137f5929190614510565b509050505b60c0604051908101604052803373ffffffffffffffffffffffffffffffffffffffff168152602001600073ffffffffffffffffffffffffffffffffffffffff1681526020018860ff1681526020018681526020013481526020016000600481111561386157fe5b81525091506001600460008c6000191660001916815260200190815260200160002080548060010182816138959190614590565b9160005260206000209060050201600085909190915060008201518160000160006101000a81548173ffffffffffffffffffffffffffffffffffffffff021916908373ffffffffffffffffffffffffffffffffffffffff16021790555060208201518160010160006101000a81548173ffffffffffffffffffffffffffffffffffffffff021916908373ffffffffffffffffffffffffffffffffffffffff16021790555060408201518160010160146101000a81548160ff021916908360ff160217905550606082015181600201556080820151816003015560a08201518160040160006101000a81548160ff0219169083600481111561399257fe5b021790555050500390506139a533613eff565b15613a0e57600680548060010182816139be9190614486565b9160005260206000209001600033909190916101000a81548173ffffffffffffffffffffffffffffffffffffffff021916908373ffffffffffffffffffffffffffffffffffffffff160217905550505b600760003373ffffffffffffffffffffffffffffffffffffffff1673ffffffffffffffffffffffffffffffffffffffff1681526020019081526020016000208054806001018281613a5f91906144b2565b916000526020600020906003020160006060604051908101604052808563ffffffff1681526020018e60001916815260200160006001811115613a9e57fe5b60ff168c141515815250909190915060008201518160000160006101000a81548163ffffffff021916908363ffffffff1602179055506020820151816001019060001916905560408201518160020160006101000a81548160ff02191690831515021790555050505034600560003373ffffffffffffffffffffffffffffffffffffffff1673ffffffffffffffffffffffffffffffffffffffff16815260200190815260200160002060008282540192505081905550600193505050509695505050505050565b6000613b6f6145c2565b6000613b796145f1565b613b838686613f63565b9250600091505b6002821015613bfd578282600281101515613ba157fe5b6020020151905060008160200151118015613bd757506000816000015173ffffffffffffffffffffffffffffffffffffffff1614155b15613bf057613bee81600001518260200151614104565b505b8180600101925050613b8a565b846080015160056000876000015173ffffffffffffffffffffffffffffffffffffffff1673ffffffffffffffffffffffffffffffffffffffff168152602001908152602001600020540360056000876000015173ffffffffffffffffffffffffffffffffffffffff1673ffffffffffffffffffffffffffffffffffffffff16815260200190815260200160002081905550846080015160056000876020015173ffffffffffffffffffffffffffffffffffffffff1673ffffffffffffffffffffffffffffffffffffffff168152602001908152602001600020540360056000876020015173ffffffffffffffffffffffffffffffffffffffff1673ffffffffffffffffffffffffffffffffffffffff168152602001908152602001600020819055506064605f866080015102811515613d3257fe5b04856080015160056000600260009054906101000a900473ffffffffffffffffffffffffffffffffffffffff1673ffffffffffffffffffffffffffffffffffffffff1673ffffffffffffffffffffffffffffffffffffffff16815260200190815260200160002054010360056000600260009054906101000a900473ffffffffffffffffffffffffffffffffffffffff1673ffffffffffffffffffffffffffffffffffffffff1673ffffffffffffffffffffffffffffffffffffffff1681526020019081526020016000208190555060048560a001906004811115613e1357fe5b90816004811115613e2057fe5b8152505050505092915050565b6000613e4182600001518360800151614104565b5060038260a001906004811115613e5457fe5b90816004811115613e6157fe5b81525050816080015160056000846000015173ffffffffffffffffffffffffffffffffffffffff1673ffffffffffffffffffffffffffffffffffffffff168152602001908152602001600020540360056000846000015173ffffffffffffffffffffffffffffffffffffffff1673ffffffffffffffffffffffffffffffffffffffff1681526020019081526020016000208190555060019050919050565b600080600760008473ffffffffffffffffffffffffffffffffffffffff1673ffffffffffffffffffffffffffffffffffffffff1681526020019081526020016000208054905011159050919050565b6000613f598261416c565b5060019050919050565b613f6b6145c2565b6000806001811115613f7957fe5b60ff16836040015160ff161415613ffe57606060405190810160405280846000015173ffffffffffffffffffffffffffffffffffffffff168152602001613fd9866040015160ff16876020015160ff160386606001518760800151614249565b815260200184815250826000600281101515613ff157fe5b602002018190525061406e565b606060405190810160405280846000015173ffffffffffffffffffffffffffffffffffffffff16815260200161404d866020015160ff16876040015160ff160386606001518760800151614249565b81526020018481525082600060028110151561406557fe5b60200201819052505b81600060028110151561407d57fe5b6020020151602001516064605f85608001510281151561409957fe5b0484608001510103905060008111156140fa57606060405190810160405280846020015173ffffffffffffffffffffffffffffffffffffffff168152602001828152602001848152508260016002811015156140f157fe5b60200201819052505b8191505092915050565b6000808373ffffffffffffffffffffffffffffffffffffffff16141515614166578273ffffffffffffffffffffffffffffffffffffffff166108fc839081150290604051600060405180830381858888f19350505050151561416557600080fd5b5b92915050565b6000806000836060015191506001808054905003905060018163ffffffff1681548110151561419757fe5b90600052602060002090015460018363ffffffff168154811015156141b857fe5b90600052602060002090018160001916905550816003600060018563ffffffff168154811015156141e557fe5b9060005260206000209001546000191660001916815260200190815260200160002060010160026101000a81548163ffffffff021916908363ffffffff160217905550600180548091906001900361423d9190614630565b50600192505050919050565b60006019606485028401141561427e5760026064605f840281151561426a57fe5b0481151561427457fe5b048201905061432d565b7fffffffffffffffffffffffffffffffffffffffffffffffffffffffffffffffe760648502840114156142ce5760026064605f84028115156142bc57fe5b048115156142c657fe5b04905061432d565b600060648502840114156143015760026064600584028115156142ed57fe5b048115156142f757fe5b048203905061432d565b60196064850284011315614328576064605f830281151561431e57fe5b048201905061432d565b600090505b9392505050565b60c060405190810160405280600073ffffffffffffffffffffffffffffffffffffffff168152602001600073ffffffffffffffffffffffffffffffffffffffff168152602001600060ff16815260200160008152602001600081526020016000600481111561439f57fe5b81525090565b602060405190810160405280600081525090565b6101206040519081016040528060008019168152602001600060ff168152602001600060ff168152602001600063ffffffff168152602001600065ffffffffffff1681526020016000600481111561440d57fe5b815260200160001515815260200161442361465c565b815260200161443061465c565b81525090565b602060405190810160405280600081525090565b602060405190810160405280600081525090565b602060405190810160405280600081525090565b602060405190810160405280600081525090565b8154818355818115116144ad578183600052602060002091820191016144ac9190614670565b5b505050565b8154818355818115116144df576003028160030283600052602060002091820191016144de9190614695565b5b505050565b81548183558181151161450b5781836000526020600020918201910161450a91906146e7565b5b505050565b828054600181600116156101000203166002900490600052602060002090601f016020900481019282601f1061455157805160ff191683800117855561457f565b8280016001018555821561457f579182015b8281111561457e578251825591602001919060010190614563565b5b50905061458c9190614670565b5090565b8154818355818115116145bd576005028160050283600052602060002091820191016145bc919061470c565b5b505050565b610200604051908101604052806002905b6145db6147b1565b8152602001906001900390816145d35790505090565b61010060405190810160405280600073ffffffffffffffffffffffffffffffffffffffff1681526020016000815260200161462a6147f0565b81525090565b8154818355818115116146575781836000526020600020918201910161465691906146e7565b5b505050565b602060405190810160405280600081525090565b61469291905b8082111561468e576000816000905550600101614676565b5090565b90565b6146e491905b808211156146e057600080820160006101000a81549063ffffffff021916905560018201600090556002820160006101000a81549060ff02191690555060030161469b565b5090565b90565b61470991905b808211156147055760008160009055506001016146ed565b5090565b90565b6147ae91905b808211156147aa57600080820160006101000a81549073ffffffffffffffffffffffffffffffffffffffff02191690556001820160006101000a81549073ffffffffffffffffffffffffffffffffffffffff02191690556001820160146101000a81549060ff0219169055600282016000905560038201600090556004820160006101000a81549060ff021916905550600501614712565b5090565b90565b61010060405190810160405280600073ffffffffffffffffffffffffffffffffffffffff168152602001600081526020016147ea6147f0565b81525090565b60c060405190810160405280600073ffffffffffffffffffffffffffffffffffffffff168152602001600073ffffffffffffffffffffffffffffffffffffffff168152602001600060ff16815260200160008152602001600081526020016000600481111561485b57fe5b815250905600a165627a7a72305820eee9f34f24a0103557e35192aca772ec36d5817dd38d4ae53f376d0d63f638d00029",
  "source": "pragma solidity ^0.4.21;\n\nimport \"./Ownable.sol\";\nimport \"./SoloBet.sol\";\n\ncontract AsianSoloBet is Ownable, SoloBet {\n\n  function AsianSoloBet() public {\n    feeOwner = msg.sender;\n  }\n\n\n  function getBettingMatchesByAddress(address bettingOwner) public view returns (bytes32[], uint256[], int[], uint256[], bool[], uint[]) {\n    bytes32[] memory matchIds = new bytes32[](myBets[bettingOwner].length);\n    uint256[] memory betIdxes = new uint256[](matchIds.length);\n    uint256[] memory amounts = new uint256[](matchIds.length);\n    bool[]memory slHTeam = new bool[](matchIds.length);\n    uint256[] memory status = new uint256[](matchIds.length);\n    int[] memory odds = new int[](matchIds.length);\n    for (uint32 i = 0; i < matchIds.length; i++) {\n\n      matchIds[i] = myBets[bettingOwner][i].matchId;\n      betIdxes[i] = uint256(myBets[bettingOwner][i].betIdx);\n      if (bettingOwner == bets[matchIds[i]][betIdxes[i]].bMaker) {\n        odds[i] = bets[matchIds[i]][betIdxes[i]].odds;\n      } else {\n        odds[i] = bets[matchIds[i]][betIdxes[i]].odds * - 1;\n      }\n      slHTeam[i] = myBets[bettingOwner][i].bet4HTeam;\n      amounts[i] = bets[matchIds[i]][betIdxes[i]].amount;\n      status[i] = uint256(bets[matchIds[i]][betIdxes[i]].status);\n    }\n\n    return (matchIds, betIdxes, odds, amounts, slHTeam, status);\n  }\n\n\n  function totalBets(bytes32 matchId) public view returns (uint256) {\n    return bets[matchId].length;\n  }\n\n\n  function findMatch(bytes32 matchId) public view returns (\n    string homeTeam,\n    string awayTeam,\n    uint homeScore,\n    uint awayScore,\n    uint time,\n    MatchStatus status,\n    bool isApproved) {\n\n    Match memory _match = matches[matchId];\n\n    homeTeam = _match.hT;\n    awayTeam = _match.aT;\n    homeScore = _match.hSc;\n    awayScore = _match.aSc;\n    status = _match.status;\n    time = _match.time;\n    isApproved = _match.isApproved;\n  }\n\n\n  function updateScore(bytes32 matchId, uint homeScore, uint awayScore) public onlyOwner returns (bool) {\n    Match storage _match = matches[matchId];\n    _match.hSc = uint8(homeScore);\n    _match.aSc = uint8(awayScore);\n    _match.status = MatchStatus.Finished;\n    return true;\n  }\n\n  function approveScore(bytes32 matchId) public onlyOwner returns (bool) {\n    require(!matches[matchId].isApproved);\n    Match storage _match = matches[matchId];\n    _match.isApproved = true;\n\n    Betting[] storage _bettings = bets[matchId];\n    for (uint256 i = 0; i < _bettings.length; i++) {\n\n      Betting storage _betting = _bettings[i];\n      if (_betting.status == BetStatus.Deal) {\n        doTransfer(_match, _betting);\n        _betting.status = BetStatus.Done;\n      } else if (_betting.status == BetStatus.Open) {\n        refund(_betting);\n        _betting.status = BetStatus.Refunded;\n      }\n\n    }\n\n    rmBet(_match);\n    return true;\n  }\n\n  function claimStake(bytes32 matchId) public returns (bool) {\n    Match memory _match = matches[matchId];\n    require(_match.status == MatchStatus.Finished);\n    uint betCount = myBets[msg.sender].length;\n    for (uint i = 0; i < betCount; i++) {\n\n      if (myBets[msg.sender][i].matchId == matchId) {\n        Betting storage _betting = bets[matchId][myBets[msg.sender][i].betIdx];\n        if (_betting.status == BetStatus.Deal) {\n          doTransfer(_match, _betting);\n          _betting.status = BetStatus.Done;\n        } else if (_betting.status == BetStatus.Open) {\n          refund(_betting);\n          _betting.status = BetStatus.Refunded;\n        }\n      }\n    }\n    return true;\n\n  }\n\n\n  function cancelOffer(bytes32 matchId, uint256 bettingId) external returns (bool){\n    Betting storage _betting = bets[matchId][bettingId];\n    require(_betting.bMaker == msg.sender);\n    require(_betting.status == BetStatus.Open);\n    refund(_betting);\n    _betting.status = BetStatus.Canceled;\n    return true;\n  }\n\n  function rmBet(Match _match) private returns (bool){\n    //delete bets[_match.id];\n    rmBetIdx(_match);\n    return true;\n  }\n\n  function rmBetIdx(Match _match) private returns (bool) {\n\n    uint32 toDelete = _match.idx;\n    uint32 lastIdx = uint32(betIndexes.length - 1);\n    betIndexes[toDelete] = betIndexes[lastIdx];\n    matches[betIndexes[toDelete]].idx = toDelete;\n    betIndexes.length--;\n    return true;\n  }\n\n  function transferFund(address receiver, uint256 amount) private returns (bool) {\n    if (receiver != 0x0) {\n      receiver.transfer(amount);\n    }\n  }\n\n  function refund(Betting _betting) internal returns (bool) {\n    transferFund(_betting.bMaker, _betting.amount);\n    _betting.status = BetStatus.Refunded;\n    balances[_betting.bMaker] = balances[_betting.bMaker] - _betting.amount;\n    return true;\n  }\n\n  function doTransfer(Match _match, Betting _betting) internal returns (bool) {\n\n    Funding[2] memory fundings = getFunding(_match, _betting);\n    for (uint i = 0; i < fundings.length; i++) {\n      Funding memory funding = fundings[i];\n      if (funding.amount > 0 && funding.receiver != 0x0) {\n        transferFund(funding.receiver, funding.amount);\n      }\n    }\n\n    balances[_betting.bMaker] = balances[_betting.bMaker] - _betting.amount;\n    balances[_betting.punter] = balances[_betting.punter] - _betting.amount;\n    balances[feeOwner] = balances[feeOwner] + _betting.amount - _betting.amount * 95 / 100;\n    _betting.status = BetStatus.Done;\n  }\n\n\n  function getFunding(Match _match, Betting _betting) internal returns (Funding[2] fundings) {\n\n    if (_betting.bmTeam == uint8(Team.Home)) {\n      fundings[0] = Funding(_betting.bMaker, calculateAmount(int(_match.hSc) - int(_match.aSc), _betting.odds, _betting.amount), _betting);\n    } else {\n      fundings[0] = Funding(_betting.bMaker, calculateAmount(int(_match.aSc) - int(_match.hSc), _betting.odds, _betting.amount), _betting);\n    }\n\n    uint punterAmount = _betting.amount + _betting.amount * 95 / 100 - fundings[0].amount;\n    if (punterAmount > 0) {\n      fundings[1] = Funding(_betting.punter, punterAmount, _betting);\n    }\n    return fundings;\n  }\n\n  function calculateAmount(int goaldifference, int odds, uint amount) private returns (uint256) {\n    if ((odds + goaldifference * 100) == 25) return amount + amount * 95 / 100 / 2;\n    if ((odds + goaldifference * 100) == - 25) return amount * 95 / 100 / 2;\n    if ((odds + goaldifference * 100) == 0) return amount - amount * 5 / 100 / 2;\n    if ((odds + goaldifference * 100) > 25) return amount + amount * 95 / 100;\n\n    return 0;\n\n  }\n\n  function getBettingMatchIds() public view returns (bytes32[]) {\n    return betIndexes;\n  }\n\n  function getTotalBettingMatches() public view returns (uint256) {\n    return betIndexes.length;\n  }\n\n  function offerNewMatch(bytes32 matchId, string homeTeam, string awayTeam, uint selectedTeam, uint time, int odds) public payable returns (bool) {\n\n    require(time > now);\n    require((odds % 25 == 0) && (odds / 25 <= 8) && (odds / 25 >= - 8));\n\n    Match memory _match = matches[matchId];\n\n    if (_match.status == MatchStatus.NotAvailable) {\n      _match.id = matchId;\n      _match.hT = homeTeam;\n      _match.aT = awayTeam;\n      _match.time = uint48(time);\n      _match.status = MatchStatus.Waiting;\n      _match.idx = uint32(betIndexes.push(matchId) - 1);\n      matches[matchId] = _match;\n    }\n\n    Betting memory _betting = Betting(msg.sender, 0x0, uint8(selectedTeam), odds, msg.value, BetStatus.Open);\n    uint32 betIdx = uint32(bets[matchId].push(_betting) - 1);\n    if (isPlayerNotExist(msg.sender)) {\n      players.push(msg.sender);\n    }\n    myBets[msg.sender].push(MyBet(betIdx, matchId, selectedTeam == uint8(Team.Home)));\n    balances[msg.sender] += msg.value;\n    return true;\n\n  }\n\n  function deal(bytes32 matchId, uint256 bettingId) public payable returns (bool) {\n    Betting storage _betting = bets[matchId][bettingId];\n    require(_betting.amount == msg.value);\n    require(_betting.bMaker != msg.sender);\n    require(_betting.status == BetStatus.Open);\n    _betting.punter = msg.sender;\n    _betting.status = BetStatus.Deal;\n\n    if (isPlayerNotExist(msg.sender)) {\n      players.push(msg.sender);\n    }\n\n    myBets[msg.sender].push(MyBet(uint32(bettingId), matchId, _betting.bmTeam != uint8(Team.Home)));\n\n    balances[msg.sender] += msg.value;\n\n    emit LogDeal(_betting.bMaker, _betting.punter, matchId, bettingId);\n\n    return true;\n  }\n\n  function getBettingInfo(bytes32 matchId, uint256 bettingId) public view returns (address bMaker, address punter, uint8 selectedTeam, int odds, uint256 amount, BetStatus status) {\n    Betting memory _betting = bets[matchId][bettingId];\n    bMaker = _betting.bMaker;\n    punter = _betting.punter;\n    odds = _betting.odds;\n    amount = _betting.amount;\n    status = _betting.status;\n    selectedTeam = _betting.bmTeam;\n  }\n\n  event LogSelfDestruct(address sender, uint amount);\n\n  function destroyContract() public onlyOwner {\n    for (uint i = 0; i < players.length; i++) {\n      if (balances[players[i]] > 0) {\n        players[i].transfer(balances[players[i]]);\n      }\n    }\n\n    emit LogSelfDestruct(owner, this.balance);\n    selfdestruct(owner);\n  }\n}\n",
  "sourcePath": "/home/chuonghd/Project/smartcontract/football-bet/contracts/AsianSoloBet.sol",
  "compiler": {
    "name": "solc",
    "version": "0.4.21+commit.dfe3193c.Emscripten.clang"
  },
  "schemaVersion": "2.0.0",
  "updatedAt": "2018-07-12T06:49:32.931Z"
}